{
  "abi": [
    {
      "inputs": [],
      "stateMutability": "nonpayable",
      "type": "constructor"
    },
    {
      "anonymous": false,
      "inputs": [
        {
          "indexed": false,
          "internalType": "uint192",
          "name": "amount",
          "type": "uint192"
        },
        {
          "indexed": true,
          "internalType": "address",
          "name": "owner",
          "type": "address"
        }
      ],
      "name": "BoostedToMax",
      "type": "event"
    },
    {
      "anonymous": false,
      "inputs": [
        {
          "indexed": false,
          "internalType": "uint192",
          "name": "amount",
          "type": "uint192"
        },
        {
          "indexed": false,
          "internalType": "uint32",
          "name": "lockDuration",
          "type": "uint32"
        },
        {
          "indexed": true,
          "internalType": "address",
          "name": "owner",
          "type": "address"
        }
      ],
      "name": "Deposited",
      "type": "event"
    },
    {
      "anonymous": false,
      "inputs": [
        {
          "indexed": false,
          "internalType": "address",
          "name": "lockOwner",
          "type": "address"
        },
        {
          "indexed": false,
          "internalType": "uint256",
          "name": "amount",
          "type": "uint256"
        }
      ],
      "name": "EarlyExit",
      "type": "event"
    },
    {
      "anonymous": false,
      "inputs": [
        {
          "indexed": false,
          "internalType": "uint256",
          "name": "afterFee",
          "type": "uint256"
        }
      ],
      "name": "EarlyExitFeeChanged",
      "type": "event"
    },
    {
      "anonymous": false,
      "inputs": [
        {
          "indexed": false,
          "internalType": "uint32",
          "name": "newEjectBuffer",
          "type": "uint32"
        }
      ],
      "name": "EjectBufferUpdated",
      "type": "event"
    },
    {
      "anonymous": false,
      "inputs": [
        {
          "indexed": false,
          "internalType": "uint192",
          "name": "amount",
          "type": "uint192"
        },
        {
          "indexed": true,
          "internalType": "address",
          "name": "owner",
          "type": "address"
        }
      ],
      "name": "Ejected",
      "type": "event"
    },
    {
      "anonymous": false,
      "inputs": [
        {
          "indexed": false,
          "internalType": "uint192",
          "name": "amount",
          "type": "uint192"
        },
        {
          "indexed": false,
          "internalType": "uint32",
          "name": "lockDuration",
          "type": "uint32"
        },
        {
          "indexed": true,
          "internalType": "address",
          "name": "owner",
          "type": "address"
        }
      ],
      "name": "IncreasedAmount",
      "type": "event"
    },
    {
      "anonymous": false,
      "inputs": [
        {
          "indexed": false,
          "internalType": "uint192",
          "name": "amount",
          "type": "uint192"
        },
        {
          "indexed": false,
          "internalType": "uint32",
          "name": "lockDuration",
          "type": "uint32"
        },
        {
          "indexed": false,
          "internalType": "uint32",
          "name": "lockedAt",
          "type": "uint32"
        },
        {
          "indexed": true,
          "internalType": "address",
          "name": "owner",
          "type": "address"
        }
      ],
      "name": "IncreasedDuration",
      "type": "event"
    },
    {
      "anonymous": false,
      "inputs": [
        {
          "indexed": false,
          "internalType": "uint8",
          "name": "version",
          "type": "uint8"
        }
      ],
      "name": "Initialized",
      "type": "event"
    },
    {
      "anonymous": false,
      "inputs": [
        {
          "indexed": true,
          "internalType": "address",
          "name": "account",
          "type": "address"
        },
        {
          "indexed": false,
          "internalType": "uint256",
          "name": "amountDepositMigrated",
          "type": "uint256"
        }
      ],
      "name": "Migrated",
      "type": "event"
    },
    {
      "anonymous": false,
      "inputs": [
        {
          "indexed": false,
          "internalType": "bool",
          "name": "enabled",
          "type": "bool"
        }
      ],
      "name": "MigrationEnabledChanged",
      "type": "event"
    },
    {
      "anonymous": false,
      "inputs": [
        {
          "indexed": true,
          "internalType": "address",
          "name": "newMigrator",
          "type": "address"
        }
      ],
      "name": "MigratorUpdated",
      "type": "event"
    },
    {
      "anonymous": false,
      "inputs": [
        {
          "indexed": false,
          "internalType": "uint192",
          "name": "newLockAmount",
          "type": "uint192"
        }
      ],
      "name": "MinLockAmountChanged",
      "type": "event"
    },
    {
      "anonymous": false,
      "inputs": [
        {
          "indexed": false,
          "internalType": "address",
          "name": "prv",
          "type": "address"
        }
      ],
      "name": "PRVAddressChanged",
      "type": "event"
    },
    {
      "anonymous": false,
      "inputs": [
        {
          "indexed": false,
          "internalType": "address",
          "name": "_newBeneficiary",
          "type": "address"
        }
      ],
      "name": "PenaltyBeneficiaryChanged",
      "type": "event"
    },
    {
      "anonymous": false,
      "inputs": [
        {
          "indexed": true,
          "internalType": "bytes32",
          "name": "role",
          "type": "bytes32"
        },
        {
          "indexed": true,
          "internalType": "bytes32",
          "name": "previousAdminRole",
          "type": "bytes32"
        },
        {
          "indexed": true,
          "internalType": "bytes32",
          "name": "newAdminRole",
          "type": "bytes32"
        }
      ],
      "name": "RoleAdminChanged",
      "type": "event"
    },
    {
      "anonymous": false,
      "inputs": [
        {
          "indexed": true,
          "internalType": "bytes32",
          "name": "role",
          "type": "bytes32"
        },
        {
          "indexed": true,
          "internalType": "address",
          "name": "account",
          "type": "address"
        },
        {
          "indexed": true,
          "internalType": "address",
          "name": "sender",
          "type": "address"
        }
      ],
      "name": "RoleGranted",
      "type": "event"
    },
    {
      "anonymous": false,
      "inputs": [
        {
          "indexed": true,
          "internalType": "bytes32",
          "name": "role",
          "type": "bytes32"
        },
        {
          "indexed": true,
          "internalType": "address",
          "name": "account",
          "type": "address"
        },
        {
          "indexed": true,
          "internalType": "address",
          "name": "sender",
          "type": "address"
        }
      ],
      "name": "RoleRevoked",
      "type": "event"
    },
    {
      "anonymous": false,
      "inputs": [
        {
          "indexed": true,
          "internalType": "address",
          "name": "account",
          "type": "address"
        },
        {
          "indexed": true,
          "internalType": "bool",
          "name": "whitelisted",
          "type": "bool"
        }
      ],
      "name": "WhitelistedChanged",
      "type": "event"
    },
    {
      "anonymous": false,
      "inputs": [
        {
          "indexed": false,
          "internalType": "uint192",
          "name": "amount",
          "type": "uint192"
        },
        {
          "indexed": true,
          "internalType": "address",
          "name": "owner",
          "type": "address"
        }
      ],
      "name": "Withdrawn",
      "type": "event"
    },
    {
      "inputs": [],
      "name": "COMPOUNDER_ROLE",
      "outputs": [
        {
          "internalType": "bytes32",
          "name": "",
          "type": "bytes32"
        }
      ],
      "stateMutability": "view",
      "type": "function"
    },
    {
      "inputs": [],
      "name": "DEFAULT_ADMIN_ROLE",
      "outputs": [
        {
          "internalType": "bytes32",
          "name": "",
          "type": "bytes32"
        }
      ],
      "stateMutability": "view",
      "type": "function"
    },
    {
      "inputs": [],
      "name": "HUNDRED_PERCENT",
      "outputs": [
        {
          "internalType": "uint256",
          "name": "",
          "type": "uint256"
        }
      ],
      "stateMutability": "view",
      "type": "function"
    },
    {
      "inputs": [],
      "name": "PRV",
      "outputs": [
        {
          "internalType": "address",
          "name": "",
          "type": "address"
        }
      ],
      "stateMutability": "view",
      "type": "function"
    },
    {
      "inputs": [],
      "name": "boostToMax",
      "outputs": [],
      "stateMutability": "nonpayable",
      "type": "function"
    },
    {
      "inputs": [
        {
          "internalType": "address",
          "name": "_account",
          "type": "address"
        }
      ],
      "name": "canEject",
      "outputs": [
        {
          "internalType": "bool",
          "name": "",
          "type": "bool"
        }
      ],
      "stateMutability": "view",
      "type": "function"
    },
    {
      "inputs": [
        {
          "internalType": "uint192",
          "name": "_amount",
          "type": "uint192"
        },
        {
          "internalType": "uint256",
          "name": "_months",
          "type": "uint256"
        },
        {
          "internalType": "address",
          "name": "_receiver",
          "type": "address"
        }
      ],
      "name": "depositByMonths",
      "outputs": [],
      "stateMutability": "nonpayable",
      "type": "function"
    },
    {
      "inputs": [
        {
          "internalType": "uint192",
          "name": "_amount",
          "type": "uint192"
        },
        {
          "internalType": "uint256",
          "name": "_months",
          "type": "uint256"
        },
        {
          "internalType": "address",
          "name": "_receiver",
          "type": "address"
        },
        {
          "internalType": "uint256",
          "name": "_deadline",
          "type": "uint256"
        },
        {
          "internalType": "uint8",
          "name": "v",
          "type": "uint8"
        },
        {
          "internalType": "bytes32",
          "name": "r",
          "type": "bytes32"
        },
        {
          "internalType": "bytes32",
          "name": "s",
          "type": "bytes32"
        }
      ],
      "name": "depositByMonthsWithSignature",
      "outputs": [],
      "stateMutability": "nonpayable",
      "type": "function"
    },
    {
      "inputs": [],
      "name": "depositToken",
      "outputs": [
        {
          "internalType": "contract IERC20",
          "name": "",
          "type": "address"
        }
      ],
      "stateMutability": "view",
      "type": "function"
    },
    {
      "inputs": [],
      "name": "earlyExitFee",
      "outputs": [
        {
          "internalType": "uint256",
          "name": "",
          "type": "uint256"
        }
      ],
      "stateMutability": "view",
      "type": "function"
    },
    {
      "inputs": [
        {
          "internalType": "address[]",
          "name": "_lockAccounts",
          "type": "address[]"
        }
      ],
      "name": "eject",
      "outputs": [],
      "stateMutability": "nonpayable",
      "type": "function"
    },
    {
      "inputs": [],
      "name": "ejectBuffer",
      "outputs": [
        {
          "internalType": "uint32",
          "name": "",
          "type": "uint32"
        }
      ],
      "stateMutability": "view",
      "type": "function"
    },
    {
      "inputs": [],
      "name": "emergencyUnlockTriggered",
      "outputs": [
        {
          "internalType": "bool",
          "name": "",
          "type": "bool"
        }
      ],
      "stateMutability": "view",
      "type": "function"
    },
    {
      "inputs": [],
      "name": "getAdmin",
      "outputs": [
        {
          "internalType": "address",
          "name": "",
          "type": "address"
        }
      ],
      "stateMutability": "view",
      "type": "function"
    },
    {
      "inputs": [
        {
          "internalType": "uint256",
          "name": "months",
          "type": "uint256"
        }
      ],
      "name": "getDuration",
      "outputs": [
        {
          "internalType": "uint32",
          "name": "",
          "type": "uint32"
        }
      ],
      "stateMutability": "pure",
      "type": "function"
    },
    {
      "inputs": [
        {
          "internalType": "address",
          "name": "_depositor",
          "type": "address"
        }
      ],
      "name": "getLock",
      "outputs": [
        {
          "components": [
            {
              "internalType": "uint192",
              "name": "amount",
              "type": "uint192"
            },
            {
              "internalType": "uint32",
              "name": "lockedAt",
              "type": "uint32"
            },
            {
              "internalType": "uint32",
              "name": "lockDuration",
              "type": "uint32"
            }
          ],
          "internalType": "struct TokenLocker.Lock",
          "name": "lock",
          "type": "tuple"
        }
      ],
      "stateMutability": "view",
      "type": "function"
    },
    {
      "inputs": [
        {
          "internalType": "uint32",
          "name": "_duration",
          "type": "uint32"
        }
      ],
      "name": "getLockMultiplier",
      "outputs": [
        {
          "internalType": "uint256",
          "name": "multiplier",
          "type": "uint256"
        }
      ],
      "stateMutability": "view",
      "type": "function"
    },
    {
      "inputs": [
        {
          "internalType": "bytes32",
          "name": "role",
          "type": "bytes32"
        }
      ],
      "name": "getRoleAdmin",
      "outputs": [
        {
          "internalType": "bytes32",
          "name": "",
          "type": "bytes32"
        }
      ],
      "stateMutability": "view",
      "type": "function"
    },
    {
      "inputs": [
        {
          "internalType": "bytes32",
          "name": "role",
          "type": "bytes32"
        },
        {
          "internalType": "uint256",
          "name": "index",
          "type": "uint256"
        }
      ],
      "name": "getRoleMember",
      "outputs": [
        {
          "internalType": "address",
          "name": "",
          "type": "address"
        }
      ],
      "stateMutability": "view",
      "type": "function"
    },
    {
      "inputs": [
        {
          "internalType": "bytes32",
          "name": "role",
          "type": "bytes32"
        }
      ],
      "name": "getRoleMemberCount",
      "outputs": [
        {
          "internalType": "uint256",
          "name": "",
          "type": "uint256"
        }
      ],
      "stateMutability": "view",
      "type": "function"
    },
    {
      "inputs": [],
      "name": "getSecondsMonths",
      "outputs": [
        {
          "internalType": "uint256",
          "name": "",
          "type": "uint256"
        }
      ],
      "stateMutability": "pure",
      "type": "function"
    },
    {
      "inputs": [
        {
          "internalType": "bytes32",
          "name": "role",
          "type": "bytes32"
        },
        {
          "internalType": "address",
          "name": "account",
          "type": "address"
        }
      ],
      "name": "grantRole",
      "outputs": [],
      "stateMutability": "nonpayable",
      "type": "function"
    },
    {
      "inputs": [
        {
          "internalType": "address",
          "name": "_account",
          "type": "address"
        }
      ],
      "name": "hasLock",
      "outputs": [
        {
          "internalType": "bool",
          "name": "",
          "type": "bool"
        }
      ],
      "stateMutability": "view",
      "type": "function"
    },
    {
      "inputs": [
        {
          "internalType": "bytes32",
          "name": "role",
          "type": "bytes32"
        },
        {
          "internalType": "address",
          "name": "account",
          "type": "address"
        }
      ],
      "name": "hasRole",
      "outputs": [
        {
          "internalType": "bool",
          "name": "",
          "type": "bool"
        }
      ],
      "stateMutability": "view",
      "type": "function"
    },
    {
      "inputs": [
        {
          "internalType": "uint192",
          "name": "_amountNewTokens",
          "type": "uint192"
        }
      ],
      "name": "increaseAmount",
      "outputs": [],
      "stateMutability": "nonpayable",
      "type": "function"
    },
    {
      "inputs": [
        {
          "internalType": "address",
          "name": "_receiver",
          "type": "address"
        },
        {
          "internalType": "uint192",
          "name": "_amountNewTokens",
          "type": "uint192"
        }
      ],
      "name": "increaseAmountFor",
      "outputs": [],
      "stateMutability": "nonpayable",
      "type": "function"
    },
    {
      "inputs": [
        {
          "internalType": "uint192",
          "name": "_amount",
          "type": "uint192"
        },
        {
          "internalType": "uint256",
          "name": "_deadline",
          "type": "uint256"
        },
        {
          "internalType": "uint8",
          "name": "v",
          "type": "uint8"
        },
        {
          "internalType": "bytes32",
          "name": "r",
          "type": "bytes32"
        },
        {
          "internalType": "bytes32",
          "name": "s",
          "type": "bytes32"
        }
      ],
      "name": "increaseAmountWithSignature",
      "outputs": [],
      "stateMutability": "nonpayable",
      "type": "function"
    },
    {
      "inputs": [
        {
          "internalType": "address[]",
          "name": "receivers",
          "type": "address[]"
        },
        {
          "internalType": "uint192[]",
          "name": "_amountNewTokens",
          "type": "uint192[]"
        }
      ],
      "name": "increaseAmountsForMany",
      "outputs": [],
      "stateMutability": "nonpayable",
      "type": "function"
    },
    {
      "inputs": [
        {
          "internalType": "uint256",
          "name": "_months",
          "type": "uint256"
        }
      ],
      "name": "increaseByMonths",
      "outputs": [],
      "stateMutability": "nonpayable",
      "type": "function"
    },
    {
      "inputs": [
        {
          "internalType": "contract IERC20",
          "name": "_depositToken",
          "type": "address"
        },
        {
          "internalType": "contract IERC20MintableBurnable",
          "name": "_veToken",
          "type": "address"
        },
        {
          "internalType": "uint32",
          "name": "_minLockDuration",
          "type": "uint32"
        },
        {
          "internalType": "uint32",
          "name": "_maxLockDuration",
          "type": "uint32"
        },
        {
          "internalType": "uint192",
          "name": "_minLockAmount",
          "type": "uint192"
        }
      ],
      "name": "initialize",
      "outputs": [],
      "stateMutability": "nonpayable",
      "type": "function"
    },
    {
      "inputs": [
        {
          "components": [
            {
              "internalType": "uint192",
              "name": "amount",
              "type": "uint192"
            },
            {
              "internalType": "uint32",
              "name": "lockedAt",
              "type": "uint32"
            },
            {
              "internalType": "uint32",
              "name": "lockDuration",
              "type": "uint32"
            }
          ],
          "internalType": "struct TokenLocker.Lock",
          "name": "lock",
          "type": "tuple"
        }
      ],
      "name": "isLockExpired",
      "outputs": [
        {
          "internalType": "bool",
          "name": "",
          "type": "bool"
        }
      ],
      "stateMutability": "view",
      "type": "function"
    },
    {
      "inputs": [
        {
          "internalType": "address",
          "name": "_depositor",
          "type": "address"
        }
      ],
      "name": "isLockExpired",
      "outputs": [
        {
          "internalType": "bool",
          "name": "",
          "type": "bool"
        }
      ],
      "stateMutability": "view",
      "type": "function"
    },
    {
      "inputs": [
        {
          "internalType": "address",
          "name": "",
          "type": "address"
        }
      ],
      "name": "lockOf",
      "outputs": [
        {
          "internalType": "uint192",
          "name": "amount",
          "type": "uint192"
        },
        {
          "internalType": "uint32",
          "name": "lockedAt",
          "type": "uint32"
        },
        {
          "internalType": "uint32",
          "name": "lockDuration",
          "type": "uint32"
        }
      ],
      "stateMutability": "view",
      "type": "function"
    },
    {
      "inputs": [],
      "name": "maxLockDuration",
      "outputs": [
        {
          "internalType": "uint32",
          "name": "",
          "type": "uint32"
        }
      ],
      "stateMutability": "view",
      "type": "function"
    },
    {
      "inputs": [
        {
          "internalType": "uint256",
          "name": "",
          "type": "uint256"
        }
      ],
      "name": "maxRatioArray",
      "outputs": [
        {
          "internalType": "uint256",
          "name": "",
          "type": "uint256"
        }
      ],
      "stateMutability": "view",
      "type": "function"
    },
    {
      "inputs": [
        {
          "internalType": "address",
          "name": "_staker",
          "type": "address"
        }
      ],
      "name": "migrate",
      "outputs": [],
      "stateMutability": "nonpayable",
      "type": "function"
    },
    {
      "inputs": [],
      "name": "migrationEnabled",
      "outputs": [
        {
          "internalType": "bool",
          "name": "",
          "type": "bool"
        }
      ],
      "stateMutability": "view",
      "type": "function"
    },
    {
      "inputs": [],
      "name": "migrator",
      "outputs": [
        {
          "internalType": "address",
          "name": "",
          "type": "address"
        }
      ],
      "stateMutability": "view",
      "type": "function"
    },
    {
      "inputs": [],
      "name": "minLockAmount",
      "outputs": [
        {
          "internalType": "uint192",
          "name": "",
          "type": "uint192"
        }
      ],
      "stateMutability": "view",
      "type": "function"
    },
    {
      "inputs": [],
      "name": "minLockDuration",
      "outputs": [
        {
          "internalType": "uint32",
          "name": "",
          "type": "uint32"
        }
      ],
      "stateMutability": "view",
      "type": "function"
    },
    {
      "inputs": [],
      "name": "penaltyBeneficiary",
      "outputs": [
        {
          "internalType": "address",
          "name": "",
          "type": "address"
        }
      ],
      "stateMutability": "view",
      "type": "function"
    },
    {
      "inputs": [
        {
          "internalType": "uint192",
          "name": "_amount",
          "type": "uint192"
        },
        {
          "internalType": "uint256",
          "name": "_months",
          "type": "uint256"
        },
        {
          "internalType": "address",
          "name": "_receiver",
          "type": "address"
        }
      ],
      "name": "previewDepositByMonths",
      "outputs": [
        {
          "internalType": "uint256",
          "name": "",
          "type": "uint256"
        }
      ],
      "stateMutability": "view",
      "type": "function"
    },
    {
      "inputs": [
        {
          "internalType": "bytes32",
          "name": "role",
          "type": "bytes32"
        },
        {
          "internalType": "address",
          "name": "account",
          "type": "address"
        }
      ],
      "name": "renounceRole",
      "outputs": [],
      "stateMutability": "nonpayable",
      "type": "function"
    },
    {
      "inputs": [
        {
          "internalType": "bytes32",
          "name": "role",
          "type": "bytes32"
        },
        {
          "internalType": "address",
          "name": "account",
          "type": "address"
        }
      ],
      "name": "revokeRole",
      "outputs": [],
      "stateMutability": "nonpayable",
      "type": "function"
    },
    {
      "inputs": [
        {
          "internalType": "uint32",
          "name": "_buffer",
          "type": "uint32"
        }
      ],
      "name": "setEjectBuffer",
      "outputs": [],
      "stateMutability": "nonpayable",
      "type": "function"
    },
    {
      "inputs": [
        {
          "internalType": "bool",
          "name": "_migratonEnabled",
          "type": "bool"
        }
      ],
      "name": "setMigrationEnabled",
      "outputs": [],
      "stateMutability": "nonpayable",
      "type": "function"
    },
    {
      "inputs": [
        {
          "internalType": "address",
          "name": "_migrator",
          "type": "address"
        }
      ],
      "name": "setMigrator",
      "outputs": [],
      "stateMutability": "nonpayable",
      "type": "function"
    },
    {
      "inputs": [
        {
          "internalType": "uint192",
          "name": "minLockAmount_",
          "type": "uint192"
        }
      ],
      "name": "setMinLockAmount",
      "outputs": [],
      "stateMutability": "nonpayable",
      "type": "function"
    },
    {
      "inputs": [
        {
          "internalType": "address",
          "name": "_prv",
          "type": "address"
        }
      ],
      "name": "setPRV",
      "outputs": [],
      "stateMutability": "nonpayable",
      "type": "function"
    },
    {
      "inputs": [
        {
          "internalType": "uint256",
          "name": "_penaltyPercentage",
          "type": "uint256"
        }
      ],
      "name": "setPenalty",
      "outputs": [],
      "stateMutability": "nonpayable",
      "type": "function"
    },
    {
      "inputs": [
        {
          "internalType": "address",
          "name": "_beneficiary",
          "type": "address"
        }
      ],
      "name": "setPenaltyBeneficiary",
      "outputs": [],
      "stateMutability": "nonpayable",
      "type": "function"
    },
    {
      "inputs": [
        {
          "internalType": "address",
          "name": "_user",
          "type": "address"
        },
        {
          "internalType": "bool",
          "name": "_isWhitelisted",
          "type": "bool"
        }
      ],
      "name": "setWhitelisted",
      "outputs": [],
      "stateMutability": "nonpayable",
      "type": "function"
    },
    {
      "inputs": [
        {
          "internalType": "bytes4",
          "name": "interfaceId",
          "type": "bytes4"
        }
      ],
      "name": "supportsInterface",
      "outputs": [
        {
          "internalType": "bool",
          "name": "",
          "type": "bool"
        }
      ],
      "stateMutability": "view",
      "type": "function"
    },
    {
      "inputs": [],
      "name": "terminateEarly",
      "outputs": [],
      "stateMutability": "nonpayable",
      "type": "function"
    },
    {
      "inputs": [],
      "name": "triggerEmergencyUnlock",
      "outputs": [],
      "stateMutability": "nonpayable",
      "type": "function"
    },
    {
      "inputs": [],
      "name": "veToken",
      "outputs": [
        {
          "internalType": "contract IERC20MintableBurnable",
          "name": "",
          "type": "address"
        }
      ],
      "stateMutability": "view",
      "type": "function"
    },
    {
      "inputs": [
        {
          "internalType": "address",
          "name": "",
          "type": "address"
        }
      ],
      "name": "whitelisted",
      "outputs": [
        {
          "internalType": "bool",
          "name": "",
          "type": "bool"
        }
      ],
      "stateMutability": "view",
      "type": "function"
    },
    {
      "inputs": [],
      "name": "withdraw",
      "outputs": [],
      "stateMutability": "nonpayable",
      "type": "function"
    }
  ],
  "bytecode": {
    "object": "0x60806040523480156200001157600080fd5b506200001c62000022565b620000e3565b602554610100900460ff16156200008f5760405162461bcd60e51b815260206004820152602760248201527f496e697469616c697a61626c653a20636f6e747261637420697320696e697469604482015266616c697a696e6760c81b606482015260840160405180910390fd5b60255460ff90811614620000e1576025805460ff191660ff9081179091556040519081527f7f26b83ff96e1f2b6a682f133852f6798a09c465da95921460cefb38474024989060200160405180910390a15b565b61463e80620000f36000396000f3fe608060405234801561001057600080fd5b506004361061038e5760003560e01c80636ed93dd0116101de578063b549c50c1161010f578063d547741f116100ad578063de4635c01161007c578063de4635c0146108f7578063f17358601461090a578063f5520d0014610913578063fb7b640c1461091b57600080fd5b8063d547741f14610897578063d581f30e146108aa578063d6a298e9146108bd578063d936547e146108d457600080fd5b8063ca15c873116100e9578063ca15c8731461084b578063cc27b8e11461085e578063ce24788c14610871578063ce5494bb1461088457600080fd5b8063b549c50c14610812578063b9d5083214610825578063c89039c51461083857600080fd5b80638bb126a71161017c5780639281aa0b116101565780639281aa0b146107cd5780639ac45f59146107e0578063a16cdbb1146107f3578063a217fddf1461080a57600080fd5b80638bb126a7146107945780639010d07c146107a757806391d14854146107ba57600080fd5b8063752038ea116101b8578063752038ea14610748578063783a15001461075b5780637cd07e471461076e57806384686e181461078157600080fd5b80636ed93dd0146107135780636ffff2491461072257806371edb84d1461073557600080fd5b8063388560a2116102c3578063521c27f2116102615780636b4553eb116102305780636b4553eb1461063d5780636b9db4e6146106455780636cf6e2d2146106f85780636e9960c31461070b57600080fd5b8063521c27f21461058c5780635a46d3b51461059f578063628658ff1461060d578063684cb2741461061657600080fd5b8063402c79381161029d578063402c793814610540578063483293d814610553578063485e9450146105665780634a4b674a1461057957600080fd5b8063388560a2146105125780633b92eb23146105255780633ccfd60b1461053857600080fd5b80631b089329116103305780632f2ff15d1161030a5780632f2ff15d146104c557806335b944bf146104d857806336568abe146104ec5780633778a1bc146104ff57600080fd5b80631b0893291461046e57806323cf311814610481578063248a9ca31461049457600080fd5b80630d32b20e1161036c5780630d32b20e146104115780630f705a101461042657806310dd81d71461043a57806310e207601461046657600080fd5b806301ffc9a71461039357806308804275146103bb5780630913dd70146103e6575b600080fd5b6103a66103a1366004613e18565b61092e565b60405190151581526020015b60405180910390f35b60f3546103ce906001600160c01b031681565b6040516001600160c01b0390911681526020016103b2565b60ef546103f9906001600160a01b031681565b6040516001600160a01b0390911681526020016103b2565b61042461041f366004613e5e565b610959565b005b60f3546103a690600160e01b900460ff1681565b60f35461045190600160c01b900463ffffffff1681565b60405163ffffffff90911681526020016103b2565b6104246109ba565b61042461047c366004613ea2565b610dbc565b61042461048f366004613f0b565b61103f565b6104b76104a2366004613f28565b6000908152608a602052604090206001015490565b6040519081526020016103b2565b6104246104d3366004613f41565b611095565b60ee546103a690600160a01b900460ff1681565b6104246104fa366004613f41565b6110bf565b61042461050d366004613e5e565b61113d565b6103a6610520366004613f0b565b61123a565b60f2546103f9906001600160a01b031681565b6104246112e2565b61042461054e366004613f71565b611544565b610424610561366004613f0b565b611650565b610424610574366004613fb7565b6116a9565b610424610587366004613f28565b611729565b61042461059a366004614031565b6117b9565b6105e16105ad366004613f0b565b60f5602052600090815260409020546001600160c01b0381169063ffffffff600160c01b8204811691600160e01b90041683565b604080516001600160c01b03909416845263ffffffff92831660208501529116908201526060016103b2565b6104b760f05481565b6104b77f29944e936a0f6e1cbaa227df218d7d6025c2a2785db840e42a3425f24e9e68ac81565b610424611811565b6106bf610653366004613f0b565b6040805160608082018352600080835260208084018290529284018190526001600160a01b0394909416845260f582529282902082519384018352546001600160c01b038116845263ffffffff600160c01b8204811692850192909252600160e01b9004169082015290565b6040805182516001600160c01b0316815260208084015163ffffffff9081169183019190915292820151909216908201526060016103b2565b61042461070636600461404e565b611884565b6103f9611a2a565b6104b7670de0b6b3a764000081565b6104b761073036600461404e565b611a3b565b60f4546103f9906001600160a01b031681565b6104b761075636600461408e565b611acf565b6104246107693660046140f5565b611b87565b60ee546103f9906001600160a01b031681565b6103a661078f36600461414d565b611dc4565b6104516107a2366004613f28565b611de8565b6103f96107b53660046141c7565b611df7565b6103a66107c8366004613f41565b611e0f565b6104246107db3660046141e9565b611e3a565b6103a66107ee366004613f0b565b611e9a565b60f25461045190600160c01b900463ffffffff1681565b6104b7600081565b61042461082036600461408e565b611ec0565b6103a6610833366004613f0b565b611f1f565b60f1546103f9906001600160a01b031681565b6104b7610859366004613f28565b611f8d565b61042461086c366004614217565b611fa4565b61042461087f366004613f0b565b612334565b610424610892366004613f0b565b6123ef565b6104246108a5366004613f41565b612738565b6104246108b8366004613f28565b61275d565b60f25461045190600160a01b900463ffffffff1681565b6103a66108e2366004613f0b565b60f66020526000908152604090205460ff1681565b6104b7610905366004613f28565b612878565b622819a06104b7565b61042461288f565b610424610929366004614283565b612bf3565b60006001600160e01b03198216635a05180f60e01b1480610953575061095382612c6f565b92915050565b600061096481612ca4565b60f380546001600160c01b0319166001600160c01b0384169081179091556040519081527f6172c9cb5fa124eeaf6f430e9ceda452f49bac54a2c4d76cc90dd590abdb5689906020015b60405180910390a15050565b60f354600160e01b900460ff16156109ed5760405162461bcd60e51b81526004016109e4906142d1565b60405180910390fd5b336109f781611e9a565b1515600114610a185760405162461bcd60e51b81526004016109e4906142fd565b33600090815260f56020908152604091829020825160608101845290546001600160c01b038116825263ffffffff600160c01b8204811693830193909352600160e01b900490911691810191909152610a7081611dc4565b15610a8d5760405162461bcd60e51b81526004016109e490614322565b60f4546001600160a01b0316610ad45760405162461bcd60e51b815260206004820152600c60248201526b15114e88191a5cd8589b195960a21b60448201526064016109e4565b33600090815260f560209081526040808320815160608101835290546001600160c01b038116825263ffffffff600160c01b8204811694830194909452600160e01b90049092169082015260f05482919015801590610b3d575060ef546001600160a01b031615155b15610b8d5760f0548151670de0b6b3a764000091610b63916001600160c01b031661435e565b610b6d919061437d565b8151909250610b869083906001600160c01b031661439f565b9250610b9b565b80516001600160c01b031692505b33600081815260f5602090815260408083209290925560f25482516370a0823160e01b81526004810185905292516001600160a01b0390911693639dc29fac93909285926370a082319260248082019392918290030181865afa158015610c06573d6000803e3d6000fd5b505050506040513d601f19601f82011682018060405250810190610c2a91906143b2565b6040518363ffffffff1660e01b8152600401610c479291906143cb565b600060405180830381600087803b158015610c6157600080fd5b505af1158015610c75573d6000803e3d6000fd5b505060f15460f45460405163095ea7b360e01b81526001600160a01b03928316945063095ea7b39350610cb0929091169087906004016143cb565b6020604051808303816000875af1158015610ccf573d6000803e3d6000fd5b505050506040513d601f19601f82011682018060405250810190610cf391906143e4565b5060f4546001600160a01b0316632f4f21e233856040518363ffffffff1660e01b8152600401610d249291906143cb565b600060405180830381600087803b158015610d3e57600080fd5b505af1158015610d52573d6000803e3d6000fd5b505050506000821115610d7c5760ef5460f154610d7c916001600160a01b03918216911684612cb1565b7fd48329b60fb879cd966b0702df731363e4402bac1b144c525e02dd02b98734853384604051610dad9291906143cb565b60405180910390a15050505050565b602554610100900460ff1615808015610ddc5750602554600160ff909116105b80610df65750303b158015610df6575060255460ff166001145b610e595760405162461bcd60e51b815260206004820152602e60248201527f496e697469616c697a61626c653a20636f6e747261637420697320616c72656160448201526d191e481a5b9a5d1a585b1a5e995960921b60648201526084016109e4565b6025805460ff191660011790558015610e7c576025805461ff0019166101001790555b610e84612d07565b610e8c612f18565b610e97600033612f85565b60f280546001600160a01b038088166001600160a01b03199283161790925560f180549289169290911691909117905563ffffffff80841690851610610f155760405162461bcd60e51b8152602060048201526013602482015272092dcd2e8d2c2d8f4ca7440dad2dc7c7adac2f606b1b60448201526064016109e4565b60f2805467ffffffffffffffff60a01b1916600160a01b63ffffffff8781169190910263ffffffff60c01b191691909117600160c01b9186169190910217905560f380546001600160c01b0384166001600160e01b0319909116811761127560c71b179091556040519081527f6172c9cb5fa124eeaf6f430e9ceda452f49bac54a2c4d76cc90dd590abdb56899060200160405180910390a160f354604051600160c01b90910463ffffffff1681527f6c18f251d2f21d1c4bf0b44dccc708127863cd417549ffc4d6b640f110bfb78c9060200160405180910390a18015611037576025805461ff0019169055604051600181527f7f26b83ff96e1f2b6a682f133852f6798a09c465da95921460cefb38474024989060200160405180910390a15b505050505050565b600061104a81612ca4565b60ee80546001600160a01b0319166001600160a01b0384169081179091556040517f6d4faaba9390b6bfbd5cb72e0cd8dfb4781f53d262654f8aa7eca81a0e24b31590600090a25050565b6000828152608a60205260409020600101546110b081612ca4565b6110ba8383612f85565b505050565b6001600160a01b038116331461112f5760405162461bcd60e51b815260206004820152602f60248201527f416363657373436f6e74726f6c3a2063616e206f6e6c792072656e6f756e636560448201526e103937b632b9903337b91039b2b63360891b60648201526084016109e4565b6111398282612fa7565b5050565b60f354600160e01b900460ff16156111675760405162461bcd60e51b81526004016109e4906142d1565b3361117181611e9a565b15156001146111925760405162461bcd60e51b81526004016109e4906142fd565b33600090815260f56020908152604091829020825160608101845290546001600160c01b038116825263ffffffff600160c01b8204811693830193909352600160e01b9004909116918101919091526111ea81611dc4565b156112075760405162461bcd60e51b81526004016109e490614322565b6000836001600160c01b0316116112305760405162461bcd60e51b81526004016109e490614401565b6110ba3384612fc9565b6001600160a01b038116600090815260f560209081526040808320815160608101835290546001600160c01b03811680835263ffffffff600160c01b8304811695840195909552600160e01b909104909316918101919091529082036112a35750600092915050565b60f354604082015160208301514292600160c01b900463ffffffff16916112c99161442a565b6112d3919061442a565b63ffffffff1611159392505050565b336112ec81611e9a565b151560011461130d5760405162461bcd60e51b81526004016109e4906142fd565b33600090815260f56020908152604091829020825160608101845290546001600160c01b038116825263ffffffff600160c01b82048116938301849052600160e01b90910416928101839052916113639161442a565b63ffffffff1642118061137f575060f354600160e01b900460ff165b6113bb5760405162461bcd60e51b815260206004820152600d60248201526c131bd8dac808595e1c1a5c9959609a1b60448201526064016109e4565b33600081815260f560208181526040808420815160608101835281546001600160c01b038116825263ffffffff600160c01b8204811683870152600160e01b90910416818401528686529383529390935560f25483516370a0823160e01b815260048101869052935192946001600160a01b0390911693639dc29fac93919285926370a082319260248082019392918290030181865afa158015611463573d6000803e3d6000fd5b505050506040513d601f19601f8201168201806040525081019061148791906143b2565b6040518363ffffffff1660e01b81526004016114a49291906143cb565b600060405180830381600087803b1580156114be57600080fd5b505af11580156114d2573d6000803e3d6000fd5b505050506114fe6114e03390565b825160f1546001600160a01b031691906001600160c01b0316612cb1565b8051604080516001600160c01b0390921682525133917f2761bd397c463d554013f7bbc19a08be422061731d11821be9dbd78d3a8a21e2919081900360200190a2505050565b60f354600160e01b900460ff161561156e5760405162461bcd60e51b81526004016109e4906142d1565b8161157881611e9a565b15156001146115995760405162461bcd60e51b81526004016109e4906142fd565b6001600160a01b038316600090815260f56020908152604091829020825160608101845290546001600160c01b038116825263ffffffff600160c01b8204811693830193909352600160e01b9004909116918101919091526115fa81611dc4565b156116175760405162461bcd60e51b81526004016109e490614322565b6000836001600160c01b0316116116405760405162461bcd60e51b81526004016109e490614401565b61164a8484612fc9565b50505050565b600061165b81612ca4565b60f480546001600160a01b0319166001600160a01b0384169081179091556040519081527f588c663cd4fd0da6bb82978270f6243c90058d29d6b7bb4fa2c4dc81903384bf906020016109ae565b60f1546001600160a01b031663d505accf33308a888888886040518863ffffffff1660e01b81526004016116e39796959493929190614447565b600060405180830381600087803b1580156116fd57600080fd5b505af1158015611711573d6000803e3d6000fd5b50505050611720878787611884565b50505050505050565b600061173481612ca4565b670de0b6b3a764000082106117845760405162461bcd60e51b815260206004820152601660248201527573657450656e616c74793a2046656520746f2062696760501b60448201526064016109e4565b60f08290556040518281527fa278265f249bd1d34230ee45bfaf294e84b622072a246cdea9bd1bf282b485c5906020016109ae565b60006117c481612ca4565b60ee8054831515600160a01b0260ff60a01b199091161790556040517ff32893339fedbc540c96811f9a210b43530cdfd5f3b8afe5e088a6e3007a2dcc906109ae90841515815260200190565b600061181c81612ca4565b60f354600160e01b900460ff161561186e5760405162461bcd60e51b815260206004820152601560248201527411554e88185b1c9958591e481d1c9a59d9d95c9959605a1b60448201526064016109e4565b5060f3805460ff60e01b1916600160e01b179055565b60f354600160e01b900460ff16156118ae5760405162461bcd60e51b81526004016109e4906142d1565b806118b881611e9a565b156118f25760405162461bcd60e51b815260206004820152600a602482015269131bd8dac8195e1a5cdd60b21b60448201526064016109e4565b8132331480611910575033600090815260f6602052604090205460ff165b61194c5760405162461bcd60e51b815260206004820152600d60248201526c139bdd081153d0481bdc8815d3609a1b60448201526064016109e4565b336001600160a01b0382161480611972575033600090815260f6602052604090205460ff165b6119be5760405162461bcd60e51b815260206004820152601860248201527f73656e64657220213d207265636569766572206f7220574c000000000000000060448201526064016109e4565b60f3546001600160c01b039081169086161015611a105760405162461bcd60e51b815260206004820152601060248201526f4465706f7369743a20746f6f206c6f7760801b60448201526064016109e4565b611a238386611a1e87611de8565b6131f7565b5050505050565b6000611a368180611df7565b905090565b60f3546000906001600160c01b0390811690851611611a5c57506000611ac8565b6001600160a01b038216600090815260f560205260409020546001600160c01b031615611a8b57506000611ac8565b6000611a9961075685611de8565b90506000670de0b6b3a7640000611ab9836001600160c01b03891661435e565b611ac3919061437d565b925050505b9392505050565b60f25460009063ffffffff600160a01b909104811690831610801590611b08575060f25463ffffffff600160c01b909104811690831611155b611b545760405162461bcd60e51b815260206004820152601760248201527f474c4d3a204475726174696f6e20696e636f727265637400000000000000000060448201526064016109e4565b6000611b69622819a063ffffffff851661437d565b905060008160258110611b7e57611b7e614491565b01549392505050565b60005b818110156110ba576000838383818110611ba657611ba6614491565b9050602002016020810190611bbb9190613f0b565b6001600160a01b038116600090815260f56020908152604091829020825160608101845290546001600160c01b03811680835263ffffffff600160c01b8304811694840194909452600160e01b90910490921692810192909252919250901580611c5a575060f3546040820151602083015163ffffffff42811693600160c01b90041691611c489161442a565b611c52919061442a565b63ffffffff16115b15611c66575050611db2565b6001600160a01b03828116600081815260f560205260408082209190915560f25490516370a0823160e01b8152600481019290925290911690639dc29fac90849083906370a0823190602401602060405180830381865afa158015611ccf573d6000803e3d6000fd5b505050506040513d601f19601f82011682018060405250810190611cf391906143b2565b6040518363ffffffff1660e01b8152600401611d109291906143cb565b600060405180830381600087803b158015611d2a57600080fd5b505af1158015611d3e573d6000803e3d6000fd5b5050825160f154611d6593506001600160a01b0316915084906001600160c01b0316612cb1565b80516040516001600160c01b0390911681526001600160a01b038316907fcd696a2028f89cf261b3782b81f33de42f8f762d6469f8a3c1eab7be6036a7669060200160405180910390a250505b80611dbc816144a7565b915050611b8a565b60004282604001518360200151611ddb919061442a565b63ffffffff161092915050565b6000610953622819a08361435e565b600082815260bc60205260408120611ac8908361338a565b6000918252608a602090815260408084206001600160a01b0393909316845291905290205460ff1690565b6000611e4581612ca4565b6001600160a01b038316600081815260f66020526040808220805460ff191686151590811790915590519092917fff740666fee11e028e0e5d640f8b0299c246906f7efa0ab766199c38e120a4f691a3505050565b6001600160a01b0316600090815260f560205260409020546001600160c01b0316151590565b6000611ecb81612ca4565b60f3805463ffffffff60c01b1916600160c01b63ffffffff8516908102919091179091556040519081527f6c18f251d2f21d1c4bf0b44dccc708127863cd417549ffc4d6b640f110bfb78c906020016109ae565b6001600160a01b038116600090815260f560209081526040808320815160608101835290546001600160c01b038116825263ffffffff600160c01b82048116948301859052600160e01b90910416918101829052914291611f7f9161442a565b63ffffffff16109392505050565b600081815260bc6020526040812061095390613396565b60f354600160e01b900460ff1615611fce5760405162461bcd60e51b81526004016109e4906142d1565b7f29944e936a0f6e1cbaa227df218d7d6025c2a2785db840e42a3425f24e9e68ac611ff881612ca4565b8382146120475760405162461bcd60e51b815260206004820152601860248201527f49413a204172726179206c65677468206d69736d61746368000000000000000060448201526064016109e4565b6000805b8581101561231b57600087878381811061206757612067614491565b905060200201602081019061207c9190613f0b565b9050600086868481811061209257612092614491565b90506020020160208101906120a79190613e5e565b90506000816001600160c01b0316116120d25760405162461bcd60e51b81526004016109e490614401565b6120db82611e9a565b61211c5760405162461bcd60e51b815260206004820152601260248201527112504e88131bd8dac81b9bdd08199bdd5b9960721b60448201526064016109e4565b6001600160a01b038216600090815260f56020908152604091829020825160608101845290546001600160c01b038116825263ffffffff600160c01b8204811693830193909352600160e01b90049091169181019190915261217d81611dc4565b156121bd5760405162461bcd60e51b815260206004820152601060248201526f12504e88131bd8dac8115e1c1a5c995960821b60448201526064016109e4565b6000670de0b6b3a76400006121d58360400151611acf565b6121e8906001600160c01b03861661435e565b6121f2919061437d565b9050600081116122355760405162461bcd60e51b815260206004820152600e60248201526d49413a203020766553686172657360901b60448201526064016109e4565b6001600160a01b038416600090815260f56020526040812080548592906122669084906001600160c01b03166144c0565b92506101000a8154816001600160c01b0302191690836001600160c01b03160217905550826001600160c01b03168661229f91906144e0565b60f2546040516340c10f1960e01b81529197506001600160a01b0316906340c10f19906122d290879085906004016143cb565b600060405180830381600087803b1580156122ec57600080fd5b505af1158015612300573d6000803e3d6000fd5b50505050505050508080612313906144a7565b91505061204b565b506110373360f1546001600160a01b03169030846133a0565b600061233f81612ca4565b6001600160a01b0382166123a15760405162461bcd60e51b815260206004820152602360248201527f73657450656e616c747942656e65666963696172793a205a65726f206164647260448201526265737360e81b60648201526084016109e4565b60ef80546001600160a01b0319166001600160a01b0384169081179091556040519081527f419acacbcf6cc7b791d43d94895e7fed347691547af17afd5b6092b73ef37a73906020016109ae565b60f354600160e01b900460ff16156124195760405162461bcd60e51b81526004016109e4906142d1565b60ee54600160a01b900460ff166124665760405162461bcd60e51b8152602060048201526011602482015270085b5a59dc985d1a5bdb915b98589b1959607a1b60448201526064016109e4565b60ee546001600160a01b03166124aa5760405162461bcd60e51b815260206004820152600960248201526810b6b4b3b930ba37b960b91b60448201526064016109e4565b60ee546001600160a01b0316336001600160a01b0316146124fc5760405162461bcd60e51b815260206004820152600c60248201526b3737ba1036b4b3b930ba37b960a11b60448201526064016109e4565b8061250681611e9a565b15156001146125275760405162461bcd60e51b81526004016109e4906142fd565b6001600160a01b038216600090815260f56020908152604091829020825160608101845290546001600160c01b038116825263ffffffff600160c01b8204811693830193909352600160e01b90049091169181019190915261258881611dc4565b156125a55760405162461bcd60e51b81526004016109e490614322565b6001600160a01b03838116600081815260f560208181526040808420815160608101835281546001600160c01b038116825263ffffffff600160c01b8204811683870152600160e01b90910416818401528686529390925292905560f25491516370a0823160e01b81526004810193909352921690639dc29fac90869083906370a0823190602401602060405180830381865afa15801561264a573d6000803e3d6000fd5b505050506040513d601f19601f8201168201806040525081019061266e91906143b2565b6040518363ffffffff1660e01b815260040161268b9291906143cb565b600060405180830381600087803b1580156126a557600080fd5b505af11580156126b9573d6000803e3d6000fd5b505060ee54835160f1546126e794506001600160a01b039081169350909116906001600160c01b0316612cb1565b80516040516001600160c01b0390911681526001600160a01b038516907f8b80bd19aea7b735bc6d75db8d6adbe18b28c30d62b3555245eb67b2340caedc906020015b60405180910390a250505050565b6000828152608a602052604090206001015461275381612ca4565b6110ba8383612fa7565b60f354600160e01b900460ff16156127875760405162461bcd60e51b81526004016109e4906142d1565b3361279181611e9a565b15156001146127b25760405162461bcd60e51b81526004016109e4906142fd565b33600090815260f56020908152604091829020825160608101845290546001600160c01b038116825263ffffffff600160c01b8204811693830193909352600160e01b90049091169181019190915261280a81611dc4565b156128275760405162461bcd60e51b81526004016109e490614322565b600083116128675760405162461bcd60e51b815260206004820152600d60248201526c49424d3a2030204d6f6e74687360981b60448201526064016109e4565b6110ba61287384611de8565b6133d8565b6000816025811061288857600080fd5b0154905081565b60f354600160e01b900460ff16156128b95760405162461bcd60e51b81526004016109e4906142d1565b336128c381611e9a565b15156001146128e45760405162461bcd60e51b81526004016109e4906142fd565b33600081815260f560208181526040808420815160608101835281546001600160c01b038116825263ffffffff600160c01b8204811683870152600160e01b9091041692810192835295855292909152908290555161294290611acf565b90506000670de0b6b3a76400008284600001516001600160c01b0316612968919061435e565b612972919061437d565b60f25490915081906001600160a01b03166370a08231336040516001600160e01b031960e084901b1681526001600160a01b039091166004820152602401602060405180830381865afa1580156129cd573d6000803e3d6000fd5b505050506040513d601f19601f820116820180604052508101906129f191906143b2565b14612a3e5760405162461bcd60e51b815260206004820152601860248201527f42544d3a2057726f6e6720736861726573206e756d626572000000000000000060448201526064016109e4565b6000670de0b6b3a7640000612a6460f260189054906101000a900463ffffffff16611acf565b8551612a7991906001600160c01b031661435e565b612a83919061437d565b6040805160608101825286516001600160c01b0316815263ffffffff428116602083015260f254600160c01b9004169181019190915290915060f56000612ac73390565b6001600160a01b0390811682526020808301939093526040918201600020845181549486015195909301516001600160c01b039093166001600160e01b031990941693909317600160c01b63ffffffff95861602176001600160e01b0316600160e01b949092169390930217905560f254166340c10f1933612b49858561439f565b6040518363ffffffff1660e01b8152600401612b669291906143cb565b600060405180830381600087803b158015612b8057600080fd5b505af1158015612b94573d6000803e3d6000fd5b50505050612b9f3390565b84516040516001600160c01b0390911681526001600160a01b0391909116907f85c20412f8487176b3477447f870911a7a9a148dd3b53c8621c14ab6eb8abdfb906020015b60405180910390a25050505050565b60f1546001600160a01b031663d505accf333088888888886040518863ffffffff1660e01b8152600401612c2d9796959493929190614447565b600060405180830381600087803b158015612c4757600080fd5b505af1158015612c5b573d6000803e3d6000fd5b50505050611a23612c693390565b86611544565b60006001600160e01b03198216637965db0b60e01b148061095357506301ffc9a760e01b6001600160e01b0319831614610953565b612cae81336136c6565b50565b6110ba8363a9059cbb60e01b8484604051602401612cd09291906143cb565b60408051601f198184030181529190526020810180516001600160e01b03166001600160e01b03199093169290921790915261371f565b604080516104a08101825260018152600260208201526003918101919091526004606082015260056080820152600660a08201526701280f39a347d32060c08201526701771e6974f04a0060e08201526701ca20315e85e5006101008201526702209587e2f4944061012082015267027a1bd1e0884e206101408201526702d6644966386b606101608201526703352e8bf5d41f6061018082015267039644fcaebab0606101a08201526703f97a450badaa806101c082015267045ea78d32d8a6c06101e08201526704c5ab2e5167986061020082015267052e67b8b0fddb40610220820152670598c334cccd9440610240820152670604a68ef38a3c60610260820152670671fd223a80b2a06102808201526706e0b45ae797dbe06102a0820152670750bb6ab86b11206102c08201526707c2030af4a0d4a06102e08201526708347d494a2e23c06103008201526708a81d5d330f04c061032082015267091cd7842e8569c0610340820152670992a0e37d498de0610360820152670a096f6e5afa15e0610380820152670a8139cfe7418bc06103a0820152670af9f7581bd8abc06103c0820152670b739feb4d02e8e06103e0820152670bee2bf3cb80b300610400820152670c69945552bcf3c0610420820152670ce5d261fd3a6a00610440820152670d62dfd08606ed60610460820152670de0b6b3a7640000610480820152612cae906000906025613db9565b602554610100900460ff16612f835760405162461bcd60e51b815260206004820152602b60248201527f496e697469616c697a61626c653a20636f6e7472616374206973206e6f74206960448201526a6e697469616c697a696e6760a81b60648201526084016109e4565b565b612f8f82826137f1565b600082815260bc602052604090206110ba9082613877565b612fb1828261388c565b600082815260bc602052604090206110ba90826138f3565b6001600160a01b038216600090815260f560209081526040808320815160608101835290546001600160c01b038116825263ffffffff600160c01b8204811694830194909452600160e01b9004909216908201819052909190670de0b6b3a76400009061303590611acf565b613048906001600160c01b03861661435e565b613052919061437d565b9050600081116130955760405162461bcd60e51b815260206004820152600e60248201526d49413a203020766553686172657360901b60448201526064016109e4565b6001600160a01b038416600090815260f56020526040812080548592906130c69084906001600160c01b03166144c0565b82546101009290920a6001600160c01b03818102199093169190921691909102179055506001600160a01b038416600090815260f560205260409020805463ffffffff60c01b1916600160c01b4263ffffffff160217905561313f3360f1546001600160a01b031690306001600160c01b0387166133a0565b60f2546040516340c10f1960e01b81526001600160a01b03909116906340c10f199061317190879085906004016143cb565b600060405180830381600087803b15801561318b57600080fd5b505af115801561319f573d6000803e3d6000fd5b50505060408084015181516001600160c01b038716815263ffffffff90911660208201526001600160a01b03871692507ff6b26b8d4d437ebe6558ce19a2f65a7b8e2897d68d364b34fdc17988a99f70db910161272a565b600061320282611acf565b90506000670de0b6b3a7640000613222836001600160c01b03871661435e565b61322c919061437d565b604080516060810182526001600160c01b0387811682524263ffffffff90811660208085019182528983168587019081526001600160a01b038d16600090815260f5909252959020935184549151955193166001600160e01b031990911617600160c01b94821694909402939093176001600160e01b0316600160e01b919093160291909117905590506132d73360f1546001600160a01b031690306001600160c01b0388166133a0565b60f2546040516340c10f1960e01b81526001600160a01b03909116906340c10f199061330990889085906004016143cb565b600060405180830381600087803b15801561332357600080fd5b505af1158015613337573d6000803e3d6000fd5b5050604080516001600160c01b038816815263ffffffff871660208201526001600160a01b03891693507f388c82926965c126794d29b56c89458f603319288f232ee75031e26189f6745a925001612be4565b6000611ac88383613908565b6000610953825490565b6040516001600160a01b038085166024830152831660448201526064810182905261164a9085906323b872dd60e01b90608401612cd0565b33600090815260f560209081526040808320815160608101835290546001600160c01b038116825263ffffffff600160c01b8204811694830194909452600160e01b9004909216908201819052909190613432908461442a565b60f25490915063ffffffff600160c01b9091048116908216111561348e5760405162461bcd60e51b8152602060048201526013602482015272092aa88744088eae4c2e8d2dedc407c409ac2f606b1b60448201526064016109e4565b6000670de0b6b3a76400006134a68460400151611acf565b84516134bb91906001600160c01b031661435e565b6134c5919061437d565b60f25490915081906001600160a01b03166370a08231336040516001600160e01b031960e084901b1681526001600160a01b039091166004820152602401602060405180830381865afa158015613520573d6000803e3d6000fd5b505050506040513d601f19601f8201168201806040525081019061354491906143b2565b1461358a5760405162461bcd60e51b81526020600482015260166024820152754955443a2057726f6e67207665546f6b656e2071747960501b60448201526064016109e4565b6000670de0b6b3a764000061359e84611acf565b85516135b391906001600160c01b031661435e565b6135bd919061437d565b33600081815260f56020526040902080546001600160e01b0316600160e01b63ffffffff88160217905560f2549192506001600160a01b0391909116906340c10f199061360a858561439f565b6040518363ffffffff1660e01b81526004016136279291906143cb565b600060405180830381600087803b15801561364157600080fd5b505af1158015613655573d6000803e3d6000fd5b505050506136603390565b6001600160a01b03167ff5855f952da08b9584df1908bed36c9b37db9bdc7ca6aa48cb747b4d875064188560000151858760200151604051612be4939291906001600160c01b0393909316835263ffffffff918216602084015216604082015260600190565b6136d08282611e0f565b611139576136dd81613932565b6136e8836020613944565b6040516020016136f9929190614517565b60408051601f198184030181529082905262461bcd60e51b82526109e49160040161458c565b6000613774826040518060400160405280602081526020017f5361666545524332303a206c6f772d6c6576656c2063616c6c206661696c6564815250856001600160a01b0316613ae09092919063ffffffff16565b8051909150156110ba578080602001905181019061379291906143e4565b6110ba5760405162461bcd60e51b815260206004820152602a60248201527f5361666545524332303a204552433230206f7065726174696f6e20646964206e6044820152691bdd081cdd58d8d9595960b21b60648201526084016109e4565b6137fb8282611e0f565b611139576000828152608a602090815260408083206001600160a01b03851684529091529020805460ff191660011790556138333390565b6001600160a01b0316816001600160a01b0316837f2f8788117e7eff1d82e926ec794901d17c78024a50270940304540a733656f0d60405160405180910390a45050565b6000611ac8836001600160a01b038416613af7565b6138968282611e0f565b15611139576000828152608a602090815260408083206001600160a01b0385168085529252808320805460ff1916905551339285917ff6391f5c32d9c69d2a47ea670b442974b53935d1edc7fd64eb21e047a839171b9190a45050565b6000611ac8836001600160a01b038416613b46565b600082600001828154811061391f5761391f614491565b9060005260206000200154905092915050565b60606109536001600160a01b03831660145b6060600061395383600261435e565b61395e9060026144e0565b67ffffffffffffffff81111561397657613976614137565b6040519080825280601f01601f1916602001820160405280156139a0576020820181803683370190505b509050600360fc1b816000815181106139bb576139bb614491565b60200101906001600160f81b031916908160001a905350600f60fb1b816001815181106139ea576139ea614491565b60200101906001600160f81b031916908160001a9053506000613a0e84600261435e565b613a199060016144e0565b90505b6001811115613a91576f181899199a1a9b1b9c1cb0b131b232b360811b85600f1660108110613a4d57613a4d614491565b1a60f81b828281518110613a6357613a63614491565b60200101906001600160f81b031916908160001a90535060049490941c93613a8a816145bf565b9050613a1c565b508315611ac85760405162461bcd60e51b815260206004820181905260248201527f537472696e67733a20686578206c656e67746820696e73756666696369656e7460448201526064016109e4565b6060613aef8484600085613c40565b949350505050565b6000818152600183016020526040812054613b3e57508154600181810184556000848152602080822090930184905584548482528286019093526040902091909155610953565b506000610953565b60008181526001830160205260408120548015613c2f576000613b6a60018361439f565b8554909150600090613b7e9060019061439f565b9050818114613be3576000866000018281548110613b9e57613b9e614491565b9060005260206000200154905080876000018481548110613bc157613bc1614491565b6000918252602080832090910192909255918252600188019052604090208390555b8554869080613bf457613bf46145d6565b600190038181906000526020600020016000905590558560010160008681526020019081526020016000206000905560019350505050610953565b6000915050610953565b5092915050565b606082471015613ca15760405162461bcd60e51b815260206004820152602660248201527f416464726573733a20696e73756666696369656e742062616c616e636520666f6044820152651c8818d85b1b60d21b60648201526084016109e4565b600080866001600160a01b03168587604051613cbd91906145ec565b60006040518083038185875af1925050503d8060008114613cfa576040519150601f19603f3d011682016040523d82523d6000602084013e613cff565b606091505b5091509150613d1087838387613d1b565b979650505050505050565b60608315613d8a578251600003613d83576001600160a01b0385163b613d835760405162461bcd60e51b815260206004820152601d60248201527f416464726573733a2063616c6c20746f206e6f6e2d636f6e747261637400000060448201526064016109e4565b5081613aef565b613aef8383815115613d9f5781518083602001fd5b8060405162461bcd60e51b81526004016109e4919061458c565b8260258101928215613df3579160200282015b82811115613df3578251829067ffffffffffffffff16905591602001919060010190613dcc565b50613dff929150613e03565b5090565b5b80821115613dff5760008155600101613e04565b600060208284031215613e2a57600080fd5b81356001600160e01b031981168114611ac857600080fd5b80356001600160c01b0381168114613e5957600080fd5b919050565b600060208284031215613e7057600080fd5b611ac882613e42565b6001600160a01b0381168114612cae57600080fd5b803563ffffffff81168114613e5957600080fd5b600080600080600060a08688031215613eba57600080fd5b8535613ec581613e79565b94506020860135613ed581613e79565b9350613ee360408701613e8e565b9250613ef160608701613e8e565b9150613eff60808701613e42565b90509295509295909350565b600060208284031215613f1d57600080fd5b8135611ac881613e79565b600060208284031215613f3a57600080fd5b5035919050565b60008060408385031215613f5457600080fd5b823591506020830135613f6681613e79565b809150509250929050565b60008060408385031215613f8457600080fd5b8235613f8f81613e79565b9150613f9d60208401613e42565b90509250929050565b803560ff81168114613e5957600080fd5b600080600080600080600060e0888a031215613fd257600080fd5b613fdb88613e42565b9650602088013595506040880135613ff281613e79565b94506060880135935061400760808901613fa6565b925060a0880135915060c0880135905092959891949750929550565b8015158114612cae57600080fd5b60006020828403121561404357600080fd5b8135611ac881614023565b60008060006060848603121561406357600080fd5b61406c84613e42565b925060208401359150604084013561408381613e79565b809150509250925092565b6000602082840312156140a057600080fd5b611ac882613e8e565b60008083601f8401126140bb57600080fd5b50813567ffffffffffffffff8111156140d357600080fd5b6020830191508360208260051b85010111156140ee57600080fd5b9250929050565b6000806020838503121561410857600080fd5b823567ffffffffffffffff81111561411f57600080fd5b61412b858286016140a9565b90969095509350505050565b634e487b7160e01b600052604160045260246000fd5b60006060828403121561415f57600080fd5b6040516060810181811067ffffffffffffffff8211171561419057634e487b7160e01b600052604160045260246000fd5b60405261419c83613e42565b81526141aa60208401613e8e565b60208201526141bb60408401613e8e565b60408201529392505050565b600080604083850312156141da57600080fd5b50508035926020909101359150565b600080604083850312156141fc57600080fd5b823561420781613e79565b91506020830135613f6681614023565b6000806000806040858703121561422d57600080fd5b843567ffffffffffffffff8082111561424557600080fd5b614251888389016140a9565b9096509450602087013591508082111561426a57600080fd5b50614277878288016140a9565b95989497509550505050565b600080600080600060a0868803121561429b57600080fd5b6142a486613e42565b9450602086013593506142b960408701613fa6565b94979396509394606081013594506080013592915050565b602080825260129082015271195b595c99d95b98de481d5b9b1bd8dad95960721b604082015260600190565b6020808252600b908201526a131bd8dac808595e1a5cdd60aa1b604082015260600190565b6020808252600c908201526b131bd8dac8195e1c1a5c995960a21b604082015260600190565b634e487b7160e01b600052601160045260246000fd5b600081600019048311821515161561437857614378614348565b500290565b60008261439a57634e487b7160e01b600052601260045260246000fd5b500490565b8181038181111561095357610953614348565b6000602082840312156143c457600080fd5b5051919050565b6001600160a01b03929092168252602082015260400190565b6000602082840312156143f657600080fd5b8151611ac881614023565b6020808252600f908201526e049413a20616d6f756e74203d3d203608c1b604082015260600190565b63ffffffff818116838216019080821115613c3957613c39614348565b6001600160a01b0397881681529590961660208601526001600160c01b03939093166040850152606084019190915260ff16608083015260a082015260c081019190915260e00190565b634e487b7160e01b600052603260045260246000fd5b6000600182016144b9576144b9614348565b5060010190565b6001600160c01b03818116838216019080821115613c3957613c39614348565b8082018082111561095357610953614348565b60005b8381101561450e5781810151838201526020016144f6565b50506000910152565b7f416363657373436f6e74726f6c3a206163636f756e742000000000000000000081526000835161454f8160178501602088016144f3565b7001034b99036b4b9b9b4b733903937b6329607d1b60179184019182015283516145808160288401602088016144f3565b01602801949350505050565b60208152600082518060208401526145ab8160408501602087016144f3565b601f01601f19169190910160400192915050565b6000816145ce576145ce614348565b506000190190565b634e487b7160e01b600052603160045260246000fd5b600082516145fe8184602087016144f3565b919091019291505056fea2646970667358221220fcf5a892b0c2ff0816e744ea134c1e4fa386598c9f859d2e28a7641ea1ea188864736f6c63430008100033",
    "linkReferences": {}
  },
  "methodIdentifiers": {
    "COMPOUNDER_ROLE()": "684cb274",
    "DEFAULT_ADMIN_ROLE()": "a217fddf",
    "HUNDRED_PERCENT()": "6ed93dd0",
    "PRV()": "71edb84d",
    "boostToMax()": "f5520d00",
    "canEject(address)": "388560a2",
    "depositByMonths(uint192,uint256,address)": "6cf6e2d2",
    "depositByMonthsWithSignature(uint192,uint256,address,uint256,uint8,bytes32,bytes32)": "485e9450",
    "depositToken()": "c89039c5",
    "earlyExitFee()": "628658ff",
    "eject(address[])": "783a1500",
    "ejectBuffer()": "10dd81d7",
    "emergencyUnlockTriggered()": "0f705a10",
    "getAdmin()": "6e9960c3",
    "getDuration(uint256)": "8bb126a7",
    "getLock(address)": "6b9db4e6",
    "getLockMultiplier(uint32)": "752038ea",
    "getRoleAdmin(bytes32)": "248a9ca3",
    "getRoleMember(bytes32,uint256)": "9010d07c",
    "getRoleMemberCount(bytes32)": "ca15c873",
    "getSecondsMonths()": "f1735860",
    "grantRole(bytes32,address)": "2f2ff15d",
    "hasLock(address)": "9ac45f59",
    "hasRole(bytes32,address)": "91d14854",
    "increaseAmount(uint192)": "3778a1bc",
    "increaseAmountFor(address,uint192)": "402c7938",
    "increaseAmountWithSignature(uint192,uint256,uint8,bytes32,bytes32)": "fb7b640c",
    "increaseAmountsForMany(address[],uint192[])": "cc27b8e1",
    "increaseByMonths(uint256)": "d581f30e",
    "initialize(address,address,uint32,uint32,uint192)": "1b089329",
    "isLockExpired((uint192,uint32,uint32))": "84686e18",
    "isLockExpired(address)": "b9d50832",
    "lockOf(address)": "5a46d3b5",
    "maxLockDuration()": "a16cdbb1",
    "maxRatioArray(uint256)": "de4635c0",
    "migrate(address)": "ce5494bb",
    "migrationEnabled()": "35b944bf",
    "migrator()": "7cd07e47",
    "minLockAmount()": "08804275",
    "minLockDuration()": "d6a298e9",
    "penaltyBeneficiary()": "0913dd70",
    "previewDepositByMonths(uint192,uint256,address)": "6ffff249",
    "renounceRole(bytes32,address)": "36568abe",
    "revokeRole(bytes32,address)": "d547741f",
    "setEjectBuffer(uint32)": "b549c50c",
    "setMigrationEnabled(bool)": "521c27f2",
    "setMigrator(address)": "23cf3118",
    "setMinLockAmount(uint192)": "0d32b20e",
    "setPRV(address)": "483293d8",
    "setPenalty(uint256)": "4a4b674a",
    "setPenaltyBeneficiary(address)": "ce24788c",
    "setWhitelisted(address,bool)": "9281aa0b",
    "supportsInterface(bytes4)": "01ffc9a7",
    "terminateEarly()": "10e20760",
    "triggerEmergencyUnlock()": "6b4553eb",
    "veToken()": "3b92eb23",
    "whitelisted(address)": "d936547e",
    "withdraw()": "3ccfd60b"
  },
  "id": 117
}