{
  "abi": [
    {
      "inputs": [
        {
          "internalType": "address",
          "name": "_activeDistributorAddress",
          "type": "address"
        },
        {
          "internalType": "address",
          "name": "_passiveDistributorAddress",
          "type": "address"
        }
      ],
      "stateMutability": "nonpayable",
      "type": "constructor"
    },
    {
      "inputs": [],
      "name": "ActiveDistributor",
      "outputs": [
        {
          "internalType": "contract IMerkleDistributor",
          "name": "",
          "type": "address"
        }
      ],
      "stateMutability": "view",
      "type": "function"
    },
    {
      "inputs": [],
      "name": "PassiveDistributor",
      "outputs": [
        {
          "internalType": "contract IMerkleDistributor",
          "name": "",
          "type": "address"
        }
      ],
      "stateMutability": "view",
      "type": "function"
    },
    {
      "inputs": [
        {
          "components": [
            {
              "internalType": "uint256",
              "name": "windowIndex",
              "type": "uint256"
            },
            {
              "internalType": "uint256",
              "name": "accountIndex",
              "type": "uint256"
            },
            {
              "internalType": "uint256",
              "name": "amount",
              "type": "uint256"
            },
            {
              "internalType": "address",
              "name": "token",
              "type": "address"
            },
            {
              "internalType": "bytes32[]",
              "name": "merkleProof",
              "type": "bytes32[]"
            },
            {
              "internalType": "address",
              "name": "account",
              "type": "address"
            }
          ],
          "internalType": "struct IMerkleDistributorCore.Claim",
          "name": "_ActiveClaim",
          "type": "tuple"
        },
        {
          "components": [
            {
              "internalType": "uint256",
              "name": "windowIndex",
              "type": "uint256"
            },
            {
              "internalType": "uint256",
              "name": "accountIndex",
              "type": "uint256"
            },
            {
              "internalType": "uint256",
              "name": "amount",
              "type": "uint256"
            },
            {
              "internalType": "address",
              "name": "token",
              "type": "address"
            },
            {
              "internalType": "bytes32[]",
              "name": "merkleProof",
              "type": "bytes32[]"
            },
            {
              "internalType": "address",
              "name": "account",
              "type": "address"
            }
          ],
          "internalType": "struct IMerkleDistributorCore.Claim",
          "name": "_PassiveClaim",
          "type": "tuple"
        }
      ],
      "name": "claim",
      "outputs": [
        {
          "internalType": "uint256",
          "name": "",
          "type": "uint256"
        }
      ],
      "stateMutability": "nonpayable",
      "type": "function"
    },
    {
      "inputs": [
        {
          "components": [
            {
              "internalType": "uint256",
              "name": "windowIndex",
              "type": "uint256"
            },
            {
              "internalType": "uint256",
              "name": "accountIndex",
              "type": "uint256"
            },
            {
              "internalType": "uint256",
              "name": "amount",
              "type": "uint256"
            },
            {
              "internalType": "address",
              "name": "token",
              "type": "address"
            },
            {
              "internalType": "bytes32[]",
              "name": "merkleProof",
              "type": "bytes32[]"
            },
            {
              "internalType": "address",
              "name": "account",
              "type": "address"
            }
          ],
          "internalType": "struct IMerkleDistributorCore.Claim[]",
          "name": "_ActiveClaim",
          "type": "tuple[]"
        },
        {
          "components": [
            {
              "internalType": "uint256",
              "name": "windowIndex",
              "type": "uint256"
            },
            {
              "internalType": "uint256",
              "name": "accountIndex",
              "type": "uint256"
            },
            {
              "internalType": "uint256",
              "name": "amount",
              "type": "uint256"
            },
            {
              "internalType": "address",
              "name": "token",
              "type": "address"
            },
            {
              "internalType": "bytes32[]",
              "name": "merkleProof",
              "type": "bytes32[]"
            },
            {
              "internalType": "address",
              "name": "account",
              "type": "address"
            }
          ],
          "internalType": "struct IMerkleDistributorCore.Claim[]",
          "name": "_PassiveClaim",
          "type": "tuple[]"
        }
      ],
      "name": "claimMulti",
      "outputs": [
        {
          "internalType": "uint256",
          "name": "",
          "type": "uint256"
        }
      ],
      "stateMutability": "nonpayable",
      "type": "function"
    },
    {
      "inputs": [],
      "name": "weth",
      "outputs": [
        {
          "internalType": "contract IERC20",
          "name": "",
          "type": "address"
        }
      ],
      "stateMutability": "view",
      "type": "function"
    }
  ],
  "bytecode": {
    "object": "0x60c060405234801561001057600080fd5b50604051610caf380380610caf83398101604081905261002f91610062565b6001600160a01b039182166080521660a052610095565b80516001600160a01b038116811461005d57600080fd5b919050565b6000806040838503121561007557600080fd5b61007e83610046565b915061008c60208401610046565b90509250929050565b60805160a051610bdb6100d46000396000818160f4015281816102d7015261061201526000818160990152818161025b01526105960152610bdb6000f3fe608060405234801561001057600080fd5b50600436106100575760003560e01c80633fc8cef31461005c5780634f1d91ea146100945780637cbe0694146100bb578063bbf46c91146100dc578063df5ef94b146100ef575b600080fd5b61007773c02aaa39b223fe8d0a0e5c4f27ead9083c756cc281565b6040516001600160a01b0390911681526020015b60405180910390f35b6100777f000000000000000000000000000000000000000000000000000000000000000081565b6100ce6100c936600461093b565b610116565b60405190815260200161008b565b6100ce6100ea36600461099f565b610455565b6100777f000000000000000000000000000000000000000000000000000000000000000081565b6000805b835181101561017057336001600160a01b031684828151811061013f5761013f6109f9565b602002602001015160a001516001600160a01b03161461015e57600080fd5b8061016881610a25565b91505061011a565b5060005b82518110156101ca57336001600160a01b0316838281518110610199576101996109f9565b602002602001015160a001516001600160a01b0316146101b857600080fd5b806101c281610a25565b915050610174565b506040516370a0823160e01b815230600482015260009073c02aaa39b223fe8d0a0e5c4f27ead9083c756cc2906370a0823190602401602060405180830381865afa15801561021d573d6000803e3d6000fd5b505050506040513d601f19601f820116820180604052508101906102419190610a3e565b604051633605546960e11b81529091506001600160a01b037f00000000000000000000000000000000000000000000000000000000000000001690636c0aa8d290610290908790600401610aee565b600060405180830381600087803b1580156102aa57600080fd5b505af11580156102be573d6000803e3d6000fd5b5050604051633605546960e11b81526001600160a01b037f0000000000000000000000000000000000000000000000000000000000000000169250636c0aa8d2915061030e908690600401610aee565b600060405180830381600087803b15801561032857600080fd5b505af115801561033c573d6000803e3d6000fd5b50506040516370a0823160e01b81523060048201526000925073c02aaa39b223fe8d0a0e5c4f27ead9083c756cc291506370a0823190602401602060405180830381865afa158015610392573d6000803e3d6000fd5b505050506040513d601f19601f820116820180604052508101906103b69190610a3e565b905073c02aaa39b223fe8d0a0e5c4f27ead9083c756cc263a9059cbb336103dd8585610b50565b6040516001600160e01b031960e085901b1681526001600160a01b03909216600483015260248201526044016020604051808303816000875af1158015610428573d6000803e3d6000fd5b505050506040513d601f19601f8201168201806040525081019061044c9190610b69565b50505092915050565b60008160a001516001600160a01b03168360a001516001600160a01b0316146104b85760405162461bcd60e51b815260206004820152601060248201526f139bdd081cd85b59481858d8dbdd5b9d60821b60448201526064015b60405180910390fd5b60a08301516001600160a01b031633146105065760405162461bcd60e51b815260206004820152600f60248201526e2737ba1031b630b4b69037bbb732b960891b60448201526064016104af565b6040516370a0823160e01b815230600482015260009073c02aaa39b223fe8d0a0e5c4f27ead9083c756cc2906370a0823190602401602060405180830381865afa158015610558573d6000803e3d6000fd5b505050506040513d601f19601f8201168201806040525081019061057c9190610a3e565b6040516311db149f60e01b81529091506001600160a01b037f000000000000000000000000000000000000000000000000000000000000000016906311db149f906105cb908790600401610b92565b600060405180830381600087803b1580156105e557600080fd5b505af11580156105f9573d6000803e3d6000fd5b50506040516311db149f60e01b81526001600160a01b037f00000000000000000000000000000000000000000000000000000000000000001692506311db149f9150610649908690600401610b92565b600060405180830381600087803b15801561066357600080fd5b505af1158015610677573d6000803e3d6000fd5b50506040516370a0823160e01b81523060048201526000925073c02aaa39b223fe8d0a0e5c4f27ead9083c756cc291506370a0823190602401602060405180830381865afa1580156106cd573d6000803e3d6000fd5b505050506040513d601f19601f820116820180604052508101906106f19190610a3e565b60a086015190915073c02aaa39b223fe8d0a0e5c4f27ead9083c756cc29063a9059cbb906103dd8585610b50565b634e487b7160e01b600052604160045260246000fd5b60405160c0810167ffffffffffffffff811182821017156107585761075861071f565b60405290565b604051601f8201601f1916810167ffffffffffffffff811182821017156107875761078761071f565b604052919050565b600067ffffffffffffffff8211156107a9576107a961071f565b5060051b60200190565b80356001600160a01b03811681146107ca57600080fd5b919050565b600060c082840312156107e157600080fd5b6107e9610735565b905081358152602080830135818301526040830135604083015261080f606084016107b3565b6060830152608083013567ffffffffffffffff81111561082e57600080fd5b8301601f8101851361083f57600080fd5b803561085261084d8261078f565b61075e565b81815260059190911b8201830190838101908783111561087157600080fd5b928401925b8284101561088f57833582529284019290840190610876565b6080860152506108a59250505060a083016107b3565b60a082015292915050565b600082601f8301126108c157600080fd5b813560206108d161084d8361078f565b82815260059290921b840181019181810190868411156108f057600080fd5b8286015b8481101561093057803567ffffffffffffffff8111156109145760008081fd5b6109228986838b01016107cf565b8452509183019183016108f4565b509695505050505050565b6000806040838503121561094e57600080fd5b823567ffffffffffffffff8082111561096657600080fd5b610972868387016108b0565b9350602085013591508082111561098857600080fd5b50610995858286016108b0565b9150509250929050565b600080604083850312156109b257600080fd5b823567ffffffffffffffff808211156109ca57600080fd5b6109d6868387016107cf565b935060208501359150808211156109ec57600080fd5b50610995858286016107cf565b634e487b7160e01b600052603260045260246000fd5b634e487b7160e01b600052601160045260246000fd5b600060018201610a3757610a37610a0f565b5060010190565b600060208284031215610a5057600080fd5b5051919050565b8051825260208082015181840152604080830151908401526060808301516001600160a01b03169084015260808083015160c0918501829052805191850182905260009290810191839060e08701905b80831015610ac75784518252938301936001929092019190830190610aa7565b5060a08601519350610ae460a08801856001600160a01b03169052565b9695505050505050565b6000602080830181845280855180835260408601915060408160051b870101925083870160005b82811015610b4357603f19888603018452610b31858351610a57565b94509285019290850190600101610b15565b5092979650505050505050565b81810381811115610b6357610b63610a0f565b92915050565b600060208284031215610b7b57600080fd5b81518015158114610b8b57600080fd5b9392505050565b602081526000610b8b6020830184610a5756fea26469706673582212203e0a24295d288bbb148e7804b18d39da9e24faabaa315f8e3de10c348205da4964736f6c63430008100033",
    "linkReferences": {}
  },
  "methodIdentifiers": {
    "ActiveDistributor()": "4f1d91ea",
    "PassiveDistributor()": "df5ef94b",
    "claim((uint256,uint256,uint256,address,bytes32[],address),(uint256,uint256,uint256,address,bytes32[],address))": "bbf46c91",
    "claimMulti((uint256,uint256,uint256,address,bytes32[],address)[],(uint256,uint256,uint256,address,bytes32[],address)[])": "7cbe0694",
    "weth()": "3fc8cef3"
  },
  "id": 117
}