{
  "abi": [
    {
      "inputs": [
        {
          "internalType": "address",
          "name": "_locker",
          "type": "address"
        }
      ],
      "stateMutability": "nonpayable",
      "type": "constructor"
    },
    {
      "inputs": [],
      "name": "AVG_SECONDS_MONTH",
      "outputs": [
        {
          "internalType": "uint256",
          "name": "",
          "type": "uint256"
        }
      ],
      "stateMutability": "view",
      "type": "function"
    },
    {
      "inputs": [],
      "name": "VERSION",
      "outputs": [
        {
          "internalType": "string",
          "name": "",
          "type": "string"
        }
      ],
      "stateMutability": "view",
      "type": "function"
    },
    {
      "inputs": [
        {
          "internalType": "address",
          "name": "_staker",
          "type": "address"
        }
      ],
      "name": "balanceOf",
      "outputs": [
        {
          "internalType": "uint256",
          "name": "",
          "type": "uint256"
        }
      ],
      "stateMutability": "view",
      "type": "function"
    },
    {
      "inputs": [
        {
          "internalType": "uint256",
          "name": "amount",
          "type": "uint256"
        },
        {
          "internalType": "uint32",
          "name": "lockedAt",
          "type": "uint32"
        },
        {
          "internalType": "uint32",
          "name": "duration",
          "type": "uint32"
        },
        {
          "internalType": "uint256",
          "name": "balance",
          "type": "uint256"
        }
      ],
      "name": "compute",
      "outputs": [
        {
          "internalType": "uint256",
          "name": "",
          "type": "uint256"
        }
      ],
      "stateMutability": "view",
      "type": "function"
    },
    {
      "inputs": [],
      "name": "exclusive",
      "outputs": [
        {
          "internalType": "bool",
          "name": "",
          "type": "bool"
        }
      ],
      "stateMutability": "view",
      "type": "function"
    },
    {
      "inputs": [
        {
          "internalType": "uint32",
          "name": "lockedAt",
          "type": "uint32"
        },
        {
          "internalType": "uint32",
          "name": "lockDuration",
          "type": "uint32"
        }
      ],
      "name": "getDecayMultiplier",
      "outputs": [
        {
          "internalType": "uint256",
          "name": "",
          "type": "uint256"
        }
      ],
      "stateMutability": "view",
      "type": "function"
    },
    {
      "inputs": [],
      "name": "isExclusive",
      "outputs": [
        {
          "internalType": "bool",
          "name": "",
          "type": "bool"
        }
      ],
      "stateMutability": "view",
      "type": "function"
    },
    {
      "inputs": [],
      "name": "locker",
      "outputs": [
        {
          "internalType": "contract ITokenLocker",
          "name": "",
          "type": "address"
        }
      ],
      "stateMutability": "view",
      "type": "function"
    }
  ],
  "bytecode": {
    "object": "0x60c06040526000805460ff1916905534801561001a57600080fd5b50604051610863380380610863833981016040819052610039916100b4565b6001600160a01b03811660808190526040805163078b9ac360e51b8152905183929163f17358609160048083019260209291908290030181865afa158015610085573d6000803e3d6000fd5b505050506040513d601f19601f820116820180604052508101906100a991906100e4565b60a052506100fd9050565b6000602082840312156100c657600080fd5b81516001600160a01b03811681146100dd57600080fd5b9392505050565b6000602082840312156100f657600080fd5b5051919050565b60805160a05161071861014b60003960008181610144015281816101d0015281816101fe015261027901526000818160f2015281816102cd01528181610361015261040801526107186000f3fe608060405234801561001057600080fd5b50600436106100875760003560e01c8063d7b96d4e1161005b578063d7b96d4e146100ed578063e4107fe11461012c578063f2ddedeb1461013f578063ffa1ad741461016657600080fd5b80628908081461008c57806301ff74f7146100b257806370a08231146100cf5780638876dea6146100e2575b600080fd5b61009f61009a3660046104e3565b610195565b6040519081526020015b60405180910390f35b6000546100bf9060ff1681565b60405190151581526020016100a9565b61009f6100dd36600461051c565b6103e0565b60005460ff166100bf565b6101147f000000000000000000000000000000000000000000000000000000000000000081565b6040516001600160a01b0390911681526020016100a9565b61009f61013a36600461054c565b610498565b61009f7f000000000000000000000000000000000000000000000000000000000000000081565b61018860405180604001604052806003815260200162302e3160e81b81525081565b6040516100a99190610594565b6000426101a283856105f8565b63ffffffff16116101b5575060006103da565b60006101c763ffffffff85164261061c565b905060006101f57f00000000000000000000000000000000000000000000000000000000000000008361062f565b905060006102297f000000000000000000000000000000000000000000000000000000000000000063ffffffff871661062f565b90508082111561023f57600093505050506103da565b81156103465760006006610253848461061c565b63ffffffff161061026d57610268838361061c565b610270565b60065b905060006102a47f000000000000000000000000000000000000000000000000000000000000000063ffffffff8416610651565b604051633a901c7560e11b815263ffffffff821660048201529091506000906001600160a01b037f0000000000000000000000000000000000000000000000000000000000000000169063752038ea90602401602060405180830381865afa158015610314573d6000803e3d6000fd5b505050506040513d601f19601f820116820180604052508101906103389190610670565b96506103da95505050505050565b604051633a901c7560e11b815263ffffffff861660048201527f00000000000000000000000000000000000000000000000000000000000000006001600160a01b03169063752038ea90602401602060405180830381865afa1580156103b0573d6000803e3d6000fd5b505050506040513d601f19601f820116820180604052508101906103d49190610670565b93505050505b92915050565b604051635a46d3b560e01b81526001600160a01b0382811660048301526000918291829182917f00000000000000000000000000000000000000000000000000000000000000001690635a46d3b590602401606060405180830381865afa15801561044f573d6000803e3d6000fd5b505050506040513d601f19601f820116820180604052508101906104739190610689565b925092506001600160c01b0316925061048f8383836000610498565b95945050505050565b6000806104a58585610195565b9050670de0b6b3a76400006104ba8288610651565b6104c4919061062f565b9695505050505050565b63ffffffff811681146104e057600080fd5b50565b600080604083850312156104f657600080fd5b8235610501816104ce565b91506020830135610511816104ce565b809150509250929050565b60006020828403121561052e57600080fd5b81356001600160a01b038116811461054557600080fd5b9392505050565b6000806000806080858703121561056257600080fd5b843593506020850135610574816104ce565b92506040850135610584816104ce565b9396929550929360600135925050565b600060208083528351808285015260005b818110156105c1578581018301518582016040015282016105a5565b506000604082860101526040601f19601f8301168501019250505092915050565b634e487b7160e01b600052601160045260246000fd5b63ffffffff818116838216019080821115610615576106156105e2565b5092915050565b818103818111156103da576103da6105e2565b60008261064c57634e487b7160e01b600052601260045260246000fd5b500490565b600081600019048311821515161561066b5761066b6105e2565b500290565b60006020828403121561068257600080fd5b5051919050565b60008060006060848603121561069e57600080fd5b83516001600160c01b03811681146106b557600080fd5b60208501519093506106c6816104ce565b60408501519092506106d7816104ce565b80915050925092509256fea2646970667358221220bc3b26bfe1bcc4de5bf406364d4a4890951ef61304f8ffd5ba6871779187529464736f6c63430008100033",
    "linkReferences": {}
  },
  "methodIdentifiers": {
    "AVG_SECONDS_MONTH()": "f2ddedeb",
    "VERSION()": "ffa1ad74",
    "balanceOf(address)": "70a08231",
    "compute(uint256,uint32,uint32,uint256)": "e4107fe1",
    "exclusive()": "01ff74f7",
    "getDecayMultiplier(uint32,uint32)": "00890808",
    "isExclusive()": "8876dea6",
    "locker()": "d7b96d4e"
  },
  "id": 133
}