{
  "abi": [
    {
      "inputs": [
        {
          "internalType": "contract IVotes",
          "name": "_token",
          "type": "address"
        },
        {
          "internalType": "contract TimelockController",
          "name": "_timelock",
          "type": "address"
        },
        {
          "internalType": "uint256",
          "name": "_initialVotingDelayBlocks",
          "type": "uint256"
        },
        {
          "internalType": "uint256",
          "name": "_initialVotingPeriodBlocks",
          "type": "uint256"
        },
        {
          "internalType": "uint256",
          "name": "_initialMiniumumTokensForProposal",
          "type": "uint256"
        },
        {
          "internalType": "uint256",
          "name": "_initialQuorumPercentage",
          "type": "uint256"
        }
      ],
      "stateMutability": "nonpayable",
      "type": "constructor"
    },
    {
      "inputs": [],
      "name": "Empty",
      "type": "error"
    },
    {
      "inputs": [],
      "name": "InvalidShortString",
      "type": "error"
    },
    {
      "inputs": [
        {
          "internalType": "string",
          "name": "str",
          "type": "string"
        }
      ],
      "name": "StringTooLong",
      "type": "error"
    },
    {
      "anonymous": false,
      "inputs": [],
      "name": "EIP712DomainChanged",
      "type": "event"
    },
    {
      "anonymous": false,
      "inputs": [
        {
          "indexed": false,
          "internalType": "uint256",
          "name": "proposalId",
          "type": "uint256"
        }
      ],
      "name": "ProposalCanceled",
      "type": "event"
    },
    {
      "anonymous": false,
      "inputs": [
        {
          "indexed": false,
          "internalType": "uint256",
          "name": "proposalId",
          "type": "uint256"
        },
        {
          "indexed": false,
          "internalType": "address",
          "name": "proposer",
          "type": "address"
        },
        {
          "indexed": false,
          "internalType": "address[]",
          "name": "targets",
          "type": "address[]"
        },
        {
          "indexed": false,
          "internalType": "uint256[]",
          "name": "values",
          "type": "uint256[]"
        },
        {
          "indexed": false,
          "internalType": "string[]",
          "name": "signatures",
          "type": "string[]"
        },
        {
          "indexed": false,
          "internalType": "bytes[]",
          "name": "calldatas",
          "type": "bytes[]"
        },
        {
          "indexed": false,
          "internalType": "uint256",
          "name": "voteStart",
          "type": "uint256"
        },
        {
          "indexed": false,
          "internalType": "uint256",
          "name": "voteEnd",
          "type": "uint256"
        },
        {
          "indexed": false,
          "internalType": "string",
          "name": "description",
          "type": "string"
        }
      ],
      "name": "ProposalCreated",
      "type": "event"
    },
    {
      "anonymous": false,
      "inputs": [
        {
          "indexed": false,
          "internalType": "uint256",
          "name": "proposalId",
          "type": "uint256"
        }
      ],
      "name": "ProposalExecuted",
      "type": "event"
    },
    {
      "anonymous": false,
      "inputs": [
        {
          "indexed": false,
          "internalType": "uint256",
          "name": "proposalId",
          "type": "uint256"
        },
        {
          "indexed": false,
          "internalType": "uint256",
          "name": "eta",
          "type": "uint256"
        }
      ],
      "name": "ProposalQueued",
      "type": "event"
    },
    {
      "anonymous": false,
      "inputs": [
        {
          "indexed": false,
          "internalType": "uint256",
          "name": "oldProposalThreshold",
          "type": "uint256"
        },
        {
          "indexed": false,
          "internalType": "uint256",
          "name": "newProposalThreshold",
          "type": "uint256"
        }
      ],
      "name": "ProposalThresholdSet",
      "type": "event"
    },
    {
      "anonymous": false,
      "inputs": [
        {
          "indexed": false,
          "internalType": "uint256",
          "name": "oldQuorumNumerator",
          "type": "uint256"
        },
        {
          "indexed": false,
          "internalType": "uint256",
          "name": "newQuorumNumerator",
          "type": "uint256"
        }
      ],
      "name": "QuorumNumeratorUpdated",
      "type": "event"
    },
    {
      "anonymous": false,
      "inputs": [
        {
          "indexed": false,
          "internalType": "address",
          "name": "oldTimelock",
          "type": "address"
        },
        {
          "indexed": false,
          "internalType": "address",
          "name": "newTimelock",
          "type": "address"
        }
      ],
      "name": "TimelockChange",
      "type": "event"
    },
    {
      "anonymous": false,
      "inputs": [
        {
          "indexed": true,
          "internalType": "address",
          "name": "voter",
          "type": "address"
        },
        {
          "indexed": false,
          "internalType": "uint256",
          "name": "proposalId",
          "type": "uint256"
        },
        {
          "indexed": false,
          "internalType": "uint8",
          "name": "support",
          "type": "uint8"
        },
        {
          "indexed": false,
          "internalType": "uint256",
          "name": "weight",
          "type": "uint256"
        },
        {
          "indexed": false,
          "internalType": "string",
          "name": "reason",
          "type": "string"
        }
      ],
      "name": "VoteCast",
      "type": "event"
    },
    {
      "anonymous": false,
      "inputs": [
        {
          "indexed": true,
          "internalType": "address",
          "name": "voter",
          "type": "address"
        },
        {
          "indexed": false,
          "internalType": "uint256",
          "name": "proposalId",
          "type": "uint256"
        },
        {
          "indexed": false,
          "internalType": "uint8",
          "name": "support",
          "type": "uint8"
        },
        {
          "indexed": false,
          "internalType": "uint256",
          "name": "weight",
          "type": "uint256"
        },
        {
          "indexed": false,
          "internalType": "string",
          "name": "reason",
          "type": "string"
        },
        {
          "indexed": false,
          "internalType": "bytes",
          "name": "params",
          "type": "bytes"
        }
      ],
      "name": "VoteCastWithParams",
      "type": "event"
    },
    {
      "anonymous": false,
      "inputs": [
        {
          "indexed": false,
          "internalType": "uint256",
          "name": "oldVotingDelay",
          "type": "uint256"
        },
        {
          "indexed": false,
          "internalType": "uint256",
          "name": "newVotingDelay",
          "type": "uint256"
        }
      ],
      "name": "VotingDelaySet",
      "type": "event"
    },
    {
      "anonymous": false,
      "inputs": [
        {
          "indexed": false,
          "internalType": "uint256",
          "name": "oldVotingPeriod",
          "type": "uint256"
        },
        {
          "indexed": false,
          "internalType": "uint256",
          "name": "newVotingPeriod",
          "type": "uint256"
        }
      ],
      "name": "VotingPeriodSet",
      "type": "event"
    },
    {
      "inputs": [],
      "name": "BALLOT_TYPEHASH",
      "outputs": [
        {
          "internalType": "bytes32",
          "name": "",
          "type": "bytes32"
        }
      ],
      "stateMutability": "view",
      "type": "function"
    },
    {
      "inputs": [],
      "name": "CLOCK_MODE",
      "outputs": [
        {
          "internalType": "string",
          "name": "",
          "type": "string"
        }
      ],
      "stateMutability": "view",
      "type": "function"
    },
    {
      "inputs": [],
      "name": "COUNTING_MODE",
      "outputs": [
        {
          "internalType": "string",
          "name": "",
          "type": "string"
        }
      ],
      "stateMutability": "pure",
      "type": "function"
    },
    {
      "inputs": [],
      "name": "EXTENDED_BALLOT_TYPEHASH",
      "outputs": [
        {
          "internalType": "bytes32",
          "name": "",
          "type": "bytes32"
        }
      ],
      "stateMutability": "view",
      "type": "function"
    },
    {
      "inputs": [
        {
          "internalType": "address[]",
          "name": "targets",
          "type": "address[]"
        },
        {
          "internalType": "uint256[]",
          "name": "values",
          "type": "uint256[]"
        },
        {
          "internalType": "bytes[]",
          "name": "calldatas",
          "type": "bytes[]"
        },
        {
          "internalType": "bytes32",
          "name": "descriptionHash",
          "type": "bytes32"
        }
      ],
      "name": "cancel",
      "outputs": [
        {
          "internalType": "uint256",
          "name": "",
          "type": "uint256"
        }
      ],
      "stateMutability": "nonpayable",
      "type": "function"
    },
    {
      "inputs": [
        {
          "internalType": "uint256",
          "name": "proposalId",
          "type": "uint256"
        },
        {
          "internalType": "uint8",
          "name": "support",
          "type": "uint8"
        }
      ],
      "name": "castVote",
      "outputs": [
        {
          "internalType": "uint256",
          "name": "",
          "type": "uint256"
        }
      ],
      "stateMutability": "nonpayable",
      "type": "function"
    },
    {
      "inputs": [
        {
          "internalType": "uint256",
          "name": "proposalId",
          "type": "uint256"
        },
        {
          "internalType": "uint8",
          "name": "support",
          "type": "uint8"
        },
        {
          "internalType": "uint8",
          "name": "v",
          "type": "uint8"
        },
        {
          "internalType": "bytes32",
          "name": "r",
          "type": "bytes32"
        },
        {
          "internalType": "bytes32",
          "name": "s",
          "type": "bytes32"
        }
      ],
      "name": "castVoteBySig",
      "outputs": [
        {
          "internalType": "uint256",
          "name": "",
          "type": "uint256"
        }
      ],
      "stateMutability": "nonpayable",
      "type": "function"
    },
    {
      "inputs": [
        {
          "internalType": "uint256",
          "name": "proposalId",
          "type": "uint256"
        },
        {
          "internalType": "uint8",
          "name": "support",
          "type": "uint8"
        },
        {
          "internalType": "string",
          "name": "reason",
          "type": "string"
        }
      ],
      "name": "castVoteWithReason",
      "outputs": [
        {
          "internalType": "uint256",
          "name": "",
          "type": "uint256"
        }
      ],
      "stateMutability": "nonpayable",
      "type": "function"
    },
    {
      "inputs": [
        {
          "internalType": "uint256",
          "name": "proposalId",
          "type": "uint256"
        },
        {
          "internalType": "uint8",
          "name": "support",
          "type": "uint8"
        },
        {
          "internalType": "string",
          "name": "reason",
          "type": "string"
        },
        {
          "internalType": "bytes",
          "name": "params",
          "type": "bytes"
        }
      ],
      "name": "castVoteWithReasonAndParams",
      "outputs": [
        {
          "internalType": "uint256",
          "name": "",
          "type": "uint256"
        }
      ],
      "stateMutability": "nonpayable",
      "type": "function"
    },
    {
      "inputs": [
        {
          "internalType": "uint256",
          "name": "proposalId",
          "type": "uint256"
        },
        {
          "internalType": "uint8",
          "name": "support",
          "type": "uint8"
        },
        {
          "internalType": "string",
          "name": "reason",
          "type": "string"
        },
        {
          "internalType": "bytes",
          "name": "params",
          "type": "bytes"
        },
        {
          "internalType": "uint8",
          "name": "v",
          "type": "uint8"
        },
        {
          "internalType": "bytes32",
          "name": "r",
          "type": "bytes32"
        },
        {
          "internalType": "bytes32",
          "name": "s",
          "type": "bytes32"
        }
      ],
      "name": "castVoteWithReasonAndParamsBySig",
      "outputs": [
        {
          "internalType": "uint256",
          "name": "",
          "type": "uint256"
        }
      ],
      "stateMutability": "nonpayable",
      "type": "function"
    },
    {
      "inputs": [],
      "name": "clock",
      "outputs": [
        {
          "internalType": "uint48",
          "name": "",
          "type": "uint48"
        }
      ],
      "stateMutability": "view",
      "type": "function"
    },
    {
      "inputs": [],
      "name": "eip712Domain",
      "outputs": [
        {
          "internalType": "bytes1",
          "name": "fields",
          "type": "bytes1"
        },
        {
          "internalType": "string",
          "name": "name",
          "type": "string"
        },
        {
          "internalType": "string",
          "name": "version",
          "type": "string"
        },
        {
          "internalType": "uint256",
          "name": "chainId",
          "type": "uint256"
        },
        {
          "internalType": "address",
          "name": "verifyingContract",
          "type": "address"
        },
        {
          "internalType": "bytes32",
          "name": "salt",
          "type": "bytes32"
        },
        {
          "internalType": "uint256[]",
          "name": "extensions",
          "type": "uint256[]"
        }
      ],
      "stateMutability": "view",
      "type": "function"
    },
    {
      "inputs": [
        {
          "internalType": "address[]",
          "name": "targets",
          "type": "address[]"
        },
        {
          "internalType": "uint256[]",
          "name": "values",
          "type": "uint256[]"
        },
        {
          "internalType": "bytes[]",
          "name": "calldatas",
          "type": "bytes[]"
        },
        {
          "internalType": "bytes32",
          "name": "descriptionHash",
          "type": "bytes32"
        }
      ],
      "name": "execute",
      "outputs": [
        {
          "internalType": "uint256",
          "name": "",
          "type": "uint256"
        }
      ],
      "stateMutability": "payable",
      "type": "function"
    },
    {
      "inputs": [
        {
          "internalType": "address",
          "name": "account",
          "type": "address"
        },
        {
          "internalType": "uint256",
          "name": "timepoint",
          "type": "uint256"
        }
      ],
      "name": "getVotes",
      "outputs": [
        {
          "internalType": "uint256",
          "name": "",
          "type": "uint256"
        }
      ],
      "stateMutability": "view",
      "type": "function"
    },
    {
      "inputs": [
        {
          "internalType": "address",
          "name": "account",
          "type": "address"
        },
        {
          "internalType": "uint256",
          "name": "timepoint",
          "type": "uint256"
        },
        {
          "internalType": "bytes",
          "name": "params",
          "type": "bytes"
        }
      ],
      "name": "getVotesWithParams",
      "outputs": [
        {
          "internalType": "uint256",
          "name": "",
          "type": "uint256"
        }
      ],
      "stateMutability": "view",
      "type": "function"
    },
    {
      "inputs": [
        {
          "internalType": "uint256",
          "name": "proposalId",
          "type": "uint256"
        },
        {
          "internalType": "address",
          "name": "account",
          "type": "address"
        }
      ],
      "name": "hasVoted",
      "outputs": [
        {
          "internalType": "bool",
          "name": "",
          "type": "bool"
        }
      ],
      "stateMutability": "view",
      "type": "function"
    },
    {
      "inputs": [
        {
          "internalType": "address[]",
          "name": "targets",
          "type": "address[]"
        },
        {
          "internalType": "uint256[]",
          "name": "values",
          "type": "uint256[]"
        },
        {
          "internalType": "bytes[]",
          "name": "calldatas",
          "type": "bytes[]"
        },
        {
          "internalType": "bytes32",
          "name": "descriptionHash",
          "type": "bytes32"
        }
      ],
      "name": "hashProposal",
      "outputs": [
        {
          "internalType": "uint256",
          "name": "",
          "type": "uint256"
        }
      ],
      "stateMutability": "pure",
      "type": "function"
    },
    {
      "inputs": [],
      "name": "name",
      "outputs": [
        {
          "internalType": "string",
          "name": "",
          "type": "string"
        }
      ],
      "stateMutability": "view",
      "type": "function"
    },
    {
      "inputs": [
        {
          "internalType": "address",
          "name": "",
          "type": "address"
        },
        {
          "internalType": "address",
          "name": "",
          "type": "address"
        },
        {
          "internalType": "uint256[]",
          "name": "",
          "type": "uint256[]"
        },
        {
          "internalType": "uint256[]",
          "name": "",
          "type": "uint256[]"
        },
        {
          "internalType": "bytes",
          "name": "",
          "type": "bytes"
        }
      ],
      "name": "onERC1155BatchReceived",
      "outputs": [
        {
          "internalType": "bytes4",
          "name": "",
          "type": "bytes4"
        }
      ],
      "stateMutability": "nonpayable",
      "type": "function"
    },
    {
      "inputs": [
        {
          "internalType": "address",
          "name": "",
          "type": "address"
        },
        {
          "internalType": "address",
          "name": "",
          "type": "address"
        },
        {
          "internalType": "uint256",
          "name": "",
          "type": "uint256"
        },
        {
          "internalType": "uint256",
          "name": "",
          "type": "uint256"
        },
        {
          "internalType": "bytes",
          "name": "",
          "type": "bytes"
        }
      ],
      "name": "onERC1155Received",
      "outputs": [
        {
          "internalType": "bytes4",
          "name": "",
          "type": "bytes4"
        }
      ],
      "stateMutability": "nonpayable",
      "type": "function"
    },
    {
      "inputs": [
        {
          "internalType": "address",
          "name": "",
          "type": "address"
        },
        {
          "internalType": "address",
          "name": "",
          "type": "address"
        },
        {
          "internalType": "uint256",
          "name": "",
          "type": "uint256"
        },
        {
          "internalType": "bytes",
          "name": "",
          "type": "bytes"
        }
      ],
      "name": "onERC721Received",
      "outputs": [
        {
          "internalType": "bytes4",
          "name": "",
          "type": "bytes4"
        }
      ],
      "stateMutability": "nonpayable",
      "type": "function"
    },
    {
      "inputs": [
        {
          "internalType": "uint256",
          "name": "proposalId",
          "type": "uint256"
        }
      ],
      "name": "proposalDeadline",
      "outputs": [
        {
          "internalType": "uint256",
          "name": "",
          "type": "uint256"
        }
      ],
      "stateMutability": "view",
      "type": "function"
    },
    {
      "inputs": [
        {
          "internalType": "uint256",
          "name": "proposalId",
          "type": "uint256"
        }
      ],
      "name": "proposalEta",
      "outputs": [
        {
          "internalType": "uint256",
          "name": "",
          "type": "uint256"
        }
      ],
      "stateMutability": "view",
      "type": "function"
    },
    {
      "inputs": [
        {
          "internalType": "uint256",
          "name": "proposalId",
          "type": "uint256"
        }
      ],
      "name": "proposalSnapshot",
      "outputs": [
        {
          "internalType": "uint256",
          "name": "",
          "type": "uint256"
        }
      ],
      "stateMutability": "view",
      "type": "function"
    },
    {
      "inputs": [],
      "name": "proposalThreshold",
      "outputs": [
        {
          "internalType": "uint256",
          "name": "",
          "type": "uint256"
        }
      ],
      "stateMutability": "view",
      "type": "function"
    },
    {
      "inputs": [
        {
          "internalType": "uint256",
          "name": "proposalId",
          "type": "uint256"
        }
      ],
      "name": "proposalVotes",
      "outputs": [
        {
          "internalType": "uint256",
          "name": "againstVotes",
          "type": "uint256"
        },
        {
          "internalType": "uint256",
          "name": "forVotes",
          "type": "uint256"
        },
        {
          "internalType": "uint256",
          "name": "abstainVotes",
          "type": "uint256"
        }
      ],
      "stateMutability": "view",
      "type": "function"
    },
    {
      "inputs": [
        {
          "internalType": "address[]",
          "name": "targets",
          "type": "address[]"
        },
        {
          "internalType": "uint256[]",
          "name": "values",
          "type": "uint256[]"
        },
        {
          "internalType": "bytes[]",
          "name": "calldatas",
          "type": "bytes[]"
        },
        {
          "internalType": "string",
          "name": "description",
          "type": "string"
        }
      ],
      "name": "propose",
      "outputs": [
        {
          "internalType": "uint256",
          "name": "",
          "type": "uint256"
        }
      ],
      "stateMutability": "nonpayable",
      "type": "function"
    },
    {
      "inputs": [
        {
          "internalType": "address[]",
          "name": "targets",
          "type": "address[]"
        },
        {
          "internalType": "uint256[]",
          "name": "values",
          "type": "uint256[]"
        },
        {
          "internalType": "bytes[]",
          "name": "calldatas",
          "type": "bytes[]"
        },
        {
          "internalType": "bytes32",
          "name": "descriptionHash",
          "type": "bytes32"
        }
      ],
      "name": "queue",
      "outputs": [
        {
          "internalType": "uint256",
          "name": "",
          "type": "uint256"
        }
      ],
      "stateMutability": "nonpayable",
      "type": "function"
    },
    {
      "inputs": [
        {
          "internalType": "uint256",
          "name": "blockNumber",
          "type": "uint256"
        }
      ],
      "name": "quorum",
      "outputs": [
        {
          "internalType": "uint256",
          "name": "",
          "type": "uint256"
        }
      ],
      "stateMutability": "view",
      "type": "function"
    },
    {
      "inputs": [],
      "name": "quorumDenominator",
      "outputs": [
        {
          "internalType": "uint256",
          "name": "",
          "type": "uint256"
        }
      ],
      "stateMutability": "view",
      "type": "function"
    },
    {
      "inputs": [
        {
          "internalType": "uint256",
          "name": "timepoint",
          "type": "uint256"
        }
      ],
      "name": "quorumNumerator",
      "outputs": [
        {
          "internalType": "uint256",
          "name": "",
          "type": "uint256"
        }
      ],
      "stateMutability": "view",
      "type": "function"
    },
    {
      "inputs": [],
      "name": "quorumNumerator",
      "outputs": [
        {
          "internalType": "uint256",
          "name": "",
          "type": "uint256"
        }
      ],
      "stateMutability": "view",
      "type": "function"
    },
    {
      "inputs": [
        {
          "internalType": "address",
          "name": "target",
          "type": "address"
        },
        {
          "internalType": "uint256",
          "name": "value",
          "type": "uint256"
        },
        {
          "internalType": "bytes",
          "name": "data",
          "type": "bytes"
        }
      ],
      "name": "relay",
      "outputs": [],
      "stateMutability": "payable",
      "type": "function"
    },
    {
      "inputs": [
        {
          "internalType": "uint256",
          "name": "newProposalThreshold",
          "type": "uint256"
        }
      ],
      "name": "setProposalThreshold",
      "outputs": [],
      "stateMutability": "nonpayable",
      "type": "function"
    },
    {
      "inputs": [
        {
          "internalType": "uint256",
          "name": "newVotingDelay",
          "type": "uint256"
        }
      ],
      "name": "setVotingDelay",
      "outputs": [],
      "stateMutability": "nonpayable",
      "type": "function"
    },
    {
      "inputs": [
        {
          "internalType": "uint256",
          "name": "newVotingPeriod",
          "type": "uint256"
        }
      ],
      "name": "setVotingPeriod",
      "outputs": [],
      "stateMutability": "nonpayable",
      "type": "function"
    },
    {
      "inputs": [
        {
          "internalType": "uint256",
          "name": "proposalId",
          "type": "uint256"
        }
      ],
      "name": "state",
      "outputs": [
        {
          "internalType": "enum IGovernor.ProposalState",
          "name": "",
          "type": "uint8"
        }
      ],
      "stateMutability": "view",
      "type": "function"
    },
    {
      "inputs": [
        {
          "internalType": "bytes4",
          "name": "interfaceId",
          "type": "bytes4"
        }
      ],
      "name": "supportsInterface",
      "outputs": [
        {
          "internalType": "bool",
          "name": "",
          "type": "bool"
        }
      ],
      "stateMutability": "view",
      "type": "function"
    },
    {
      "inputs": [],
      "name": "timelock",
      "outputs": [
        {
          "internalType": "address",
          "name": "",
          "type": "address"
        }
      ],
      "stateMutability": "view",
      "type": "function"
    },
    {
      "inputs": [],
      "name": "token",
      "outputs": [
        {
          "internalType": "contract IERC5805",
          "name": "",
          "type": "address"
        }
      ],
      "stateMutability": "view",
      "type": "function"
    },
    {
      "inputs": [
        {
          "internalType": "uint256",
          "name": "newQuorumNumerator",
          "type": "uint256"
        }
      ],
      "name": "updateQuorumNumerator",
      "outputs": [],
      "stateMutability": "nonpayable",
      "type": "function"
    },
    {
      "inputs": [
        {
          "internalType": "contract TimelockController",
          "name": "newTimelock",
          "type": "address"
        }
      ],
      "name": "updateTimelock",
      "outputs": [],
      "stateMutability": "nonpayable",
      "type": "function"
    },
    {
      "inputs": [],
      "name": "version",
      "outputs": [
        {
          "internalType": "string",
          "name": "",
          "type": "string"
        }
      ],
      "stateMutability": "view",
      "type": "function"
    },
    {
      "inputs": [],
      "name": "votingDelay",
      "outputs": [
        {
          "internalType": "uint256",
          "name": "",
          "type": "uint256"
        }
      ],
      "stateMutability": "view",
      "type": "function"
    },
    {
      "inputs": [],
      "name": "votingPeriod",
      "outputs": [
        {
          "internalType": "uint256",
          "name": "",
          "type": "uint256"
        }
      ],
      "stateMutability": "view",
      "type": "function"
    },
    {
      "stateMutability": "payable",
      "type": "receive"
    }
  ],
  "bytecode": {
    "object": "0x6101806040523480156200001257600080fd5b506040516200534b3803806200534b8339810160408190526200003591620009ce565b8481878686866040518060400160405280600c81526020016b20babc37a3b7bb32b93737b960a11b8152508062000071620001a760201b60201c565b6200008c600083620001c260201b6200181e1790919060201c565b60e052620000a8816001620001c2602090811b6200181e17901c565b61010052815160208084019190912061012052815190820120610140524660a052620001386101205161014051604080517f8b73c3c69bb8fe3d512ecc4cf759cc79239f7b179b0ffacaa9a75d522b39400f60208201529081019290925260608201524660808201523060a082015260009060c00160405160208183030381529060405280519060200120905090565b60805250503060c05260026200014f828262000ad6565b506200015d90508362000212565b620001688262000253565b6200017381620002fa565b5050506001600160a01b0316610160526200018e816200033b565b506200019a81620004f0565b5050505050505062000c63565b6040805180820190915260018152603160f81b602082015290565b6000602083511015620001e257620001da8362000559565b90506200020c565b82620001f9836200059c60201b6200184f1760201c565b9062000206908262000ad6565b5060ff90505b92915050565b60065460408051918252602082018390527fc565b045403dc03c2eea82b81a0465edad9e2e7fc4d97e11421c209da93d7a93910160405180910390a1600655565b60008111620002b95760405162461bcd60e51b815260206004820152602760248201527f476f7665726e6f7253657474696e67733a20766f74696e6720706572696f6420604482015266746f6f206c6f7760c81b60648201526084015b60405180910390fd5b60075460408051918252602082018390527f7e3f7f0708a84de9203036abaa450dccc85ad5ff52f78c170f3edb55cf5e8828910160405180910390a1600755565b60085460408051918252602082018390527fccb45da8d5717e6c4544694297c4ba5cf151d455c9bb0ed4fc7a38411bc05461910160405180910390a1600855565b6064811115620003c05760405162461bcd60e51b815260206004820152604360248201527f476f7665726e6f72566f74657351756f72756d4672616374696f6e3a2071756f60448201527f72756d4e756d657261746f72206f7665722071756f72756d44656e6f6d696e616064820152623a37b960e91b608482015260a401620002b0565b6000620003cc6200059f565b90508015801590620003de5750600b54155b156200045957600b6000016040518060400160405280600063ffffffff1681526020016200041784620005d960201b620018521760201c565b6001600160e01b0390811690915282546001810184556000938452602093849020835194909301519091166401000000000263ffffffff909316929092179101555b620004b1620004846200046b62000648565b65ffffffffffff16620006ca60201b620018bf1760201c565b6200049a84620005d960201b620018521760201c565b600b6200073160201b62001924179092919060201c565b505060408051828152602081018490527f0553476bf02ef2726e8ce5ced78d63e26e602e4a2257b1f559418e24b4633997910160405180910390a15050565b600c54604080516001600160a01b03928316815291831660208301527f08f74ea46ef7894f65eabfb5e6e695de773a000b47c529ab559178069b226401910160405180910390a1600c80546001600160a01b0319166001600160a01b0392909216919091179055565b600080829050601f8151111562000587578260405163305a27a960e01b8152600401620002b0919062000ba2565b8051620005948262000bf2565b179392505050565b90565b600b5460009015620005d057620005c2600b6200074e60201b6200193f1760201c565b6001600160e01b0316905090565b600a545b905090565b60006001600160e01b03821115620006445760405162461bcd60e51b815260206004820152602760248201527f53616665436173743a2076616c756520646f65736e27742066697420696e20326044820152663234206269747360c81b6064820152608401620002b0565b5090565b6000610160516001600160a01b03166391ddadf46040518163ffffffff1660e01b8152600401602060405180830381865afa925050508015620006aa575060408051601f3d908101601f19168201909252620006a79181019062000c17565b60015b620006c557620005d4436200079c60201b6200197d1760201c565b919050565b600063ffffffff821115620006445760405162461bcd60e51b815260206004820152602660248201527f53616665436173743a2076616c756520646f65736e27742066697420696e203360448201526532206269747360d01b6064820152608401620002b0565b6000806200074185858562000805565b915091505b935093915050565b8054600090801562000792576200077a836200076c60018462000c41565b600091825260209091200190565b5464010000000090046001600160e01b031662000795565b60005b9392505050565b600065ffffffffffff821115620006445760405162461bcd60e51b815260206004820152602660248201527f53616665436173743a2076616c756520646f65736e27742066697420696e203460448201526538206269747360d01b6064820152608401620002b0565b8254600090819080156200095a57600062000827876200076c60018562000c41565b60408051808201909152905463ffffffff8082168084526401000000009092046001600160e01b031660208401529192509087161015620008ab5760405162461bcd60e51b815260206004820152601b60248201527f436865636b706f696e743a2064656372656173696e67206b65797300000000006044820152606401620002b0565b805163ffffffff808816911603620008f95784620008d0886200076c60018662000c41565b80546001600160e01b03929092166401000000000263ffffffff90921691909117905562000949565b6040805180820190915263ffffffff80881682526001600160e01b0380881660208085019182528b54600181018d5560008d81529190912094519151909216640100000000029216919091179101555b602001519250839150620007469050565b50506040805180820190915263ffffffff80851682526001600160e01b0380851660208085019182528854600181018a5560008a81529182209551925190931664010000000002919093161792019190915590508162000746565b6001600160a01b0381168114620009cb57600080fd5b50565b60008060008060008060c08789031215620009e857600080fd5b8651620009f581620009b5565b602088015190965062000a0881620009b5565b6040880151606089015160808a015160a0909a0151989b929a5090989097909650945092505050565b634e487b7160e01b600052604160045260246000fd5b600181811c9082168062000a5c57607f821691505b60208210810362000a7d57634e487b7160e01b600052602260045260246000fd5b50919050565b601f82111562000ad157600081815260208120601f850160051c8101602086101562000aac5750805b601f850160051c820191505b8181101562000acd5782815560010162000ab8565b5050505b505050565b81516001600160401b0381111562000af25762000af262000a31565b62000b0a8162000b03845462000a47565b8462000a83565b602080601f83116001811462000b42576000841562000b295750858301515b600019600386901b1c1916600185901b17855562000acd565b600085815260208120601f198616915b8281101562000b735788860151825594840194600190910190840162000b52565b508582101562000b925787850151600019600388901b60f8161c191681555b5050505050600190811b01905550565b600060208083528351808285015260005b8181101562000bd15785810183015185820160400152820162000bb3565b506000604082860101526040601f19601f8301168501019250505092915050565b8051602080830151919081101562000a7d5760001960209190910360031b1b16919050565b60006020828403121562000c2a57600080fd5b815165ffffffffffff811681146200079557600080fd5b818103818111156200020c57634e487b7160e01b600052601160045260246000fd5b60805160a05160c05160e0516101005161012051610140516101605161466662000ce56000396000818161094d01528181611055015281816113a90152818161252e015261272201526000612acb01526000612aa3015260006113550152600061132b015260006129fe01526000612a2801526000612a5201526146666000f3fe6080604052600436106102765760003560e01c80637b3c71d31161014f578063c01f9e37116100c1578063ea0217cf1161007a578063ea0217cf1461088f578063eb9019d4146108af578063ece40cc1146108cf578063f23a6e61146108ef578063f8ce560a1461091b578063fc0c546a1461093b57600080fd5b8063c01f9e3714610777578063c28bc2fa146107b0578063c59057e4146107c3578063d33219b4146107e3578063dd4e2ba514610815578063deaaa7cc1461085b57600080fd5b80639a802a6d116101135780639a802a6d146106c1578063a7713a70146106e1578063a890c910146106f6578063ab58fb8e14610716578063b58131b014610736578063bc197c811461074b57600080fd5b80637b3c71d3146106195780637d5e81e21461063957806384b0196e1461065957806391ddadf41461068157806397c3d334146106ad57600080fd5b80633bccf4fd116101e8578063544ffc9c116101ac578063544ffc9c1461051a57806354fd4d501461056f57806356781388146105995780635f398a14146105b957806360c4247f146105d957806370b0f660146105f957600080fd5b80633bccf4fd1461044e5780633e4f49e61461046e578063438596321461049b578063452115d6146104e55780634bf5d7e91461050557600080fd5b8063150b7a021161023a578063150b7a0214610358578063160cbed71461039c5780632656227d146103bc5780632d63f693146103cf5780632fe3e261146104055780633932abb11461043957600080fd5b806301ffc9a71461029e57806302a251a3146102d357806303420181146102f657806306f3f9e61461031657806306fdde031461033657600080fd5b36610299573061028461096f565b6001600160a01b03161461029757600080fd5b005b600080fd5b3480156102aa57600080fd5b506102be6102b93660046135a2565b610988565b60405190151581526020015b60405180910390f35b3480156102df57600080fd5b506102e8610999565b6040519081526020016102ca565b34801561030257600080fd5b506102e86103113660046136f0565b6109a4565b34801561032257600080fd5b50610297610331366004613796565b610a9c565b34801561034257600080fd5b5061034b610b2f565b6040516102ca91906137ff565b34801561036457600080fd5b50610383610373366004613827565b630a85bd0160e11b949350505050565b6040516001600160e01b031990911681526020016102ca565b3480156103a857600080fd5b506102e86103b73660046139fe565b610bc1565b6102e86103ca3660046139fe565b610dc2565b3480156103db57600080fd5b506102e86103ea366004613796565b6000908152600360205260409020546001600160401b031690565b34801561041157600080fd5b506102e87fb3b3f3b703cd84ce352197dcff232b1b5d3cfb2025ce47cf04742d0651f1af8881565b34801561044557600080fd5b506102e8610eb4565b34801561045a57600080fd5b506102e8610469366004613a8d565b610ebf565b34801561047a57600080fd5b5061048e610489366004613796565b610f35565b6040516102ca9190613af1565b3480156104a757600080fd5b506102be6104b6366004613b19565b60008281526009602090815260408083206001600160a01b038516845260030190915290205460ff1692915050565b3480156104f157600080fd5b506102e86105003660046139fe565b610f40565b34801561051157600080fd5b5061034b611051565b34801561052657600080fd5b50610554610535366004613796565b6000908152600960205260409020805460018201546002909201549092565b604080519384526020840192909252908201526060016102ca565b34801561057b57600080fd5b506040805180820190915260018152603160f81b602082015261034b565b3480156105a557600080fd5b506102e86105b4366004613b49565b611113565b3480156105c557600080fd5b506102e86105d4366004613b75565b61113c565b3480156105e557600080fd5b506102e86105f4366004613796565b611186565b34801561060557600080fd5b50610297610614366004613796565b611237565b34801561062557600080fd5b506102e8610634366004613bf8565b6112be565b34801561064557600080fd5b506102e8610654366004613c51565b611306565b34801561066557600080fd5b5061066e61131d565b6040516102ca9796959493929190613d40565b34801561068d57600080fd5b506106966113a5565b60405165ffffffffffff90911681526020016102ca565b3480156106b957600080fd5b5060646102e8565b3480156106cd57600080fd5b506102e86106dc366004613da2565b61142e565b3480156106ed57600080fd5b506102e8611445565b34801561070257600080fd5b50610297610711366004613dfa565b61146f565b34801561072257600080fd5b506102e8610731366004613796565b6114f6565b34801561074257600080fd5b506102e8611590565b34801561075757600080fd5b50610383610766366004613e17565b63bc197c8160e01b95945050505050565b34801561078357600080fd5b506102e8610792366004613796565b6000908152600360205260409020600101546001600160401b031690565b6102976107be366004613eaa565b61159b565b3480156107cf57600080fd5b506102e86107de3660046139fe565b6116aa565b3480156107ef57600080fd5b50600c546001600160a01b03165b6040516001600160a01b0390911681526020016102ca565b34801561082157600080fd5b506040805180820190915260208082527f737570706f72743d627261766f2671756f72756d3d666f722c6162737461696e9082015261034b565b34801561086757600080fd5b506102e87f150214d74d59b7d1e90c73fc22ef3d991dd0a76b046543d4d80ab92d2a50328f81565b34801561089b57600080fd5b506102976108aa366004613796565b6116e4565b3480156108bb57600080fd5b506102e86108ca366004613eed565b61176b565b3480156108db57600080fd5b506102976108ea366004613796565b61178c565b3480156108fb57600080fd5b5061038361090a366004613f19565b63f23a6e6160e01b95945050505050565b34801561092757600080fd5b506102e8610936366004613796565b611813565b34801561094757600080fd5b506107fd7f000000000000000000000000000000000000000000000000000000000000000081565b6000610983600c546001600160a01b031690565b905090565b6000610993826119e4565b92915050565b600061098360075490565b600080610a48610a407fb3b3f3b703cd84ce352197dcff232b1b5d3cfb2025ce47cf04742d0651f1af888c8c8c8c6040516109e0929190613f81565b60405180910390208b80519060200120604051602001610a25959493929190948552602085019390935260ff9190911660408401526060830152608082015260a00190565b60405160208183030381529060405280519060200120611a09565b868686611a36565b9050610a8e8a828b8b8b8080601f0160208091040260200160405190810160405280939291908181526020018383808284376000920191909152508d9250611a54915050565b9a9950505050505050505050565b610aa461096f565b6001600160a01b0316336001600160a01b031614610add5760405162461bcd60e51b8152600401610ad490613f91565b60405180910390fd5b30610ae661096f565b6001600160a01b031614610b235760008036604051610b06929190613f81565b604051809103902090505b80610b1c6004611ba9565b03610b1157505b610b2c81611c28565b50565b606060028054610b3e90613fc8565b80601f0160208091040260200160405190810160405280929190818152602001828054610b6a90613fc8565b8015610bb75780601f10610b8c57610100808354040283529160200191610bb7565b820191906000526020600020905b815481529060010190602001808311610b9a57829003601f168201915b5050505050905090565b600080610bd0868686866116aa565b90506004610bdd82610f35565b6007811115610bee57610bee613adb565b14610c0b5760405162461bcd60e51b8152600401610ad490614002565b600c546040805163793d064960e11b815290516000926001600160a01b03169163f27a0c929160048083019260209291908290030181865afa158015610c55573d6000803e3d6000fd5b505050506040513d601f19601f82011682018060405250810190610c799190614043565b600c5460405163b1c5f42760e01b81529192506001600160a01b03169063b1c5f42790610cb3908a908a908a906000908b906004016140ea565b602060405180830381865afa158015610cd0573d6000803e3d6000fd5b505050506040513d601f19601f82011682018060405250810190610cf49190614043565b6000838152600d602052604080822092909255600c5491516308f2a0bb60e41b81526001600160a01b0390921691638f2a0bb091610d3f918b918b918b91908b908990600401614138565b600060405180830381600087803b158015610d5957600080fd5b505af1158015610d6d573d6000803e3d6000fd5b505050507f9a2e42fd6722813d69113e7d0079d3d940171428df7373df9c7f7617cfda2892828242610d9f91906141a6565b604080519283526020830191909152015b60405180910390a15095945050505050565b600080610dd1868686866116aa565b90506000610dde82610f35565b90506004816007811115610df457610df4613adb565b1480610e1157506005816007811115610e0f57610e0f613adb565b145b610e2d5760405162461bcd60e51b8152600401610ad490614002565b60008281526003602052604090819020600201805460ff19166001179055517f712ae1383f79ac853f8d882153778e0260ef8f03b504e2866e0593e04d2b291f90610e7b9084815260200190565b60405180910390a1610e908288888888611d96565b610e9d8288888888611e38565b610eaa8288888888611e45565b5095945050505050565b600061098360065490565b604080517f150214d74d59b7d1e90c73fc22ef3d991dd0a76b046543d4d80ab92d2a50328f602082015290810186905260ff851660608201526000908190610f0d90610a4090608001610a25565b9050610f2a87828860405180602001604052806000815250611e7e565b979650505050505050565b600061099382611ea1565b600080610f4f868686866116aa565b90506000610f5c82610f35565b6007811115610f6d57610f6d613adb565b14610fba5760405162461bcd60e51b815260206004820152601c60248201527f476f7665726e6f723a20746f6f206c61746520746f2063616e63656c000000006044820152606401610ad4565b600081815260036020526040902054600160401b90046001600160a01b0316336001600160a01b03161461103b5760405162461bcd60e51b815260206004820152602260248201527f476f7665726e6f723a206f6e6c792070726f706f7365722063616e2063616e63604482015261195b60f21b6064820152608401610ad4565b61104786868686611feb565b9695505050505050565b60607f00000000000000000000000000000000000000000000000000000000000000006001600160a01b0316634bf5d7e96040518163ffffffff1660e01b8152600401600060405180830381865afa9250505080156110d257506040513d6000823e601f3d908101601f191682016040526110cf91908101906141b9565b60015b61110e575060408051808201909152601d81527f6d6f64653d626c6f636b6e756d6265722666726f6d3d64656661756c74000000602082015290565b919050565b60008033905061113484828560405180602001604052806000815250611e7e565b949350505050565b600080339050610f2a87828888888080601f0160208091040260200160405190810160405280939291908181526020018383808284376000920191909152508a9250611a54915050565b600b5460009080820361119d575050600a54919050565b6000600b6111ac600184614226565b815481106111bc576111bc614239565b60009182526020918290206040805180820190915291015463ffffffff8116808352600160201b9091046001600160e01b0316928201929092529150841061121257602001516001600160e01b03169392505050565b61122661121e856118bf565b600b90611ff9565b6001600160e01b0316949350505050565b61123f61096f565b6001600160a01b0316336001600160a01b03161461126f5760405162461bcd60e51b8152600401610ad490613f91565b3061127861096f565b6001600160a01b0316146112b55760008036604051611298929190613f81565b604051809103902090505b806112ae6004611ba9565b036112a357505b610b2c8161209e565b60008033905061104786828787878080601f016020809104026020016040519081016040528093929190818152602001838380828437600092019190915250611e7e92505050565b6000611314858585856120df565b95945050505050565b6000606080828080836113507f000000000000000000000000000000000000000000000000000000000000000083612461565b61137b7f00000000000000000000000000000000000000000000000000000000000000006001612461565b60408051600080825260208201909252600f60f81b9b939a50919850469750309650945092509050565b60007f00000000000000000000000000000000000000000000000000000000000000006001600160a01b03166391ddadf46040518163ffffffff1660e01b8152600401602060405180830381865afa925050508015611421575060408051601f3d908101601f1916820190925261141e9181019061424f565b60015b61110e576109834361197d565b600061143b848484612505565b90505b9392505050565b600b54600090156114685761145a600b61193f565b6001600160e01b0316905090565b50600a5490565b61147761096f565b6001600160a01b0316336001600160a01b0316146114a75760405162461bcd60e51b8152600401610ad490613f91565b306114b061096f565b6001600160a01b0316146114ed57600080366040516114d0929190613f81565b604051809103902090505b806114e66004611ba9565b036114db57505b610b2c8161259b565b600c546000828152600d602052604080822054905163d45c443560e01b81526004810191909152909182916001600160a01b039091169063d45c443590602401602060405180830381865afa158015611553573d6000803e3d6000fd5b505050506040513d601f19601f820116820180604052508101906115779190614043565b905080600114611587578061143e565b60009392505050565b600061098360085490565b6115a361096f565b6001600160a01b0316336001600160a01b0316146115d35760405162461bcd60e51b8152600401610ad490613f91565b306115dc61096f565b6001600160a01b03161461161957600080366040516115fc929190613f81565b604051809103902090505b806116126004611ba9565b0361160757505b600080856001600160a01b0316858585604051611637929190613f81565b60006040518083038185875af1925050503d8060008114611674576040519150601f19603f3d011682016040523d82523d6000602084013e611679565b606091505b50915091506116a1828260405180606001604052806028815260200161460960289139612604565b50505050505050565b6000848484846040516020016116c39493929190614277565b60408051601f19818403018152919052805160209091012095945050505050565b6116ec61096f565b6001600160a01b0316336001600160a01b03161461171c5760405162461bcd60e51b8152600401610ad490613f91565b3061172561096f565b6001600160a01b0316146117625760008036604051611745929190613f81565b604051809103902090505b8061175b6004611ba9565b0361175057505b610b2c8161261d565b600061143e838361178760408051602081019091526000815290565b612505565b61179461096f565b6001600160a01b0316336001600160a01b0316146117c45760405162461bcd60e51b8152600401610ad490613f91565b306117cd61096f565b6001600160a01b03161461180a57600080366040516117ed929190613f81565b604051809103902090505b806118036004611ba9565b036117f857505b610b2c816126be565b6000610993826126ff565b600060208351101561183a57611833836127a9565b9050610993565b81611845848261430d565b5060ff9050610993565b90565b60006001600160e01b038211156118bb5760405162461bcd60e51b815260206004820152602760248201527f53616665436173743a2076616c756520646f65736e27742066697420696e20326044820152663234206269747360c81b6064820152608401610ad4565b5090565b600063ffffffff8211156118bb5760405162461bcd60e51b815260206004820152602660248201527f53616665436173743a2076616c756520646f65736e27742066697420696e203360448201526532206269747360d01b6064820152608401610ad4565b6000806119328585856127e7565b915091505b935093915050565b805460009080156115875761196783611959600184614226565b600091825260209091200190565b54600160201b90046001600160e01b031661143e565b600065ffffffffffff8211156118bb5760405162461bcd60e51b815260206004820152602660248201527f53616665436173743a2076616c756520646f65736e27742066697420696e203460448201526538206269747360d01b6064820152608401610ad4565b60006001600160e01b03198216636e665ced60e01b1480610993575061099382612986565b6000610993611a166129f1565b8360405161190160f01b8152600281019290925260228201526042902090565b6000806000611a4787878787612b1c565b91509150610eaa81612be0565b60008581526003602052604081206001611a6d88610f35565b6007811115611a7e57611a7e613adb565b14611ad75760405162461bcd60e51b815260206004820152602360248201527f476f7665726e6f723a20766f7465206e6f742063757272656e746c792061637460448201526269766560e81b6064820152608401610ad4565b8054600090611af19088906001600160401b031686612505565b9050611b008888888488612d2a565b8351600003611b5557866001600160a01b03167fb8e138887d0aa13bab447e82de9d5c1777041ecd21ca36ba824ff1e6c07ddda489888489604051611b4894939291906143cc565b60405180910390a2610f2a565b866001600160a01b03167fe2babfbac5889a709b63bb7f598b324e08bc5a4fb9ec647fb3cbc9ec07eb87128988848989604051611b969594939291906143f4565b60405180910390a2979650505050505050565b6000611bc48254600f81810b600160801b909204900b131590565b15611be257604051631ed9509560e11b815260040160405180910390fd5b508054600f0b6000818152600180840160205260408220805492905583546fffffffffffffffffffffffffffffffff191692016001600160801b03169190911790915590565b6064811115611cab5760405162461bcd60e51b815260206004820152604360248201527f476f7665726e6f72566f74657351756f72756d4672616374696f6e3a2071756f60448201527f72756d4e756d657261746f72206f7665722071756f72756d44656e6f6d696e616064820152623a37b960e91b608482015260a401610ad4565b6000611cb5611445565b90508015801590611cc65750600b54155b15611d2a576040805180820190915260008152600b9060208101611ce984611852565b6001600160e01b039081169091528254600181018455600093845260209384902083519490930151909116600160201b0263ffffffff909316929092179101555b611d57611d45611d386113a5565b65ffffffffffff166118bf565b611d4e84611852565b600b9190611924565b505060408051828152602081018490527f0553476bf02ef2726e8ce5ced78d63e26e602e4a2257b1f559418e24b4633997910160405180910390a15050565b30611d9f61096f565b6001600160a01b031614611e315760005b8451811015611e2f57306001600160a01b0316858281518110611dd557611dd5614239565b60200260200101516001600160a01b031603611e1f57611e1f838281518110611e0057611e00614239565b6020026020010151805190602001206004612ea490919063ffffffff16565b611e288161443a565b9050611db0565b505b5050505050565b611e318585858585612ee0565b30611e4e61096f565b6001600160a01b031614611e3157600454600f81810b600160801b909204900b1315611e31576000600455611e31565b600061131485858585611e9c60408051602081019091526000815290565b611a54565b600080611ead83612f54565b90506004816007811115611ec357611ec3613adb565b14611ece5792915050565b6000838152600d602052604090205480611ee9575092915050565b600c54604051632ab0f52960e01b8152600481018390526001600160a01b0390911690632ab0f52990602401602060405180830381865afa158015611f32573d6000803e3d6000fd5b505050506040513d601f19601f82011682018060405250810190611f569190614453565b15611f65575060079392505050565b600c54604051632c258a9f60e11b8152600481018390526001600160a01b039091169063584b153e90602401602060405180830381865afa158015611fae573d6000803e3d6000fd5b505050506040513d601f19601f82011682018060405250810190611fd29190614453565b15611fe1575060059392505050565b5060029392505050565b600061131485858585613094565b81546000908181600581111561205657600061201484613146565b61201e9085614226565b60008881526020902090915081015463ffffffff908116908716101561204657809150612054565b6120518160016141a6565b92505b505b60006120648787858561322e565b905080156120915761207b87611959600184614226565b54600160201b90046001600160e01b0316610f2a565b6000979650505050505050565b60065460408051918252602082018390527fc565b045403dc03c2eea82b81a0465edad9e2e7fc4d97e11421c209da93d7a93910160405180910390a1600655565b600033816120eb6113a5565b65ffffffffffff1690506120fd611590565b61210c836108ca600185614226565b10156121745760405162461bcd60e51b815260206004820152603160248201527f476f7665726e6f723a2070726f706f73657220766f7465732062656c6f7720706044820152701c9bdc1bdcd85b081d1a1c995cda1bdb19607a1b6064820152608401610ad4565b600061218988888888805190602001206116aa565b905086518851146121ac5760405162461bcd60e51b8152600401610ad490614475565b85518851146121cd5760405162461bcd60e51b8152600401610ad490614475565b600088511161221e5760405162461bcd60e51b815260206004820152601860248201527f476f7665726e6f723a20656d7074792070726f706f73616c00000000000000006044820152606401610ad4565b6000818152600360205260409020546001600160401b03161561228d5760405162461bcd60e51b815260206004820152602160248201527f476f7665726e6f723a2070726f706f73616c20616c72656164792065786973746044820152607360f81b6064820152608401610ad4565b6000612297610eb4565b6122a190846141a6565b905060006122ad610999565b6122b790836141a6565b90506040518060e001604052806122cd8461328c565b6001600160401b031681526001600160a01b0387166020820152600060408201526060016122fa8361328c565b6001600160401b039081168252600060208084018290526040808501839052606094850183905288835260038252918290208551815492870151878501519186166001600160e01b031990941693909317600160401b6001600160a01b039094168402176001600160e01b0316600160e01b60e09290921c91909102178155938501516080860151908416921c0217600183015560a08301516002909201805460c09094015161ffff1990941692151561ff00191692909217610100931515939093029290921790558a517f7d84a6263ae0d98d3329bd7b46bb4e8d6f98cd35a7adb45c274c8b7fd5ebd5e091859188918e918e918111156123fe576123fe613625565b60405190808252806020026020018201604052801561243157816020015b606081526020019060019003908161241c5790505b508d88888f60405161244b999897969594939291906144b6565b60405180910390a1509098975050505050505050565b606060ff831461247457611833836132f4565b81805461248090613fc8565b80601f01602080910402602001604051908101604052809291908181526020018280546124ac90613fc8565b80156124f95780601f106124ce576101008083540402835291602001916124f9565b820191906000526020600020905b8154815290600101906020018083116124dc57829003601f168201915b50505050509050610993565b604051630748d63560e31b81526001600160a01b038481166004830152602482018490526000917f000000000000000000000000000000000000000000000000000000000000000090911690633a46b1a890604401602060405180830381865afa158015612577573d6000803e3d6000fd5b505050506040513d601f19601f8201168201806040525081019061143b9190614043565b600c54604080516001600160a01b03928316815291831660208301527f08f74ea46ef7894f65eabfb5e6e695de773a000b47c529ab559178069b226401910160405180910390a1600c80546001600160a01b0319166001600160a01b0392909216919091179055565b6060831561261357508161143e565b61143e8383613333565b6000811161267d5760405162461bcd60e51b815260206004820152602760248201527f476f7665726e6f7253657474696e67733a20766f74696e6720706572696f6420604482015266746f6f206c6f7760c81b6064820152608401610ad4565b60075460408051918252602082018390527f7e3f7f0708a84de9203036abaa450dccc85ad5ff52f78c170f3edb55cf5e8828910160405180910390a1600755565b60085460408051918252602082018390527fccb45da8d5717e6c4544694297c4ba5cf151d455c9bb0ed4fc7a38411bc05461910160405180910390a1600855565b6000606461270c83611186565b604051632394e7a360e21b8152600481018590527f00000000000000000000000000000000000000000000000000000000000000006001600160a01b031690638e539e8c90602401602060405180830381865afa158015612771573d6000803e3d6000fd5b505050506040513d601f19601f820116820180604052508101906127959190614043565b61279f919061458d565b61099391906145c2565b600080829050601f815111156127d4578260405163305a27a960e01b8152600401610ad491906137ff565b80516127df826145e4565b179392505050565b82546000908190801561292d57600061280587611959600185614226565b60408051808201909152905463ffffffff808216808452600160201b9092046001600160e01b0316602084015291925090871610156128865760405162461bcd60e51b815260206004820152601b60248201527f436865636b706f696e743a2064656372656173696e67206b65797300000000006044820152606401610ad4565b805163ffffffff8088169116036128ce57846128a788611959600186614226565b80546001600160e01b0392909216600160201b0263ffffffff90921691909117905561291d565b6040805180820190915263ffffffff80881682526001600160e01b0380881660208085019182528b54600181018d5560008d81529190912094519151909216600160201b029216919091179101555b6020015192508391506119379050565b50506040805180820190915263ffffffff80851682526001600160e01b0380851660208085019182528854600181018a5560008a815291822095519251909316600160201b029190931617920191909155905081611937565b60006001600160e01b0319821663bf26d89760e01b14806129b757506001600160e01b031982166379dd796f60e01b145b806129d257506001600160e01b03198216630271189760e51b145b8061099357506301ffc9a760e01b6001600160e01b0319831614610993565b6000306001600160a01b037f000000000000000000000000000000000000000000000000000000000000000016148015612a4a57507f000000000000000000000000000000000000000000000000000000000000000046145b15612a7457507f000000000000000000000000000000000000000000000000000000000000000090565b610983604080517f8b73c3c69bb8fe3d512ecc4cf759cc79239f7b179b0ffacaa9a75d522b39400f60208201527f0000000000000000000000000000000000000000000000000000000000000000918101919091527f000000000000000000000000000000000000000000000000000000000000000060608201524660808201523060a082015260009060c00160405160208183030381529060405280519060200120905090565b6000807f7fffffffffffffffffffffffffffffff5d576e7357a4501ddfe92f46681b20a0831115612b535750600090506003612bd7565b6040805160008082526020820180845289905260ff881692820192909252606081018690526080810185905260019060a0016020604051602081039080840390855afa158015612ba7573d6000803e3d6000fd5b5050604051601f1901519150506001600160a01b038116612bd057600060019250925050612bd7565b9150600090505b94509492505050565b6000816004811115612bf457612bf4613adb565b03612bfc5750565b6001816004811115612c1057612c10613adb565b03612c5d5760405162461bcd60e51b815260206004820152601860248201527f45434453413a20696e76616c6964207369676e617475726500000000000000006044820152606401610ad4565b6002816004811115612c7157612c71613adb565b03612cbe5760405162461bcd60e51b815260206004820152601f60248201527f45434453413a20696e76616c6964207369676e6174757265206c656e677468006044820152606401610ad4565b6003816004811115612cd257612cd2613adb565b03610b2c5760405162461bcd60e51b815260206004820152602260248201527f45434453413a20696e76616c6964207369676e6174757265202773272076616c604482015261756560f01b6064820152608401610ad4565b60008581526009602090815260408083206001600160a01b0388168452600381019092529091205460ff1615612db25760405162461bcd60e51b815260206004820152602760248201527f476f7665726e6f72566f74696e6753696d706c653a20766f746520616c726561604482015266191e4818d85cdd60ca1b6064820152608401610ad4565b6001600160a01b03851660009081526003820160205260409020805460ff1916600117905560ff8416612dfe5782816000016000828254612df391906141a6565b90915550611e2f9050565b60001960ff851601612e1e5782816001016000828254612df391906141a6565b60011960ff851601612e3e5782816002016000828254612df391906141a6565b60405162461bcd60e51b815260206004820152603560248201527f476f7665726e6f72566f74696e6753696d706c653a20696e76616c69642076616044820152746c756520666f7220656e756d20566f74655479706560581b6064820152608401610ad4565b8154600160801b90819004600f0b6000818152600180860160205260409091209390935583546001600160801b03908116939091011602179055565b600c5460405163e38335e560e01b81526001600160a01b039091169063e38335e5903490612f1b9088908890889060009089906004016140ea565b6000604051808303818588803b158015612f3457600080fd5b505af1158015612f48573d6000803e3d6000fd5b50505050505050505050565b6000818152600360205260408120600281015460ff1615612f785750600792915050565b6002810154610100900460ff1615612f935750600292915050565b6000838152600360205260408120546001600160401b031690819003612ffb5760405162461bcd60e51b815260206004820152601d60248201527f476f7665726e6f723a20756e6b6e6f776e2070726f706f73616c2069640000006044820152606401610ad4565b60006130056113a5565b65ffffffffffff16905080821061302157506000949350505050565b6000858152600360205260409020600101546001600160401b031681811061304f5750600195945050505050565b6130588661335d565b8015613077575060008681526009602052604090208054600190910154115b156130885750600495945050505050565b50600395945050505050565b6000806130a3868686866133a9565b6000818152600d60205260409020549091501561131457600c546000828152600d60205260409081902054905163c4d252f560e01b81526001600160a01b039092169163c4d252f5916130fc9160040190815260200190565b600060405180830381600087803b15801561311657600080fd5b505af115801561312a573d6000803e3d6000fd5b5050506000828152600d60205260408120555095945050505050565b60008160000361315857506000919050565b60006001613165846134b5565b901c6001901b9050600181848161317e5761317e6145ac565b048201901c90506001818481613196576131966145ac565b048201901c905060018184816131ae576131ae6145ac565b048201901c905060018184816131c6576131c66145ac565b048201901c905060018184816131de576131de6145ac565b048201901c905060018184816131f6576131f66145ac565b048201901c9050600181848161320e5761320e6145ac565b048201901c905061143e81828581613228576132286145ac565b04613549565b60005b81831015613284576000613245848461355f565b60008781526020902090915063ffffffff86169082015463ffffffff1611156132705780925061327e565b61327b8160016141a6565b93505b50613231565b509392505050565b60006001600160401b038211156118bb5760405162461bcd60e51b815260206004820152602660248201527f53616665436173743a2076616c756520646f65736e27742066697420696e203660448201526534206269747360d01b6064820152608401610ad4565b606060006133018361357a565b604080516020808252818301909252919250600091906020820181803683375050509182525060208101929092525090565b8151156133435781518083602001fd5b8060405162461bcd60e51b8152600401610ad491906137ff565b60008181526009602052604081206002810154600182015461337f91906141a6565b6000848152600360205260409020546133a0906001600160401b0316611813565b11159392505050565b6000806133b8868686866116aa565b905060006133c582610f35565b905060028160078111156133db576133db613adb565b141580156133fb575060068160078111156133f8576133f8613adb565b14155b80156134195750600781600781111561341657613416613adb565b14155b6134655760405162461bcd60e51b815260206004820152601d60248201527f476f7665726e6f723a2070726f706f73616c206e6f74206163746976650000006044820152606401610ad4565b60008281526003602052604090819020600201805461ff001916610100179055517f789cf55be980739dad1d0699b93b58e806b51c9d96619bfa8fe0a28abaa7b30c90610db09084815260200190565b600080608083901c156134ca57608092831c92015b604083901c156134dc57604092831c92015b602083901c156134ee57602092831c92015b601083901c1561350057601092831c92015b600883901c1561351257600892831c92015b600483901c1561352457600492831c92015b600283901c1561353657600292831c92015b600183901c156109935760010192915050565b6000818310613558578161143e565b5090919050565b600061356e60028484186145c2565b61143e908484166141a6565b600060ff8216601f81111561099357604051632cd44ac360e21b815260040160405180910390fd5b6000602082840312156135b457600080fd5b81356001600160e01b03198116811461143e57600080fd5b803560ff8116811461110e57600080fd5b60008083601f8401126135ef57600080fd5b5081356001600160401b0381111561360657600080fd5b60208301915083602082850101111561361e57600080fd5b9250929050565b634e487b7160e01b600052604160045260246000fd5b604051601f8201601f191681016001600160401b038111828210171561366357613663613625565b604052919050565b60006001600160401b0382111561368457613684613625565b50601f01601f191660200190565b60006136a56136a08461366b565b61363b565b90508281528383830111156136b957600080fd5b828260208301376000602084830101529392505050565b600082601f8301126136e157600080fd5b61143e83833560208501613692565b60008060008060008060008060e0898b03121561370c57600080fd5b8835975061371c60208a016135cc565b965060408901356001600160401b038082111561373857600080fd5b6137448c838d016135dd565b909850965060608b013591508082111561375d57600080fd5b5061376a8b828c016136d0565b94505061377960808a016135cc565b925060a0890135915060c089013590509295985092959890939650565b6000602082840312156137a857600080fd5b5035919050565b60005b838110156137ca5781810151838201526020016137b2565b50506000910152565b600081518084526137eb8160208601602086016137af565b601f01601f19169290920160200192915050565b60208152600061143e60208301846137d3565b6001600160a01b0381168114610b2c57600080fd5b6000806000806080858703121561383d57600080fd5b843561384881613812565b9350602085013561385881613812565b92506040850135915060608501356001600160401b0381111561387a57600080fd5b613886878288016136d0565b91505092959194509250565b60006001600160401b038211156138ab576138ab613625565b5060051b60200190565b600082601f8301126138c657600080fd5b813560206138d66136a083613892565b82815260059290921b840181019181810190868411156138f557600080fd5b8286015b8481101561391957803561390c81613812565b83529183019183016138f9565b509695505050505050565b600082601f83011261393557600080fd5b813560206139456136a083613892565b82815260059290921b8401810191818101908684111561396457600080fd5b8286015b848110156139195780358352918301918301613968565b600082601f83011261399057600080fd5b813560206139a06136a083613892565b82815260059290921b840181019181810190868411156139bf57600080fd5b8286015b848110156139195780356001600160401b038111156139e25760008081fd5b6139f08986838b01016136d0565b8452509183019183016139c3565b60008060008060808587031215613a1457600080fd5b84356001600160401b0380821115613a2b57600080fd5b613a37888389016138b5565b95506020870135915080821115613a4d57600080fd5b613a5988838901613924565b94506040870135915080821115613a6f57600080fd5b50613a7c8782880161397f565b949793965093946060013593505050565b600080600080600060a08688031215613aa557600080fd5b85359450613ab5602087016135cc565b9350613ac3604087016135cc565b94979396509394606081013594506080013592915050565b634e487b7160e01b600052602160045260246000fd5b6020810160088310613b1357634e487b7160e01b600052602160045260246000fd5b91905290565b60008060408385031215613b2c57600080fd5b823591506020830135613b3e81613812565b809150509250929050565b60008060408385031215613b5c57600080fd5b82359150613b6c602084016135cc565b90509250929050565b600080600080600060808688031215613b8d57600080fd5b85359450613b9d602087016135cc565b935060408601356001600160401b0380821115613bb957600080fd5b613bc589838a016135dd565b90955093506060880135915080821115613bde57600080fd5b50613beb888289016136d0565b9150509295509295909350565b60008060008060608587031215613c0e57600080fd5b84359350613c1e602086016135cc565b925060408501356001600160401b03811115613c3957600080fd5b613c45878288016135dd565b95989497509550505050565b60008060008060808587031215613c6757600080fd5b84356001600160401b0380821115613c7e57600080fd5b613c8a888389016138b5565b95506020870135915080821115613ca057600080fd5b613cac88838901613924565b94506040870135915080821115613cc257600080fd5b613cce8883890161397f565b93506060870135915080821115613ce457600080fd5b508501601f81018713613cf657600080fd5b61388687823560208401613692565b600081518084526020808501945080840160005b83811015613d3557815187529582019590820190600101613d19565b509495945050505050565b60ff60f81b8816815260e060208201526000613d5f60e08301896137d3565b8281036040840152613d7181896137d3565b606084018890526001600160a01b038716608085015260a0840186905283810360c08501529050610a8e8185613d05565b600080600060608486031215613db757600080fd5b8335613dc281613812565b92506020840135915060408401356001600160401b03811115613de457600080fd5b613df0868287016136d0565b9150509250925092565b600060208284031215613e0c57600080fd5b813561143e81613812565b600080600080600060a08688031215613e2f57600080fd5b8535613e3a81613812565b94506020860135613e4a81613812565b935060408601356001600160401b0380821115613e6657600080fd5b613e7289838a01613924565b94506060880135915080821115613e8857600080fd5b613e9489838a01613924565b93506080880135915080821115613bde57600080fd5b60008060008060608587031215613ec057600080fd5b8435613ecb81613812565b93506020850135925060408501356001600160401b03811115613c3957600080fd5b60008060408385031215613f0057600080fd5b8235613f0b81613812565b946020939093013593505050565b600080600080600060a08688031215613f3157600080fd5b8535613f3c81613812565b94506020860135613f4c81613812565b9350604086013592506060860135915060808601356001600160401b03811115613f7557600080fd5b613beb888289016136d0565b8183823760009101908152919050565b60208082526018908201527f476f7665726e6f723a206f6e6c79476f7665726e616e63650000000000000000604082015260600190565b600181811c90821680613fdc57607f821691505b602082108103613ffc57634e487b7160e01b600052602260045260246000fd5b50919050565b60208082526021908201527f476f7665726e6f723a2070726f706f73616c206e6f74207375636365737366756040820152601b60fa1b606082015260800190565b60006020828403121561405557600080fd5b5051919050565b600081518084526020808501945080840160005b83811015613d355781516001600160a01b031687529582019590820190600101614070565b600081518084526020808501808196508360051b8101915082860160005b858110156140dd5782840389526140cb8483516137d3565b988501989350908401906001016140b3565b5091979650505050505050565b60a0815260006140fd60a083018861405c565b828103602084015261410f8188613d05565b905082810360408401526141238187614095565b60608401959095525050608001529392505050565b60c08152600061414b60c083018961405c565b828103602084015261415d8189613d05565b905082810360408401526141718188614095565b60608401969096525050608081019290925260a0909101529392505050565b634e487b7160e01b600052601160045260246000fd5b8082018082111561099357610993614190565b6000602082840312156141cb57600080fd5b81516001600160401b038111156141e157600080fd5b8201601f810184136141f257600080fd5b80516142006136a08261366b565b81815285602083850101111561421557600080fd5b6113148260208301602086016137af565b8181038181111561099357610993614190565b634e487b7160e01b600052603260045260246000fd5b60006020828403121561426157600080fd5b815165ffffffffffff8116811461143e57600080fd5b60808152600061428a608083018761405c565b828103602084015261429c8187613d05565b905082810360408401526142b08186614095565b91505082606083015295945050505050565b601f82111561430857600081815260208120601f850160051c810160208610156142e95750805b601f850160051c820191505b81811015611e2f578281556001016142f5565b505050565b81516001600160401b0381111561432657614326613625565b61433a816143348454613fc8565b846142c2565b602080601f83116001811461436f57600084156143575750858301515b600019600386901b1c1916600185901b178555611e2f565b600085815260208120601f198616915b8281101561439e5788860151825594840194600190910190840161437f565b50858210156143bc5787850151600019600388901b60f8161c191681555b5050505050600190811b01905550565b84815260ff8416602082015282604082015260806060820152600061104760808301846137d3565b85815260ff8516602082015283604082015260a06060820152600061441c60a08301856137d3565b828103608084015261442e81856137d3565b98975050505050505050565b60006001820161444c5761444c614190565b5060010190565b60006020828403121561446557600080fd5b8151801515811461143e57600080fd5b60208082526021908201527f476f7665726e6f723a20696e76616c69642070726f706f73616c206c656e67746040820152600d60fb1b606082015260800190565b60006101208b8352602060018060a01b038c16818501528160408501526144df8285018c61405c565b915083820360608501526144f3828b613d05565b915083820360808501528189518084528284019150828160051b850101838c0160005b8381101561454457601f198784030185526145328383516137d3565b94860194925090850190600101614516565b505086810360a0880152614558818c614095565b9450505050508560c08401528460e084015282810361010084015261457d81856137d3565b9c9b505050505050505050505050565b60008160001904831182151516156145a7576145a7614190565b500290565b634e487b7160e01b600052601260045260246000fd5b6000826145df57634e487b7160e01b600052601260045260246000fd5b500490565b80516020808301519190811015613ffc5760001960209190910360031b1b1691905056fe476f7665726e6f723a2072656c617920726576657274656420776974686f7574206d657373616765a26469706673582212209c62d1401c5b155bd6e218c16bcedcb2c7282b1233b30c72e452e40bd8a90c7b64736f6c63430008100033",
    "linkReferences": {}
  },
  "methodIdentifiers": {
    "BALLOT_TYPEHASH()": "deaaa7cc",
    "CLOCK_MODE()": "4bf5d7e9",
    "COUNTING_MODE()": "dd4e2ba5",
    "EXTENDED_BALLOT_TYPEHASH()": "2fe3e261",
    "cancel(address[],uint256[],bytes[],bytes32)": "452115d6",
    "castVote(uint256,uint8)": "56781388",
    "castVoteBySig(uint256,uint8,uint8,bytes32,bytes32)": "3bccf4fd",
    "castVoteWithReason(uint256,uint8,string)": "7b3c71d3",
    "castVoteWithReasonAndParams(uint256,uint8,string,bytes)": "5f398a14",
    "castVoteWithReasonAndParamsBySig(uint256,uint8,string,bytes,uint8,bytes32,bytes32)": "03420181",
    "clock()": "91ddadf4",
    "eip712Domain()": "84b0196e",
    "execute(address[],uint256[],bytes[],bytes32)": "2656227d",
    "getVotes(address,uint256)": "eb9019d4",
    "getVotesWithParams(address,uint256,bytes)": "9a802a6d",
    "hasVoted(uint256,address)": "43859632",
    "hashProposal(address[],uint256[],bytes[],bytes32)": "c59057e4",
    "name()": "06fdde03",
    "onERC1155BatchReceived(address,address,uint256[],uint256[],bytes)": "bc197c81",
    "onERC1155Received(address,address,uint256,uint256,bytes)": "f23a6e61",
    "onERC721Received(address,address,uint256,bytes)": "150b7a02",
    "proposalDeadline(uint256)": "c01f9e37",
    "proposalEta(uint256)": "ab58fb8e",
    "proposalSnapshot(uint256)": "2d63f693",
    "proposalThreshold()": "b58131b0",
    "proposalVotes(uint256)": "544ffc9c",
    "propose(address[],uint256[],bytes[],string)": "7d5e81e2",
    "queue(address[],uint256[],bytes[],bytes32)": "160cbed7",
    "quorum(uint256)": "f8ce560a",
    "quorumDenominator()": "97c3d334",
    "quorumNumerator()": "a7713a70",
    "quorumNumerator(uint256)": "60c4247f",
    "relay(address,uint256,bytes)": "c28bc2fa",
    "setProposalThreshold(uint256)": "ece40cc1",
    "setVotingDelay(uint256)": "70b0f660",
    "setVotingPeriod(uint256)": "ea0217cf",
    "state(uint256)": "3e4f49e6",
    "supportsInterface(bytes4)": "01ffc9a7",
    "timelock()": "d33219b4",
    "token()": "fc0c546a",
    "updateQuorumNumerator(uint256)": "06f3f9e6",
    "updateTimelock(address)": "a890c910",
    "version()": "54fd4d50",
    "votingDelay()": "3932abb1",
    "votingPeriod()": "02a251a3"
  },
  "id": 129
}