{
  "abi": [
    {
      "inputs": [],
      "stateMutability": "nonpayable",
      "type": "constructor"
    },
    {
      "anonymous": false,
      "inputs": [
        {
          "indexed": true,
          "internalType": "address",
          "name": "delegatee",
          "type": "address"
        },
        {
          "indexed": true,
          "internalType": "uint256",
          "name": "windowIndex",
          "type": "uint256"
        },
        {
          "indexed": true,
          "internalType": "address",
          "name": "account",
          "type": "address"
        },
        {
          "indexed": false,
          "internalType": "uint256",
          "name": "accountIndex",
          "type": "uint256"
        },
        {
          "indexed": false,
          "internalType": "uint256",
          "name": "rewardAmount",
          "type": "uint256"
        },
        {
          "indexed": false,
          "internalType": "address",
          "name": "rewardToken",
          "type": "address"
        }
      ],
      "name": "ClaimDelegated",
      "type": "event"
    },
    {
      "anonymous": false,
      "inputs": [
        {
          "indexed": true,
          "internalType": "address",
          "name": "delegate",
          "type": "address"
        },
        {
          "indexed": true,
          "internalType": "address",
          "name": "token",
          "type": "address"
        },
        {
          "indexed": false,
          "internalType": "uint8[]",
          "name": "windowIndexes",
          "type": "uint8[]"
        },
        {
          "indexed": false,
          "internalType": "uint16[]",
          "name": "accountIndexes",
          "type": "uint16[]"
        }
      ],
      "name": "ClaimDelegatedMulti",
      "type": "event"
    },
    {
      "anonymous": false,
      "inputs": [
        {
          "indexed": true,
          "internalType": "address",
          "name": "caller",
          "type": "address"
        },
        {
          "indexed": true,
          "internalType": "uint256",
          "name": "windowIndex",
          "type": "uint256"
        },
        {
          "indexed": true,
          "internalType": "address",
          "name": "account",
          "type": "address"
        },
        {
          "indexed": false,
          "internalType": "uint256",
          "name": "accountIndex",
          "type": "uint256"
        },
        {
          "indexed": false,
          "internalType": "uint256",
          "name": "rewardAmount",
          "type": "uint256"
        },
        {
          "indexed": false,
          "internalType": "address",
          "name": "rewardToken",
          "type": "address"
        }
      ],
      "name": "Claimed",
      "type": "event"
    },
    {
      "anonymous": false,
      "inputs": [
        {
          "indexed": true,
          "internalType": "uint256",
          "name": "windowIndex",
          "type": "uint256"
        },
        {
          "indexed": true,
          "internalType": "address",
          "name": "owner",
          "type": "address"
        },
        {
          "indexed": false,
          "internalType": "uint256",
          "name": "rewardAmount",
          "type": "uint256"
        },
        {
          "indexed": true,
          "internalType": "address",
          "name": "rewardToken",
          "type": "address"
        }
      ],
      "name": "CreatedWindow",
      "type": "event"
    },
    {
      "anonymous": false,
      "inputs": [
        {
          "indexed": true,
          "internalType": "address",
          "name": "user",
          "type": "address"
        },
        {
          "indexed": true,
          "internalType": "address",
          "name": "delegate",
          "type": "address"
        }
      ],
      "name": "DelegateAdded",
      "type": "event"
    },
    {
      "anonymous": false,
      "inputs": [
        {
          "indexed": true,
          "internalType": "address",
          "name": "user",
          "type": "address"
        },
        {
          "indexed": true,
          "internalType": "address",
          "name": "delegate",
          "type": "address"
        }
      ],
      "name": "DelegateRemoved",
      "type": "event"
    },
    {
      "anonymous": false,
      "inputs": [
        {
          "indexed": true,
          "internalType": "address",
          "name": "delegate",
          "type": "address"
        },
        {
          "indexed": false,
          "internalType": "bool",
          "name": "whitelisted",
          "type": "bool"
        }
      ],
      "name": "DelegateWhitelistChanged",
      "type": "event"
    },
    {
      "anonymous": false,
      "inputs": [
        {
          "indexed": true,
          "internalType": "uint256",
          "name": "windowIndex",
          "type": "uint256"
        },
        {
          "indexed": true,
          "internalType": "address",
          "name": "owner",
          "type": "address"
        }
      ],
      "name": "DeleteWindow",
      "type": "event"
    },
    {
      "anonymous": false,
      "inputs": [
        {
          "indexed": false,
          "internalType": "uint8",
          "name": "version",
          "type": "uint8"
        }
      ],
      "name": "Initialized",
      "type": "event"
    },
    {
      "anonymous": false,
      "inputs": [
        {
          "indexed": true,
          "internalType": "uint256",
          "name": "lockBlock",
          "type": "uint256"
        }
      ],
      "name": "LockSet",
      "type": "event"
    },
    {
      "anonymous": false,
      "inputs": [
        {
          "indexed": true,
          "internalType": "address",
          "name": "previousOwner",
          "type": "address"
        },
        {
          "indexed": true,
          "internalType": "address",
          "name": "newOwner",
          "type": "address"
        }
      ],
      "name": "OwnershipTransferred",
      "type": "event"
    },
    {
      "anonymous": false,
      "inputs": [
        {
          "indexed": false,
          "internalType": "address",
          "name": "account",
          "type": "address"
        }
      ],
      "name": "Paused",
      "type": "event"
    },
    {
      "anonymous": false,
      "inputs": [
        {
          "indexed": false,
          "internalType": "address",
          "name": "account",
          "type": "address"
        }
      ],
      "name": "Unpaused",
      "type": "event"
    },
    {
      "anonymous": false,
      "inputs": [
        {
          "indexed": true,
          "internalType": "address",
          "name": "owner",
          "type": "address"
        },
        {
          "indexed": false,
          "internalType": "uint256",
          "name": "amount",
          "type": "uint256"
        },
        {
          "indexed": true,
          "internalType": "address",
          "name": "token",
          "type": "address"
        }
      ],
      "name": "WithdrawRewards",
      "type": "event"
    },
    {
      "inputs": [
        {
          "components": [
            {
              "internalType": "uint256",
              "name": "windowIndex",
              "type": "uint256"
            },
            {
              "internalType": "uint256",
              "name": "accountIndex",
              "type": "uint256"
            },
            {
              "internalType": "uint256",
              "name": "amount",
              "type": "uint256"
            },
            {
              "internalType": "address",
              "name": "token",
              "type": "address"
            },
            {
              "internalType": "bytes32[]",
              "name": "merkleProof",
              "type": "bytes32[]"
            },
            {
              "internalType": "address",
              "name": "account",
              "type": "address"
            }
          ],
          "internalType": "struct IMerkleDistributorCore.Claim",
          "name": "_claim",
          "type": "tuple"
        }
      ],
      "name": "claim",
      "outputs": [],
      "stateMutability": "nonpayable",
      "type": "function"
    },
    {
      "inputs": [
        {
          "components": [
            {
              "internalType": "uint256",
              "name": "windowIndex",
              "type": "uint256"
            },
            {
              "internalType": "uint256",
              "name": "accountIndex",
              "type": "uint256"
            },
            {
              "internalType": "uint256",
              "name": "amount",
              "type": "uint256"
            },
            {
              "internalType": "address",
              "name": "token",
              "type": "address"
            },
            {
              "internalType": "bytes32[]",
              "name": "merkleProof",
              "type": "bytes32[]"
            },
            {
              "internalType": "address",
              "name": "account",
              "type": "address"
            }
          ],
          "internalType": "struct IMerkleDistributorCore.Claim",
          "name": "_claim",
          "type": "tuple"
        }
      ],
      "name": "claimDelegated",
      "outputs": [],
      "stateMutability": "nonpayable",
      "type": "function"
    },
    {
      "inputs": [
        {
          "components": [
            {
              "internalType": "uint256",
              "name": "windowIndex",
              "type": "uint256"
            },
            {
              "internalType": "uint256",
              "name": "accountIndex",
              "type": "uint256"
            },
            {
              "internalType": "uint256",
              "name": "amount",
              "type": "uint256"
            },
            {
              "internalType": "address",
              "name": "token",
              "type": "address"
            },
            {
              "internalType": "bytes32[]",
              "name": "merkleProof",
              "type": "bytes32[]"
            },
            {
              "internalType": "address",
              "name": "account",
              "type": "address"
            }
          ],
          "internalType": "struct IMerkleDistributorCore.Claim[]",
          "name": "claims",
          "type": "tuple[]"
        }
      ],
      "name": "claimMulti",
      "outputs": [],
      "stateMutability": "nonpayable",
      "type": "function"
    },
    {
      "inputs": [
        {
          "components": [
            {
              "internalType": "uint256",
              "name": "windowIndex",
              "type": "uint256"
            },
            {
              "internalType": "uint256",
              "name": "accountIndex",
              "type": "uint256"
            },
            {
              "internalType": "uint256",
              "name": "amount",
              "type": "uint256"
            },
            {
              "internalType": "address",
              "name": "token",
              "type": "address"
            },
            {
              "internalType": "bytes32[]",
              "name": "merkleProof",
              "type": "bytes32[]"
            },
            {
              "internalType": "address",
              "name": "account",
              "type": "address"
            }
          ],
          "internalType": "struct IMerkleDistributorCore.Claim[]",
          "name": "claims",
          "type": "tuple[]"
        }
      ],
      "name": "claimMultiDelegated",
      "outputs": [],
      "stateMutability": "nonpayable",
      "type": "function"
    },
    {
      "inputs": [
        {
          "internalType": "address",
          "name": "",
          "type": "address"
        }
      ],
      "name": "delegations",
      "outputs": [
        {
          "internalType": "address",
          "name": "",
          "type": "address"
        }
      ],
      "stateMutability": "view",
      "type": "function"
    },
    {
      "inputs": [
        {
          "internalType": "uint256",
          "name": "_windowIndex",
          "type": "uint256"
        }
      ],
      "name": "deleteWindow",
      "outputs": [],
      "stateMutability": "nonpayable",
      "type": "function"
    },
    {
      "inputs": [
        {
          "internalType": "uint256",
          "name": "_windowIndex",
          "type": "uint256"
        }
      ],
      "name": "getWindow",
      "outputs": [
        {
          "components": [
            {
              "internalType": "bytes32",
              "name": "merkleRoot",
              "type": "bytes32"
            },
            {
              "internalType": "uint256",
              "name": "rewardAmount",
              "type": "uint256"
            },
            {
              "internalType": "address",
              "name": "rewardToken",
              "type": "address"
            },
            {
              "internalType": "string",
              "name": "ipfsHash",
              "type": "string"
            }
          ],
          "internalType": "struct IMerkleDistributorCore.Window",
          "name": "",
          "type": "tuple"
        }
      ],
      "stateMutability": "view",
      "type": "function"
    },
    {
      "inputs": [
        {
          "internalType": "address",
          "name": "_user",
          "type": "address"
        }
      ],
      "name": "hasDelegatedRewards",
      "outputs": [
        {
          "internalType": "bool",
          "name": "",
          "type": "bool"
        }
      ],
      "stateMutability": "view",
      "type": "function"
    },
    {
      "inputs": [],
      "name": "initialize",
      "outputs": [],
      "stateMutability": "nonpayable",
      "type": "function"
    },
    {
      "inputs": [
        {
          "internalType": "uint256",
          "name": "_windowIndex",
          "type": "uint256"
        },
        {
          "internalType": "uint256",
          "name": "_accountIndex",
          "type": "uint256"
        }
      ],
      "name": "isClaimed",
      "outputs": [
        {
          "internalType": "bool",
          "name": "",
          "type": "bool"
        }
      ],
      "stateMutability": "view",
      "type": "function"
    },
    {
      "inputs": [
        {
          "internalType": "address",
          "name": "_user",
          "type": "address"
        },
        {
          "internalType": "address",
          "name": "_delegate",
          "type": "address"
        }
      ],
      "name": "isRewardsDelegate",
      "outputs": [
        {
          "internalType": "bool",
          "name": "",
          "type": "bool"
        }
      ],
      "stateMutability": "view",
      "type": "function"
    },
    {
      "inputs": [],
      "name": "lockBlock",
      "outputs": [
        {
          "internalType": "uint256",
          "name": "",
          "type": "uint256"
        }
      ],
      "stateMutability": "view",
      "type": "function"
    },
    {
      "inputs": [
        {
          "internalType": "uint256",
          "name": "",
          "type": "uint256"
        }
      ],
      "name": "merkleWindows",
      "outputs": [
        {
          "internalType": "bytes32",
          "name": "merkleRoot",
          "type": "bytes32"
        },
        {
          "internalType": "uint256",
          "name": "rewardAmount",
          "type": "uint256"
        },
        {
          "internalType": "address",
          "name": "rewardToken",
          "type": "address"
        },
        {
          "internalType": "string",
          "name": "ipfsHash",
          "type": "string"
        }
      ],
      "stateMutability": "view",
      "type": "function"
    },
    {
      "inputs": [],
      "name": "nextCreatedIndex",
      "outputs": [
        {
          "internalType": "uint256",
          "name": "",
          "type": "uint256"
        }
      ],
      "stateMutability": "view",
      "type": "function"
    },
    {
      "inputs": [],
      "name": "owner",
      "outputs": [
        {
          "internalType": "address",
          "name": "",
          "type": "address"
        }
      ],
      "stateMutability": "view",
      "type": "function"
    },
    {
      "inputs": [],
      "name": "pause",
      "outputs": [],
      "stateMutability": "nonpayable",
      "type": "function"
    },
    {
      "inputs": [],
      "name": "paused",
      "outputs": [
        {
          "internalType": "bool",
          "name": "",
          "type": "bool"
        }
      ],
      "stateMutability": "view",
      "type": "function"
    },
    {
      "inputs": [],
      "name": "removeRewardsDelegate",
      "outputs": [],
      "stateMutability": "nonpayable",
      "type": "function"
    },
    {
      "inputs": [],
      "name": "renounceOwnership",
      "outputs": [],
      "stateMutability": "nonpayable",
      "type": "function"
    },
    {
      "inputs": [
        {
          "internalType": "uint256",
          "name": "_lock",
          "type": "uint256"
        }
      ],
      "name": "setLock",
      "outputs": [],
      "stateMutability": "nonpayable",
      "type": "function"
    },
    {
      "inputs": [
        {
          "internalType": "address",
          "name": "_delegate",
          "type": "address"
        }
      ],
      "name": "setRewardsDelegate",
      "outputs": [],
      "stateMutability": "nonpayable",
      "type": "function"
    },
    {
      "inputs": [
        {
          "internalType": "address",
          "name": "_delegate",
          "type": "address"
        },
        {
          "internalType": "bool",
          "name": "_whitelist",
          "type": "bool"
        }
      ],
      "name": "setWhitelisted",
      "outputs": [],
      "stateMutability": "nonpayable",
      "type": "function"
    },
    {
      "inputs": [
        {
          "internalType": "uint256",
          "name": "_rewardAmount",
          "type": "uint256"
        },
        {
          "internalType": "address",
          "name": "_rewardToken",
          "type": "address"
        },
        {
          "internalType": "bytes32",
          "name": "_merkleRoot",
          "type": "bytes32"
        },
        {
          "internalType": "string",
          "name": "_ipfsHash",
          "type": "string"
        }
      ],
      "name": "setWindow",
      "outputs": [],
      "stateMutability": "nonpayable",
      "type": "function"
    },
    {
      "inputs": [
        {
          "internalType": "address",
          "name": "newOwner",
          "type": "address"
        }
      ],
      "name": "transferOwnership",
      "outputs": [],
      "stateMutability": "nonpayable",
      "type": "function"
    },
    {
      "inputs": [],
      "name": "unpause",
      "outputs": [],
      "stateMutability": "nonpayable",
      "type": "function"
    },
    {
      "inputs": [
        {
          "components": [
            {
              "internalType": "uint256",
              "name": "windowIndex",
              "type": "uint256"
            },
            {
              "internalType": "uint256",
              "name": "accountIndex",
              "type": "uint256"
            },
            {
              "internalType": "uint256",
              "name": "amount",
              "type": "uint256"
            },
            {
              "internalType": "address",
              "name": "token",
              "type": "address"
            },
            {
              "internalType": "bytes32[]",
              "name": "merkleProof",
              "type": "bytes32[]"
            },
            {
              "internalType": "address",
              "name": "account",
              "type": "address"
            }
          ],
          "internalType": "struct IMerkleDistributorCore.Claim",
          "name": "_claim",
          "type": "tuple"
        }
      ],
      "name": "verifyClaim",
      "outputs": [
        {
          "internalType": "bool",
          "name": "valid",
          "type": "bool"
        }
      ],
      "stateMutability": "view",
      "type": "function"
    },
    {
      "inputs": [
        {
          "internalType": "address",
          "name": "",
          "type": "address"
        }
      ],
      "name": "whitelistedDelegates",
      "outputs": [
        {
          "internalType": "bool",
          "name": "",
          "type": "bool"
        }
      ],
      "stateMutability": "view",
      "type": "function"
    },
    {
      "inputs": [
        {
          "internalType": "address",
          "name": "_rewardToken",
          "type": "address"
        },
        {
          "internalType": "uint256",
          "name": "_amount",
          "type": "uint256"
        }
      ],
      "name": "withdrawRewards",
      "outputs": [],
      "stateMutability": "nonpayable",
      "type": "function"
    }
  ],
  "bytecode": {
    "object": "0x60806040523480156200001157600080fd5b506200001c62000022565b620000e3565b600054610100900460ff16156200008f5760405162461bcd60e51b815260206004820152602760248201527f496e697469616c697a61626c653a20636f6e747261637420697320696e697469604482015266616c697a696e6760c81b606482015260840160405180910390fd5b60005460ff90811614620000e1576000805460ff191660ff9081179091556040519081527f7f26b83ff96e1f2b6a682f133852f6798a09c465da95921460cefb38474024989060200160405180910390a15b565b61256780620000f36000396000f3fe608060405234801561001057600080fd5b50600436106101c45760003560e01c8063891b0d71116100f9578063d3e1574711610097578063e0a5965811610071578063e0a59658146103e1578063e2e441a3146103f4578063f2fde38b146103fd578063f364c90c1461041057600080fd5b8063d3e15747146103a8578063d4511868146103bb578063d6ef7af0146103ce57600080fd5b80639dd6af1b116100d35780639dd6af1b146103465780639f5a967214610359578063a89a6ce81461036c578063bffe34861461037f57600080fd5b8063891b0d71146102eb5780638da5cb5b1461030e5780639281aa0b1461033357600080fd5b80635c975abb1161016657806373d6125e1161014057806373d6125e1461028a5780638129fc1c146102ad5780638456cb59146102b557806388a586e1146102bd57600080fd5b80635c975abb146102645780636c0aa8d21461026f578063715018a61461028257600080fd5b80633f4ba83a116101a25780633f4ba83a1461020f5780634114d2ee146102175780634a63b3d31461022a5780634ade6d5d1461024157600080fd5b806311db149f146101c957806323928cdb146101de5780632ee70dc3146101e6575b600080fd5b6101dc6101d7366004611e86565b610423565b005b6101dc610586565b6101f96101f4366004611ebb565b6105df565b6040516102069190611f24565b60405180910390f35b6101dc6106dc565b6101dc610225366004611f65565b6106ee565b61023360ce5481565b604051908152602001610206565b61025461024f366004612016565b61096c565b6040519015158152602001610206565b60655460ff16610254565b6101dc61027d366004611f65565b610993565b6101dc610cfa565b610254610298366004612049565b60ca6020526000908152604090205460ff1681565b6101dc610d0c565b6101dc610e1c565b6102546102cb366004612049565b6001600160a01b03908116600090815260c9602052604090205416151590565b6102fe6102f9366004611ebb565b610e2c565b6040516102069493929190612064565b6033546001600160a01b03165b6040516001600160a01b039091168152602001610206565b6101dc6103413660046120a9565b610ee9565b610254610354366004611e86565b610f50565b6101dc610367366004611ebb565b61100a565b6101dc61037a366004611e86565b61108c565b61031b61038d366004612049565b60c9602052600090815260409020546001600160a01b031681565b6101dc6103b6366004611ebb565b61115c565b6101dc6103c93660046120e0565b611197565b6101dc6103dc366004612199565b6112a1565b6101dc6103ef366004612049565b611301565b61023360cd5481565b6101dc61040b366004612049565b611390565b61025461041e3660046121c3565b611406565b61042b611451565b60ce54158061043b57504360ce54105b6104605760405162461bcd60e51b8152600401610457906121e5565b60405180910390fd5b610468611497565b33600090815260ca602052604090205460ff166104975760405162461bcd60e51b815260040161045790612214565b60a08101516104a6813361096c565b6104ea5760405162461bcd60e51b815260206004820152601560248201527410bbb434ba32b634b9ba32b2103337b9103ab9b2b960591b6044820152606401610457565b6104f482336114f0565b8160a001516001600160a01b0316826000015161050e3390565b6001600160a01b03167f3640ae807a520ec0bc4697693f4aa46578908b1271fe53e6aba6c958deca46dd8560200151866040015187606001516040516105709392919092835260208301919091526001600160a01b0316604082015260600190565b60405180910390a4506105836001609755565b50565b33600081815260c9602052604080822080546001600160a01b0319811690915590516001600160a01b0390911692839290917fe8514dd4be968431135580c26314ec35afafc8178268603f99625584960d9c169190a350565b604080516080808201835260008083526020808401829052838501829052606080850181905286835260cb825291859020855193840186528054845260018101549184019190915260028101546001600160a01b03169483019490945260038401805493949293918401916106539061223a565b80601f016020809104026020016040519081016040528092919081815260200182805461067f9061223a565b80156106cc5780601f106106a1576101008083540402835291602001916106cc565b820191906000526020600020905b8154815290600101906020018083116106af57829003601f168201915b5050505050815250509050919050565b6106e461156a565b6106ec6115c4565b565b60ce5415806106fe57504360ce54105b61071a5760405162461bcd60e51b8152600401610457906121e5565b610722611497565b600081511161075f5760405162461bcd60e51b81526020600482015260096024820152684e6f20436c61696d7360b81b6044820152606401610457565b6000808260008151811061077557610775612274565b602002602001015160600151905060005b835181101561090e5760008482815181106107a3576107a3612274565b602002602001015190506107b43390565b6001600160a01b03168160a001516001600160a01b03161461080d5760405162461bcd60e51b815260206004820152601260248201527121b630b4b6b0b73a10109e9029b2b73232b960711b6044820152606401610457565b826001600160a01b031681606001516001600160a01b0316146108645760405162461bcd60e51b815260206004820152600f60248201526e4d756c7469706c6520546f6b656e7360881b6044820152606401610457565b61086d81611616565b604081015161087c90856122a0565b60a082015182519195506001600160a01b031690336001600160a01b03167f18bdb6adb84039f917775d1fb8e7b7e7737ad5915d12eef0e4654b85e18d07b48460200151856040015186606001516040516108f39392919092835260208301919091526001600160a01b0316604082015260600190565b60405180910390a45080610906816122b3565b915050610786565b506000821161094c5760405162461bcd60e51b815260206004820152600a6024820152694e6f205265776172647360b01b6044820152606401610457565b6109606001600160a01b03821633846116cc565b50506105836001609755565b6001600160a01b03828116600090815260c960205260409020548116908216145b92915050565b61099b611451565b60ce5415806109ab57504360ce54105b6109c75760405162461bcd60e51b8152600401610457906121e5565b6109cf611497565b33600090815260ca602052604090205460ff166109fe5760405162461bcd60e51b815260040161045790612214565b805180610a395760405162461bcd60e51b81526020600482015260096024820152684e6f20436c61696d7360b81b6044820152606401610457565b60008083600081518110610a4f57610a4f612274565b602002602001015160600151905060008367ffffffffffffffff811115610a7857610a78611cf5565b604051908082528060200260200182016040528015610aa1578160200160208202803683370190505b50905060008467ffffffffffffffff811115610abf57610abf611cf5565b604051908082528060200260200182016040528015610ae8578160200160208202803683370190505b50905060005b85811015610c4c576000878281518110610b0a57610b0a612274565b60200260200101519050846001600160a01b031681606001516001600160a01b031614610b6b5760405162461bcd60e51b815260206004820152600f60248201526e4d756c7469706c6520546f6b656e7360881b6044820152606401610457565b610b7a8160a0015161024f3390565b610bbe5760405162461bcd60e51b815260206004820152601560248201527410bbb434ba32b634b9ba32b2103337b9103ab9b2b960591b6044820152606401610457565b610bc781611616565b6040810151610bd690876122a0565b9550610be58160000151611734565b848381518110610bf757610bf7612274565b60ff909216602092830291909101820152810151610c1490611799565b838381518110610c2657610c26612274565b61ffff909216602092830291909101909101525080610c44816122b3565b915050610aee565b5060008411610c8a5760405162461bcd60e51b815260206004820152600a6024820152694e6f205265776172647360b01b6044820152606401610457565b610c9e6001600160a01b03841633866116cc565b6001600160a01b038316336001600160a01b03167f71c65b912fe08d1b1795243b1bea9165b7cec11f16b2065f32528386a17e53fd8484604051610ce39291906122cc565b60405180910390a350505050506105836001609755565b610d0261156a565b6106ec60006117fc565b600054610100900460ff1615808015610d2c5750600054600160ff909116105b80610d465750303b158015610d46575060005460ff166001145b610da95760405162461bcd60e51b815260206004820152602e60248201527f496e697469616c697a61626c653a20636f6e747261637420697320616c72656160448201526d191e481a5b9a5d1a585b1a5e995960921b6064820152608401610457565b6000805460ff191660011790558015610dcc576000805461ff0019166101001790555b610dd461184e565b8015610583576000805461ff0019169055604051600181527f7f26b83ff96e1f2b6a682f133852f6798a09c465da95921460cefb38474024989060200160405180910390a150565b610e2461156a565b6106ec61187d565b60cb602052600090815260409020805460018201546002830154600384018054939492936001600160a01b039092169291610e669061223a565b80601f0160208091040260200160405190810160405280929190818152602001828054610e929061223a565b8015610edf5780601f10610eb457610100808354040283529160200191610edf565b820191906000526020600020905b815481529060010190602001808311610ec257829003601f168201915b5050505050905084565b610ef161156a565b6001600160a01b038216600081815260ca6020908152604091829020805460ff191685151590811790915591519182527fad9c06a74eba234a92f7204a4c63a48c1ebc0b6a1bd2dc12d341c04b6fe19923910160405180910390a25050565b6000808260a001518360200151846000015185604001518660600151604051602001610fab9594939291906001600160a01b039586168152602081019490945260408401929092526060830152909116608082015260a00190565b60408051601f198184030181528282528051602091820120908301520160408051601f19818403018152918152815160209283012060808601518651600090815260cb909452919092205491925061100391836118ba565b9392505050565b61101261156a565b600081815260cb60205260408120818155600181018290556002810180546001600160a01b03191690559061104a6003830182611cab565b50506110533390565b6001600160a01b0316817f8fea52000ecb40f2262c672496dfadccc9d6290439bac487e084de8c57682d6660405160405180910390a350565b60ce54158061109c57504360ce54105b6110b85760405162461bcd60e51b8152600401610457906121e5565b6110c0611497565b6110ce818260a001516114f0565b8060a001516001600160a01b031681600001516110e83390565b6001600160a01b03167f18bdb6adb84039f917775d1fb8e7b7e7737ad5915d12eef0e4654b85e18d07b484602001518560400151866060015160405161114a9392919092835260208301919091526001600160a01b0316604082015260600190565b60405180910390a46105836001609755565b61116461156a565b60ce81905560405181907fc96ac8f962bbb0ee952304839108c72982a49173fa73e62ede62c943e10f574290600090a250565b61119f61156a565b60cd80549060019060006111b383856122a0565b90915550506040805160808101825284815260208082018881526001600160a01b0388811684860190815260608501888152600088815260cb90955295909320845181559151600183015591516002820180546001600160a01b03191691909316179091559151909190600382019061122c908261239c565b5090505061124c61123a3390565b6001600160a01b0386169030886118d0565b6001600160a01b038416336001600160a01b0316827f6785e968a284c8685ff9cf6eaa341524d5b9764def1cb1bc6e0dc1d62c4aeb4b8860405161129291815260200190565b60405180910390a45050505050565b6112a961156a565b6112bd6001600160a01b03831633836116cc565b6040518181526001600160a01b0383169033907ffb0872526787ac1be379aa37eaa9913b47d6d50c3f5fe5ec67ffe4282493670e9060200160405180910390a35050565b6001600160a01b038116600090815260ca602052604090205460ff166113395760405162461bcd60e51b815260040161045790612214565b33600081815260c9602052604080822080546001600160a01b0319166001600160a01b03861690811790915590519092917f12dade473695d73bd34e031c850d5e815fa17a42b1b5ba13ff72de2497c5e30991a350565b61139861156a565b6001600160a01b0381166113fd5760405162461bcd60e51b815260206004820152602660248201527f4f776e61626c653a206e6577206f776e657220697320746865207a65726f206160448201526564647265737360d01b6064820152608401610457565b610583816117fc565b60008061141561010084612472565b9050600061142561010085612486565b600095865260cc602090815260408088209488529390529190942054600190911b908116149392505050565b60655460ff16156106ec5760405162461bcd60e51b815260206004820152601060248201526f14185d5cd8589b194e881c185d5cd95960821b6044820152606401610457565b6002609754036114e95760405162461bcd60e51b815260206004820152601f60248201527f5265656e7472616e637947756172643a207265656e7472616e742063616c6c006044820152606401610457565b6002609755565b6114f982611616565b60008260400151116115405760405162461bcd60e51b815260206004820152601060248201526f4e6f7468696e6720746f20436c61696d60801b6044820152606401610457565b61156681836040015184606001516001600160a01b03166116cc9092919063ffffffff16565b5050565b6033546001600160a01b031633146106ec5760405162461bcd60e51b815260206004820181905260248201527f4f776e61626c653a2063616c6c6572206973206e6f7420746865206f776e65726044820152606401610457565b6115cc61190e565b6065805460ff191690557f5db9ee0a495bf2e6ff9c91a7834c1ba4fdd244a5e8aa4e537bd38aeae4b073aa335b6040516001600160a01b03909116815260200160405180910390a1565b61161f81610f50565b61165b5760405162461bcd60e51b815260206004820152600d60248201526c496e76616c696420436c61696d60981b6044820152606401610457565b61166d81600001518260200151611406565b156116ba5760405162461bcd60e51b815260206004820152601a60248201527f416c726561647920436c61696d656420666f722057696e646f770000000000006044820152606401610457565b61058381600001518260200151611957565b6040516001600160a01b03831660248201526044810182905261172f90849063a9059cbb60e01b906064015b60408051601f198184030181529190526020810180516001600160e01b03166001600160e01b0319909316929092179091526119a0565b505050565b600060ff8211156117955760405162461bcd60e51b815260206004820152602560248201527f53616665436173743a2076616c756520646f65736e27742066697420696e2038604482015264206269747360d81b6064820152608401610457565b5090565b600061ffff8211156117955760405162461bcd60e51b815260206004820152602660248201527f53616665436173743a2076616c756520646f65736e27742066697420696e203160448201526536206269747360d01b6064820152608401610457565b603380546001600160a01b038381166001600160a01b0319831681179093556040519116919082907f8be0079c531659141344cd1fd0a4f28419497f9722a3daafe3b4186f6b6457e090600090a35050565b600054610100900460ff166118755760405162461bcd60e51b81526004016104579061249a565b6106ec611a72565b611885611451565b6065805460ff191660011790557f62e78cea01bee320cd4e420270b5ea74000d11b0c9f74754ebdbfc544b05a2586115f93390565b6000826118c78584611aa2565b14949350505050565b6040516001600160a01b03808516602483015283166044820152606481018290526119089085906323b872dd60e01b906084016116f8565b50505050565b60655460ff166106ec5760405162461bcd60e51b815260206004820152601460248201527314185d5cd8589b194e881b9bdd081c185d5cd95960621b6044820152606401610457565b600061196561010083612472565b9050600061197561010084612486565b600094855260cc60209081526040808720948752939052919093208054600190921b90911790555050565b60006119f5826040518060400160405280602081526020017f5361666545524332303a206c6f772d6c6576656c2063616c6c206661696c6564815250856001600160a01b0316611aef9092919063ffffffff16565b80519091501561172f5780806020019051810190611a1391906124e5565b61172f5760405162461bcd60e51b815260206004820152602a60248201527f5361666545524332303a204552433230206f7065726174696f6e20646964206e6044820152691bdd081cdd58d8d9595960b21b6064820152608401610457565b600054610100900460ff16611a995760405162461bcd60e51b81526004016104579061249a565b6106ec336117fc565b600081815b8451811015611ae757611ad382868381518110611ac657611ac6612274565b6020026020010151611b06565b915080611adf816122b3565b915050611aa7565b509392505050565b6060611afe8484600085611b32565b949350505050565b6000818310611b22576000828152602084905260409020611003565b5060009182526020526040902090565b606082471015611b935760405162461bcd60e51b815260206004820152602660248201527f416464726573733a20696e73756666696369656e742062616c616e636520666f6044820152651c8818d85b1b60d21b6064820152608401610457565b600080866001600160a01b03168587604051611baf9190612502565b60006040518083038185875af1925050503d8060008114611bec576040519150601f19603f3d011682016040523d82523d6000602084013e611bf1565b606091505b5091509150611c0287838387611c0d565b979650505050505050565b60608315611c7c578251600003611c75576001600160a01b0385163b611c755760405162461bcd60e51b815260206004820152601d60248201527f416464726573733a2063616c6c20746f206e6f6e2d636f6e74726163740000006044820152606401610457565b5081611afe565b611afe8383815115611c915781518083602001fd5b8060405162461bcd60e51b8152600401610457919061251e565b508054611cb79061223a565b6000825580601f10611cc7575050565b601f01602090049060005260206000209081019061058391905b808211156117955760008155600101611ce1565b634e487b7160e01b600052604160045260246000fd5b60405160c0810167ffffffffffffffff81118282101715611d2e57611d2e611cf5565b60405290565b604051601f8201601f1916810167ffffffffffffffff81118282101715611d5d57611d5d611cf5565b604052919050565b80356001600160a01b0381168114611d7c57600080fd5b919050565b600067ffffffffffffffff821115611d9b57611d9b611cf5565b5060051b60200190565b600060c08284031215611db757600080fd5b611dbf611d0b565b9050813581526020808301358183015260408301356040830152611de560608401611d65565b6060830152608083013567ffffffffffffffff811115611e0457600080fd5b8301601f81018513611e1557600080fd5b8035611e28611e2382611d81565b611d34565b81815260059190911b82018301908381019087831115611e4757600080fd5b928401925b82841015611e6557833582529284019290840190611e4c565b608086015250611e7b9250505060a08301611d65565b60a082015292915050565b600060208284031215611e9857600080fd5b813567ffffffffffffffff811115611eaf57600080fd5b611afe84828501611da5565b600060208284031215611ecd57600080fd5b5035919050565b60005b83811015611eef578181015183820152602001611ed7565b50506000910152565b60008151808452611f10816020860160208601611ed4565b601f01601f19169290920160200192915050565b60208152815160208201526020820151604082015260018060a01b03604083015116606082015260006060830151608080840152611afe60a0840182611ef8565b60006020808385031215611f7857600080fd5b823567ffffffffffffffff80821115611f9057600080fd5b818501915085601f830112611fa457600080fd5b8135611fb2611e2382611d81565b81815260059190911b83018401908481019088831115611fd157600080fd5b8585015b8381101561200957803585811115611fed5760008081fd5b611ffb8b89838a0101611da5565b845250918601918601611fd5565b5098975050505050505050565b6000806040838503121561202957600080fd5b61203283611d65565b915061204060208401611d65565b90509250929050565b60006020828403121561205b57600080fd5b61100382611d65565b84815283602082015260018060a01b03831660408201526080606082015260006120916080830184611ef8565b9695505050505050565b801515811461058357600080fd5b600080604083850312156120bc57600080fd5b6120c583611d65565b915060208301356120d58161209b565b809150509250929050565b600080600080608085870312156120f657600080fd5b843593506020612107818701611d65565b935060408601359250606086013567ffffffffffffffff8082111561212b57600080fd5b818801915088601f83011261213f57600080fd5b81358181111561215157612151611cf5565b612163601f8201601f19168501611d34565b9150808252898482850101111561217957600080fd5b808484018584013760008482840101525080935050505092959194509250565b600080604083850312156121ac57600080fd5b6121b583611d65565b946020939093013593505050565b600080604083850312156121d657600080fd5b50508035926020909101359150565b602080825260159082015274111a5cdd1c9a589d5d1bdc881a5cc8131bd8dad959605a1b604082015260600190565b6020808252600c908201526b085dda1a5d195b1a5cdd195960a21b604082015260600190565b600181811c9082168061224e57607f821691505b60208210810361226e57634e487b7160e01b600052602260045260246000fd5b50919050565b634e487b7160e01b600052603260045260246000fd5b634e487b7160e01b600052601160045260246000fd5b8082018082111561098d5761098d61228a565b6000600182016122c5576122c561228a565b5060010190565b604080825283519082018190526000906020906060840190828701845b8281101561230857815160ff16845292840192908401906001016122e9565b5050508381038285015284518082528583019183019060005b8181101561234157835161ffff1683529284019291840191600101612321565b5090979650505050505050565b601f82111561172f57600081815260208120601f850160051c810160208610156123755750805b601f850160051c820191505b8181101561239457828155600101612381565b505050505050565b815167ffffffffffffffff8111156123b6576123b6611cf5565b6123ca816123c4845461223a565b8461234e565b602080601f8311600181146123ff57600084156123e75750858301515b600019600386901b1c1916600185901b178555612394565b600085815260208120601f198616915b8281101561242e5788860151825594840194600190910190840161240f565b508582101561244c5787850151600019600388901b60f8161c191681555b5050505050600190811b01905550565b634e487b7160e01b600052601260045260246000fd5b6000826124815761248161245c565b500490565b6000826124955761249561245c565b500690565b6020808252602b908201527f496e697469616c697a61626c653a20636f6e7472616374206973206e6f74206960408201526a6e697469616c697a696e6760a81b606082015260800190565b6000602082840312156124f757600080fd5b81516110038161209b565b60008251612514818460208701611ed4565b9190910192915050565b6020815260006110036020830184611ef856fea2646970667358221220677b13fd9d52f56a47263f051db80f2f4d8f9e4db6ae210751e92d212dd471ce64736f6c63430008100033",
    "linkReferences": {}
  },
  "methodIdentifiers": {
    "claim((uint256,uint256,uint256,address,bytes32[],address))": "a89a6ce8",
    "claimDelegated((uint256,uint256,uint256,address,bytes32[],address))": "11db149f",
    "claimMulti((uint256,uint256,uint256,address,bytes32[],address)[])": "4114d2ee",
    "claimMultiDelegated((uint256,uint256,uint256,address,bytes32[],address)[])": "6c0aa8d2",
    "delegations(address)": "bffe3486",
    "deleteWindow(uint256)": "9f5a9672",
    "getWindow(uint256)": "2ee70dc3",
    "hasDelegatedRewards(address)": "88a586e1",
    "initialize()": "8129fc1c",
    "isClaimed(uint256,uint256)": "f364c90c",
    "isRewardsDelegate(address,address)": "4ade6d5d",
    "lockBlock()": "4a63b3d3",
    "merkleWindows(uint256)": "891b0d71",
    "nextCreatedIndex()": "e2e441a3",
    "owner()": "8da5cb5b",
    "pause()": "8456cb59",
    "paused()": "5c975abb",
    "removeRewardsDelegate()": "23928cdb",
    "renounceOwnership()": "715018a6",
    "setLock(uint256)": "d3e15747",
    "setRewardsDelegate(address)": "e0a59658",
    "setWhitelisted(address,bool)": "9281aa0b",
    "setWindow(uint256,address,bytes32,string)": "d4511868",
    "transferOwnership(address)": "f2fde38b",
    "unpause()": "3f4ba83a",
    "verifyClaim((uint256,uint256,uint256,address,bytes32[],address))": "9dd6af1b",
    "whitelistedDelegates(address)": "73d6125e",
    "withdrawRewards(address,uint256)": "d6ef7af0"
  },
  "id": 137
}