{
  "abi": [
    {
      "inputs": [
        {
          "internalType": "address",
          "name": "_auxo",
          "type": "address"
        },
        {
          "internalType": "address",
          "name": "_prv",
          "type": "address"
        },
        {
          "internalType": "address",
          "name": "_staker",
          "type": "address"
        }
      ],
      "stateMutability": "nonpayable",
      "type": "constructor"
    },
    {
      "inputs": [],
      "name": "AUXO",
      "outputs": [
        {
          "internalType": "address",
          "name": "",
          "type": "address"
        }
      ],
      "stateMutability": "view",
      "type": "function"
    },
    {
      "inputs": [],
      "name": "PRV",
      "outputs": [
        {
          "internalType": "address",
          "name": "",
          "type": "address"
        }
      ],
      "stateMutability": "view",
      "type": "function"
    },
    {
      "inputs": [],
      "name": "Staker",
      "outputs": [
        {
          "internalType": "address",
          "name": "",
          "type": "address"
        }
      ],
      "stateMutability": "view",
      "type": "function"
    },
    {
      "inputs": [
        {
          "internalType": "uint256",
          "name": "amount",
          "type": "uint256"
        }
      ],
      "name": "convertAndStake",
      "outputs": [],
      "stateMutability": "nonpayable",
      "type": "function"
    },
    {
      "inputs": [
        {
          "internalType": "uint256",
          "name": "amount",
          "type": "uint256"
        },
        {
          "internalType": "address",
          "name": "_receiver",
          "type": "address"
        }
      ],
      "name": "convertAndStake",
      "outputs": [],
      "stateMutability": "nonpayable",
      "type": "function"
    },
    {
      "inputs": [
        {
          "internalType": "uint256",
          "name": "amount",
          "type": "uint256"
        },
        {
          "internalType": "address",
          "name": "_receiver",
          "type": "address"
        },
        {
          "internalType": "uint256",
          "name": "_deadline",
          "type": "uint256"
        },
        {
          "internalType": "uint8",
          "name": "v",
          "type": "uint8"
        },
        {
          "internalType": "bytes32",
          "name": "r",
          "type": "bytes32"
        },
        {
          "internalType": "bytes32",
          "name": "s",
          "type": "bytes32"
        }
      ],
      "name": "convertAndStakeWithSignature",
      "outputs": [],
      "stateMutability": "nonpayable",
      "type": "function"
    }
  ],
  "bytecode": {
    "object": "0x60e060405234801561001057600080fd5b50604051610f97380380610f9783398101604081905261002f91610068565b6001600160a01b0392831660805290821660a0521660c0526100ab565b80516001600160a01b038116811461006357600080fd5b919050565b60008060006060848603121561007d57600080fd5b6100868461004c565b92506100946020850161004c565b91506100a26040850161004c565b90509250925092565b60805160a05160c051610e256101726000396000818160ea015281816102b10152818161036c01528181610551015281816106160152818161089a015261095f01526000818160810152818161017f01528181610238015281816102e00152818161041f015281816104d801528181610580015281816107680152818161082101526108c901526000818161011101528181610140015281816101ae015281816103e00152818161044e015281816106b60152818161072701526107970152610e256000f3fe608060405234801561001057600080fd5b50600436106100625760003560e01c80633f2d25c11461006757806371edb84d1461007c57806395b6a93e146100bf578063b9b451b4146100d2578063e75a0747146100e5578063fb530d641461010c575b600080fd5b61007a610075366004610c92565b610133565b005b6100a37f000000000000000000000000000000000000000000000000000000000000000081565b6040516001600160a01b03909116815260200160405180910390f35b61007a6100cd366004610cc7565b6103d3565b61007a6100e0366004610cf3565b610676565b6100a37f000000000000000000000000000000000000000000000000000000000000000081565b6100a37f000000000000000000000000000000000000000000000000000000000000000081565b6101686001600160a01b037f0000000000000000000000000000000000000000000000000000000000000000163330846109c3565b60405163095ea7b360e01b81526001600160a01b037f000000000000000000000000000000000000000000000000000000000000000081166004830152602482018390527f0000000000000000000000000000000000000000000000000000000000000000169063095ea7b3906044016020604051808303816000875af11580156101f7573d6000803e3d6000fd5b505050506040513d601f19601f8201168201806040525081019061021b9190610d53565b506040516317a790f160e11b8152306004820152602481018290527f00000000000000000000000000000000000000000000000000000000000000006001600160a01b031690632f4f21e290604401600060405180830381600087803b15801561028457600080fd5b505af1158015610298573d6000803e3d6000fd5b505060405163095ea7b360e01b81526001600160a01b037f000000000000000000000000000000000000000000000000000000000000000081166004830152602482018590527f000000000000000000000000000000000000000000000000000000000000000016925063095ea7b391506044016020604051808303816000875af115801561032b573d6000803e3d6000fd5b505050506040513d601f19601f8201168201806040525081019061034f9190610d53565b506040516336efd16f60e01b8152600481018290523360248201527f00000000000000000000000000000000000000000000000000000000000000006001600160a01b0316906336efd16f90604401600060405180830381600087803b1580156103b857600080fd5b505af11580156103cc573d6000803e3d6000fd5b5050505050565b6104086001600160a01b037f0000000000000000000000000000000000000000000000000000000000000000163330856109c3565b60405163095ea7b360e01b81526001600160a01b037f000000000000000000000000000000000000000000000000000000000000000081166004830152602482018490527f0000000000000000000000000000000000000000000000000000000000000000169063095ea7b3906044016020604051808303816000875af1158015610497573d6000803e3d6000fd5b505050506040513d601f19601f820116820180604052508101906104bb9190610d53565b506040516317a790f160e11b8152306004820152602481018390527f00000000000000000000000000000000000000000000000000000000000000006001600160a01b031690632f4f21e290604401600060405180830381600087803b15801561052457600080fd5b505af1158015610538573d6000803e3d6000fd5b505060405163095ea7b360e01b81526001600160a01b037f000000000000000000000000000000000000000000000000000000000000000081166004830152602482018690527f000000000000000000000000000000000000000000000000000000000000000016925063095ea7b391506044016020604051808303816000875af11580156105cb573d6000803e3d6000fd5b505050506040513d601f19601f820116820180604052508101906105ef9190610d53565b506040516336efd16f60e01b8152600481018390526001600160a01b0382811660248301527f000000000000000000000000000000000000000000000000000000000000000016906336efd16f90604401600060405180830381600087803b15801561065a57600080fd5b505af115801561066e573d6000803e3d6000fd5b505050505050565b60405163d505accf60e01b8152336004820152306024820152604481018790526064810185905260ff8416608482015260a4810183905260c481018290527f00000000000000000000000000000000000000000000000000000000000000006001600160a01b03169063d505accf9060e401600060405180830381600087803b15801561070257600080fd5b505af1158015610716573d6000803e3d6000fd5b506107519250506001600160a01b037f00000000000000000000000000000000000000000000000000000000000000001690503330896109c3565b60405163095ea7b360e01b81526001600160a01b037f000000000000000000000000000000000000000000000000000000000000000081166004830152602482018890527f0000000000000000000000000000000000000000000000000000000000000000169063095ea7b3906044016020604051808303816000875af11580156107e0573d6000803e3d6000fd5b505050506040513d601f19601f820116820180604052508101906108049190610d53565b506040516317a790f160e11b8152306004820152602481018790527f00000000000000000000000000000000000000000000000000000000000000006001600160a01b031690632f4f21e290604401600060405180830381600087803b15801561086d57600080fd5b505af1158015610881573d6000803e3d6000fd5b505060405163095ea7b360e01b81526001600160a01b037f000000000000000000000000000000000000000000000000000000000000000081166004830152602482018a90527f000000000000000000000000000000000000000000000000000000000000000016925063095ea7b391506044016020604051808303816000875af1158015610914573d6000803e3d6000fd5b505050506040513d601f19601f820116820180604052508101906109389190610d53565b506040516336efd16f60e01b8152600481018790526001600160a01b0386811660248301527f000000000000000000000000000000000000000000000000000000000000000016906336efd16f90604401600060405180830381600087803b1580156109a357600080fd5b505af11580156109b7573d6000803e3d6000fd5b50505050505050505050565b604080516001600160a01b0385811660248301528416604482015260648082018490528251808303909101815260849091019091526020810180516001600160e01b03166323b872dd60e01b179052610a1d908590610a23565b50505050565b6000610a78826040518060400160405280602081526020017f5361666545524332303a206c6f772d6c6576656c2063616c6c206661696c6564815250856001600160a01b0316610b029092919063ffffffff16565b9050805160001480610a99575080806020019051810190610a999190610d53565b610afd5760405162461bcd60e51b815260206004820152602a60248201527f5361666545524332303a204552433230206f7065726174696f6e20646964206e6044820152691bdd081cdd58d8d9595960b21b60648201526084015b60405180910390fd5b505050565b6060610b118484600085610b19565b949350505050565b606082471015610b7a5760405162461bcd60e51b815260206004820152602660248201527f416464726573733a20696e73756666696369656e742062616c616e636520666f6044820152651c8818d85b1b60d21b6064820152608401610af4565b600080866001600160a01b03168587604051610b969190610da0565b60006040518083038185875af1925050503d8060008114610bd3576040519150601f19603f3d011682016040523d82523d6000602084013e610bd8565b606091505b5091509150610be987838387610bf4565b979650505050505050565b60608315610c63578251600003610c5c576001600160a01b0385163b610c5c5760405162461bcd60e51b815260206004820152601d60248201527f416464726573733a2063616c6c20746f206e6f6e2d636f6e74726163740000006044820152606401610af4565b5081610b11565b610b118383815115610c785781518083602001fd5b8060405162461bcd60e51b8152600401610af49190610dbc565b600060208284031215610ca457600080fd5b5035919050565b80356001600160a01b0381168114610cc257600080fd5b919050565b60008060408385031215610cda57600080fd5b82359150610cea60208401610cab565b90509250929050565b60008060008060008060c08789031215610d0c57600080fd5b86359550610d1c60208801610cab565b945060408701359350606087013560ff81168114610d3957600080fd5b9598949750929560808101359460a0909101359350915050565b600060208284031215610d6557600080fd5b81518015158114610d7557600080fd5b9392505050565b60005b83811015610d97578181015183820152602001610d7f565b50506000910152565b60008251610db2818460208701610d7c565b9190910192915050565b6020815260008251806020840152610ddb816040850160208701610d7c565b601f01601f1916919091016040019291505056fea26469706673582212204ce3ac31f0cb2bca2181c6a2406e9ea0f55c7ea978838671a0ff4eef5066344464736f6c63430008100033",
    "linkReferences": {}
  },
  "methodIdentifiers": {
    "AUXO()": "fb530d64",
    "PRV()": "71edb84d",
    "Staker()": "e75a0747",
    "convertAndStake(uint256)": "3f2d25c1",
    "convertAndStake(uint256,address)": "95b6a93e",
    "convertAndStakeWithSignature(uint256,address,uint256,uint8,bytes32,bytes32)": "b9b451b4"
  },
  "id": 124
}