{
  "abi": [
    {
      "inputs": [],
      "stateMutability": "nonpayable",
      "type": "constructor"
    },
    {
      "inputs": [
        {
          "internalType": "address",
          "name": "sender",
          "type": "address"
        },
        {
          "internalType": "uint256",
          "name": "withdrawAmount",
          "type": "uint256"
        }
      ],
      "name": "InvalidEmptyBalance",
      "type": "error"
    },
    {
      "inputs": [
        {
          "internalType": "address",
          "name": "sender",
          "type": "address"
        },
        {
          "internalType": "uint256",
          "name": "amount",
          "type": "uint256"
        }
      ],
      "name": "InvalidWithdrawalAmount",
      "type": "error"
    },
    {
      "inputs": [],
      "name": "TransferFailed",
      "type": "error"
    },
    {
      "inputs": [],
      "name": "ZeroAmount",
      "type": "error"
    },
    {
      "anonymous": false,
      "inputs": [
        {
          "indexed": true,
          "internalType": "address",
          "name": "depositor",
          "type": "address"
        },
        {
          "indexed": true,
          "internalType": "address",
          "name": "receiver",
          "type": "address"
        },
        {
          "indexed": true,
          "internalType": "uint8",
          "name": "epoch",
          "type": "uint8"
        },
        {
          "indexed": false,
          "internalType": "uint256",
          "name": "amount",
          "type": "uint256"
        }
      ],
      "name": "Deposited",
      "type": "event"
    },
    {
      "anonymous": false,
      "inputs": [
        {
          "indexed": true,
          "internalType": "address",
          "name": "user",
          "type": "address"
        },
        {
          "indexed": false,
          "internalType": "uint256",
          "name": "amount",
          "type": "uint256"
        }
      ],
      "name": "EmergencyWithdraw",
      "type": "event"
    },
    {
      "anonymous": false,
      "inputs": [
        {
          "indexed": true,
          "internalType": "address",
          "name": "depositor",
          "type": "address"
        },
        {
          "indexed": true,
          "internalType": "uint8",
          "name": "epoch",
          "type": "uint8"
        }
      ],
      "name": "Exited",
      "type": "event"
    },
    {
      "anonymous": false,
      "inputs": [
        {
          "indexed": false,
          "internalType": "uint8",
          "name": "version",
          "type": "uint8"
        }
      ],
      "name": "Initialized",
      "type": "event"
    },
    {
      "anonymous": false,
      "inputs": [
        {
          "indexed": true,
          "internalType": "uint8",
          "name": "newEpochId",
          "type": "uint8"
        },
        {
          "indexed": false,
          "internalType": "uint256",
          "name": "startedTimestamp",
          "type": "uint256"
        }
      ],
      "name": "NewEpoch",
      "type": "event"
    },
    {
      "anonymous": false,
      "inputs": [
        {
          "indexed": false,
          "internalType": "address",
          "name": "account",
          "type": "address"
        }
      ],
      "name": "Paused",
      "type": "event"
    },
    {
      "anonymous": false,
      "inputs": [
        {
          "indexed": true,
          "internalType": "bytes32",
          "name": "role",
          "type": "bytes32"
        },
        {
          "indexed": true,
          "internalType": "bytes32",
          "name": "previousAdminRole",
          "type": "bytes32"
        },
        {
          "indexed": true,
          "internalType": "bytes32",
          "name": "newAdminRole",
          "type": "bytes32"
        }
      ],
      "name": "RoleAdminChanged",
      "type": "event"
    },
    {
      "anonymous": false,
      "inputs": [
        {
          "indexed": true,
          "internalType": "bytes32",
          "name": "role",
          "type": "bytes32"
        },
        {
          "indexed": true,
          "internalType": "address",
          "name": "account",
          "type": "address"
        },
        {
          "indexed": true,
          "internalType": "address",
          "name": "sender",
          "type": "address"
        }
      ],
      "name": "RoleGranted",
      "type": "event"
    },
    {
      "anonymous": false,
      "inputs": [
        {
          "indexed": true,
          "internalType": "bytes32",
          "name": "role",
          "type": "bytes32"
        },
        {
          "indexed": true,
          "internalType": "address",
          "name": "account",
          "type": "address"
        },
        {
          "indexed": true,
          "internalType": "address",
          "name": "sender",
          "type": "address"
        }
      ],
      "name": "RoleRevoked",
      "type": "event"
    },
    {
      "anonymous": false,
      "inputs": [
        {
          "indexed": false,
          "internalType": "address",
          "name": "account",
          "type": "address"
        }
      ],
      "name": "Unpaused",
      "type": "event"
    },
    {
      "anonymous": false,
      "inputs": [
        {
          "indexed": true,
          "internalType": "address",
          "name": "depositor",
          "type": "address"
        },
        {
          "indexed": true,
          "internalType": "uint8",
          "name": "epoch",
          "type": "uint8"
        },
        {
          "indexed": false,
          "internalType": "uint256",
          "name": "amount",
          "type": "uint256"
        }
      ],
      "name": "Withdrawn",
      "type": "event"
    },
    {
      "inputs": [],
      "name": "DEFAULT_ADMIN_ROLE",
      "outputs": [
        {
          "internalType": "bytes32",
          "name": "",
          "type": "bytes32"
        }
      ],
      "stateMutability": "view",
      "type": "function"
    },
    {
      "inputs": [],
      "name": "OPERATOR_ROLE",
      "outputs": [
        {
          "internalType": "bytes32",
          "name": "",
          "type": "bytes32"
        }
      ],
      "stateMutability": "view",
      "type": "function"
    },
    {
      "inputs": [],
      "name": "activateNextEpoch",
      "outputs": [],
      "stateMutability": "nonpayable",
      "type": "function"
    },
    {
      "inputs": [],
      "name": "currentEpochId",
      "outputs": [
        {
          "internalType": "uint8",
          "name": "",
          "type": "uint8"
        }
      ],
      "stateMutability": "view",
      "type": "function"
    },
    {
      "inputs": [
        {
          "internalType": "uint256",
          "name": "_amount",
          "type": "uint256"
        }
      ],
      "name": "deposit",
      "outputs": [],
      "stateMutability": "nonpayable",
      "type": "function"
    },
    {
      "inputs": [
        {
          "internalType": "uint256",
          "name": "_amount",
          "type": "uint256"
        },
        {
          "internalType": "address",
          "name": "_receiver",
          "type": "address"
        }
      ],
      "name": "depositFor",
      "outputs": [],
      "stateMutability": "nonpayable",
      "type": "function"
    },
    {
      "inputs": [
        {
          "internalType": "uint256",
          "name": "_amount",
          "type": "uint256"
        },
        {
          "internalType": "address",
          "name": "_receiver",
          "type": "address"
        },
        {
          "internalType": "uint256",
          "name": "_deadline",
          "type": "uint256"
        },
        {
          "internalType": "uint8",
          "name": "v",
          "type": "uint8"
        },
        {
          "internalType": "bytes32",
          "name": "r",
          "type": "bytes32"
        },
        {
          "internalType": "bytes32",
          "name": "s",
          "type": "bytes32"
        }
      ],
      "name": "depositForWithSignature",
      "outputs": [],
      "stateMutability": "nonpayable",
      "type": "function"
    },
    {
      "inputs": [
        {
          "internalType": "uint256",
          "name": "_amount",
          "type": "uint256"
        },
        {
          "internalType": "uint256",
          "name": "_deadline",
          "type": "uint256"
        },
        {
          "internalType": "uint8",
          "name": "v",
          "type": "uint8"
        },
        {
          "internalType": "bytes32",
          "name": "r",
          "type": "bytes32"
        },
        {
          "internalType": "bytes32",
          "name": "s",
          "type": "bytes32"
        }
      ],
      "name": "depositWithSignature",
      "outputs": [],
      "stateMutability": "nonpayable",
      "type": "function"
    },
    {
      "inputs": [],
      "name": "emergencyWithdraw",
      "outputs": [],
      "stateMutability": "nonpayable",
      "type": "function"
    },
    {
      "inputs": [
        {
          "internalType": "uint256",
          "name": "",
          "type": "uint256"
        }
      ],
      "name": "epochBalances",
      "outputs": [
        {
          "internalType": "uint256",
          "name": "",
          "type": "uint256"
        }
      ],
      "stateMutability": "view",
      "type": "function"
    },
    {
      "inputs": [],
      "name": "epochPendingBalance",
      "outputs": [
        {
          "internalType": "uint256",
          "name": "",
          "type": "uint256"
        }
      ],
      "stateMutability": "view",
      "type": "function"
    },
    {
      "inputs": [
        {
          "internalType": "address",
          "name": "_user",
          "type": "address"
        }
      ],
      "name": "getActivations",
      "outputs": [
        {
          "components": [
            {
              "internalType": "uint256",
              "name": "_value",
              "type": "uint256"
            }
          ],
          "internalType": "struct Bitfields.Bitfield",
          "name": "",
          "type": "tuple"
        }
      ],
      "stateMutability": "view",
      "type": "function"
    },
    {
      "inputs": [
        {
          "internalType": "address",
          "name": "_user",
          "type": "address"
        }
      ],
      "name": "getActiveBalanceForUser",
      "outputs": [
        {
          "internalType": "uint256",
          "name": "",
          "type": "uint256"
        }
      ],
      "stateMutability": "view",
      "type": "function"
    },
    {
      "inputs": [],
      "name": "getCurrentEpochBalance",
      "outputs": [
        {
          "internalType": "uint256",
          "name": "",
          "type": "uint256"
        }
      ],
      "stateMutability": "view",
      "type": "function"
    },
    {
      "inputs": [
        {
          "internalType": "uint8",
          "name": "_epochId",
          "type": "uint8"
        }
      ],
      "name": "getEpochBalanceWithProjection",
      "outputs": [
        {
          "internalType": "uint256",
          "name": "",
          "type": "uint256"
        }
      ],
      "stateMutability": "view",
      "type": "function"
    },
    {
      "inputs": [],
      "name": "getEpochBalances",
      "outputs": [
        {
          "internalType": "uint256[]",
          "name": "",
          "type": "uint256[]"
        }
      ],
      "stateMutability": "view",
      "type": "function"
    },
    {
      "inputs": [
        {
          "internalType": "address",
          "name": "_user",
          "type": "address"
        }
      ],
      "name": "getPendingBalanceForUser",
      "outputs": [
        {
          "internalType": "uint256",
          "name": "",
          "type": "uint256"
        }
      ],
      "stateMutability": "view",
      "type": "function"
    },
    {
      "inputs": [],
      "name": "getProjectedNextEpochBalance",
      "outputs": [
        {
          "internalType": "uint256",
          "name": "",
          "type": "uint256"
        }
      ],
      "stateMutability": "view",
      "type": "function"
    },
    {
      "inputs": [
        {
          "internalType": "bytes32",
          "name": "role",
          "type": "bytes32"
        }
      ],
      "name": "getRoleAdmin",
      "outputs": [
        {
          "internalType": "bytes32",
          "name": "",
          "type": "bytes32"
        }
      ],
      "stateMutability": "view",
      "type": "function"
    },
    {
      "inputs": [
        {
          "internalType": "address",
          "name": "_user",
          "type": "address"
        }
      ],
      "name": "getTotalBalanceForUser",
      "outputs": [
        {
          "internalType": "uint256",
          "name": "",
          "type": "uint256"
        }
      ],
      "stateMutability": "view",
      "type": "function"
    },
    {
      "inputs": [
        {
          "internalType": "address",
          "name": "_user",
          "type": "address"
        }
      ],
      "name": "getUserStakingData",
      "outputs": [
        {
          "components": [
            {
              "components": [
                {
                  "internalType": "uint256",
                  "name": "_value",
                  "type": "uint256"
                }
              ],
              "internalType": "struct Bitfields.Bitfield",
              "name": "activations",
              "type": "tuple"
            },
            {
              "internalType": "uint8",
              "name": "epochWritten",
              "type": "uint8"
            },
            {
              "internalType": "uint120",
              "name": "pending",
              "type": "uint120"
            },
            {
              "internalType": "uint120",
              "name": "active",
              "type": "uint120"
            }
          ],
          "internalType": "struct IRollStaker.UserStake",
          "name": "",
          "type": "tuple"
        }
      ],
      "stateMutability": "view",
      "type": "function"
    },
    {
      "inputs": [
        {
          "internalType": "bytes32",
          "name": "role",
          "type": "bytes32"
        },
        {
          "internalType": "address",
          "name": "account",
          "type": "address"
        }
      ],
      "name": "grantRole",
      "outputs": [],
      "stateMutability": "nonpayable",
      "type": "function"
    },
    {
      "inputs": [
        {
          "internalType": "bytes32",
          "name": "role",
          "type": "bytes32"
        },
        {
          "internalType": "address",
          "name": "account",
          "type": "address"
        }
      ],
      "name": "hasRole",
      "outputs": [
        {
          "internalType": "bool",
          "name": "",
          "type": "bool"
        }
      ],
      "stateMutability": "view",
      "type": "function"
    },
    {
      "inputs": [
        {
          "internalType": "address",
          "name": "_stakingToken",
          "type": "address"
        }
      ],
      "name": "initialize",
      "outputs": [],
      "stateMutability": "nonpayable",
      "type": "function"
    },
    {
      "inputs": [
        {
          "internalType": "address",
          "name": "_user",
          "type": "address"
        }
      ],
      "name": "lastEpochUserWasActive",
      "outputs": [
        {
          "internalType": "uint8",
          "name": "",
          "type": "uint8"
        }
      ],
      "stateMutability": "view",
      "type": "function"
    },
    {
      "inputs": [],
      "name": "pause",
      "outputs": [],
      "stateMutability": "nonpayable",
      "type": "function"
    },
    {
      "inputs": [],
      "name": "paused",
      "outputs": [
        {
          "internalType": "bool",
          "name": "",
          "type": "bool"
        }
      ],
      "stateMutability": "view",
      "type": "function"
    },
    {
      "inputs": [],
      "name": "quit",
      "outputs": [],
      "stateMutability": "nonpayable",
      "type": "function"
    },
    {
      "inputs": [
        {
          "internalType": "bytes32",
          "name": "role",
          "type": "bytes32"
        },
        {
          "internalType": "address",
          "name": "account",
          "type": "address"
        }
      ],
      "name": "renounceRole",
      "outputs": [],
      "stateMutability": "nonpayable",
      "type": "function"
    },
    {
      "inputs": [
        {
          "internalType": "bytes32",
          "name": "role",
          "type": "bytes32"
        },
        {
          "internalType": "address",
          "name": "account",
          "type": "address"
        }
      ],
      "name": "revokeRole",
      "outputs": [],
      "stateMutability": "nonpayable",
      "type": "function"
    },
    {
      "inputs": [],
      "name": "stakingToken",
      "outputs": [
        {
          "internalType": "contract IERC20Upgradeable",
          "name": "",
          "type": "address"
        }
      ],
      "stateMutability": "view",
      "type": "function"
    },
    {
      "inputs": [
        {
          "internalType": "bytes4",
          "name": "interfaceId",
          "type": "bytes4"
        }
      ],
      "name": "supportsInterface",
      "outputs": [
        {
          "internalType": "bool",
          "name": "",
          "type": "bool"
        }
      ],
      "stateMutability": "view",
      "type": "function"
    },
    {
      "inputs": [],
      "name": "unpause",
      "outputs": [],
      "stateMutability": "nonpayable",
      "type": "function"
    },
    {
      "inputs": [
        {
          "internalType": "address",
          "name": "_user",
          "type": "address"
        }
      ],
      "name": "userIsActive",
      "outputs": [
        {
          "internalType": "bool",
          "name": "",
          "type": "bool"
        }
      ],
      "stateMutability": "view",
      "type": "function"
    },
    {
      "inputs": [
        {
          "internalType": "address",
          "name": "_user",
          "type": "address"
        },
        {
          "internalType": "uint8",
          "name": "_epoch",
          "type": "uint8"
        }
      ],
      "name": "userIsActiveForEpoch",
      "outputs": [
        {
          "internalType": "bool",
          "name": "",
          "type": "bool"
        }
      ],
      "stateMutability": "view",
      "type": "function"
    },
    {
      "inputs": [
        {
          "internalType": "address",
          "name": "",
          "type": "address"
        }
      ],
      "name": "userStakes",
      "outputs": [
        {
          "components": [
            {
              "internalType": "uint256",
              "name": "_value",
              "type": "uint256"
            }
          ],
          "internalType": "struct Bitfields.Bitfield",
          "name": "activations",
          "type": "tuple"
        },
        {
          "internalType": "uint8",
          "name": "epochWritten",
          "type": "uint8"
        },
        {
          "internalType": "uint120",
          "name": "pending",
          "type": "uint120"
        },
        {
          "internalType": "uint120",
          "name": "active",
          "type": "uint120"
        }
      ],
      "stateMutability": "view",
      "type": "function"
    },
    {
      "inputs": [
        {
          "internalType": "uint256",
          "name": "_amount",
          "type": "uint256"
        }
      ],
      "name": "withdraw",
      "outputs": [],
      "stateMutability": "nonpayable",
      "type": "function"
    }
  ],
  "bytecode": {
    "object": "0x60806040523480156200001157600080fd5b506200001c62000022565b620000e3565b600054610100900460ff16156200008f5760405162461bcd60e51b815260206004820152602760248201527f496e697469616c697a61626c653a20636f6e747261637420697320696e697469604482015266616c697a696e6760c81b606482015260840160405180910390fd5b60005460ff90811614620000e1576000805460ff191660ff9081179091556040519081527f7f26b83ff96e1f2b6a682f133852f6798a09c465da95921460cefb38474024989060200160405180910390a15b565b61287f80620000f36000396000f3fe608060405234801561001057600080fd5b50600436106102275760003560e01c80636d96b57911610130578063b6b55f25116100b8578063eacdc5ff1161007c578063eacdc5ff146105fd578063f5b541a614610623578063f76047da14610638578063f780c9161461064b578063fc2b8cc31461065e57600080fd5b8063b6b55f25146105a9578063c4d66de8146105bc578063d547741f146105cf578063db2e21bc146105e2578063e45f18b1146105ea57600080fd5b80638a75a543116100ff5780638a75a543146104e25780638da7ad23146104f757806391d148541461057b578063a217fddf1461058e578063abf77f2b1461059657600080fd5b80636d96b5791461048957806372f702f31461049c5780638456cb59146104c7578063882102c5146104cf57600080fd5b806336efd16f116101b357806348fa5cf31161018257806348fa5cf31461043d5780635184bf411461045057806355ffc232146104635780635c975abb1461046b57806368e7db7e1461047657600080fd5b806336efd16f1461032a5780633f4ba83a1461033d5780634195ec7e14610345578063436ec6ef1461035857600080fd5b8063248a9ca3116101fa578063248a9ca3146102c65780632d5bf3d3146102e95780632e1a7d4d146102f15780632f2ff15d1461030457806336568abe1461031757600080fd5b806301ffc9a71461022c5780630461861e146102545780631a46d0d21461025e5780631ef72009146102af575b600080fd5b61023f61023a36600461231c565b610666565b60405190151581526020015b60405180910390f35b61025c61069d565b005b6102a061026c366004612362565b60408051602080820183526000918290526001600160a01b0393909316815260fe8352819020815192830190915254815290565b6040519051815260200161024b565b6102b860fd5481565b60405190815260200161024b565b6102b86102d436600461237d565b60009081526065602052604090206001015490565b6102b86107af565b61025c6102ff36600461237d565b6107f0565b61025c610312366004612396565b6108ba565b61025c610325366004612396565b6108e4565b61025c610338366004612396565b610962565b61025c6109a9565b61023f610353366004612362565b6109c9565b6103f9610366366004612362565b6040805160a0810182526000608082018181528252602082018190529181018290526060810191909152506001600160a01b0316600090815260fe6020908152604091829020825160a081018452815460808201908152815260019091015460ff8116928201929092526001600160781b036101008304811693820193909352600160801b909104909116606082015290565b60408051825151815260208084015160ff1690820152828201516001600160781b03908116928201929092526060928301519091169181019190915260800161024b565b6102b861044b366004612362565b610a73565b6102b861045e366004612362565b610ae4565b6102b8610b21565b60975460ff1661023f565b6102b8610484366004612362565b610b54565b61025c6104973660046123d1565b610bc9565b60fb546104af906001600160a01b031681565b6040516001600160a01b03909116815260200161024b565b61025c610c84565b61023f6104dd36600461242b565b610ca4565b6104ea610d4b565b60405161024b9190612462565b610549610505366004612362565b60fe6020908152600091825260409182902082519182019092528154815260019091015460ff8116906001600160781b036101008204811691600160801b90041684565b604080519451855260ff90931660208501526001600160781b039182169284019290925216606082015260800161024b565b61023f610589366004612396565b610da3565b6102b8600081565b6102b86105a43660046124a6565b610dce565b61025c6105b736600461237d565b610e19565b61025c6105ca366004612362565b610e65565b61025c6105dd366004612396565b611038565b61025c61105d565b61025c6105f83660046124c3565b6111af565b60fb5461061190600160a01b900460ff1681565b60405160ff909116815260200161024b565b6102b860008051602061282a83398151915281565b6102b861064636600461237d565b61126a565b610611610659366004612362565b61128b565b61025c611335565b60006001600160e01b03198216637965db0b60e01b148061069757506301ffc9a760e01b6001600160e01b03198316145b92915050565b60008051602061282a8339815191526106b5816113a2565b60fd5460fb5460fc805460009392600160a01b900460ff169081106106dc576106dc61250c565b90600052602060002001546106f19190612538565b60fc805460018101825560009182527f371f36870d18f32a11fea0f144b021c8b407bb50f8e0267c711123f454b963c00182905560fd5560fb8054919250600160a01b90910460ff169060146107468361254b565b91906101000a81548160ff021916908360ff1602179055505060fb60149054906101000a900460ff1660ff167fd74fa96d1c657c4bdfd422048a68c13c55a4991b33faafc7a6f48b293cdbfa1a426040516107a391815260200190565b60405180910390a25050565b60fd5460fb5460fc805460009392600160a01b900460ff169081106107d6576107d661250c565b90600052602060002001546107eb9190612538565b905090565b6107f86113ac565b610800611405565b808060000361082257604051631f2a200560e01b815260040160405180910390fd5b33600090815260fe60205260408120600181015490919061085a906001600160781b03600160801b8204811691610100900416612538565b90508084111561088b5760405163f76cbe1b60e01b8152336004820152602481018590526044015b60405180910390fd5b8084146108a15761089c848361144d565b6108aa565b6108aa82611750565b5050506108b7600160c955565b50565b6000828152606560205260409020600101546108d5816113a2565b6108df83836119ae565b505050565b6001600160a01b03811633146109545760405162461bcd60e51b815260206004820152602f60248201527f416363657373436f6e74726f6c3a2063616e206f6e6c792072656e6f756e636560448201526e103937b632b9903337b91039b2b63360891b6064820152608401610882565b61095e8282611a34565b5050565b61096a6113ac565b610972611405565b818060000361099457604051631f2a200560e01b815260040160405180910390fd5b61099e8383611a9b565b5061095e600160c955565b60008051602061282a8339815191526109c1816113a2565b6108b7611e70565b6001600160a01b038116600090815260fe602090815260408083208151928301825254825260fb5490516389e129ff60e01b815291516004830152600160a01b900460ff16602482015273__$209743b3609d88620f760dba8ffa7b8f66$__906389e129ff90604401602060405180830381865af4158015610a4f573d6000803e3d6000fd5b505050506040513d601f19601f82011682018060405250810190610697919061256a565b60fb546001600160a01b038216600090815260fe60205260408120600101549091600160a01b900460ff908116911614610ab557610ab082610ae4565b610697565b506001600160a01b0316600090815260fe6020526040902060010154600160801b90046001600160781b031690565b6001600160a01b038116600090815260fe6020526040812060010154610697906001600160781b03600160801b8204811691610100900416612538565b60fb5460fc8054600092600160a01b900460ff16908110610b4457610b4461250c565b9060005260206000200154905090565b60fb546001600160a01b038216600090815260fe60205260408120600101549091600160a01b900460ff908116911614610b8f576000610bba565b6001600160a01b038216600090815260fe602052604090206001015461010090046001600160781b03165b6001600160781b031692915050565b610bd16113ac565b610bd9611405565b8580600003610bfb57604051631f2a200560e01b815260040160405180910390fd5b60fb546001600160a01b031663d505accf33308a898989896040518863ffffffff1660e01b8152600401610c35979695949392919061258c565b600060405180830381600087803b158015610c4f57600080fd5b505af1158015610c63573d6000803e3d6000fd5b50505050610c718787611a9b565b50610c7c600160c955565b505050505050565b60008051602061282a833981519152610c9c816113a2565b6108b7611ec2565b6001600160a01b038216600090815260fe6020908152604080832081519283018252548252516389e129ff60e01b81529051600482015260ff8316602482015273__$209743b3609d88620f760dba8ffa7b8f66$__906389e129ff90604401602060405180830381865af4158015610d20573d6000803e3d6000fd5b505050506040513d601f19601f82011682018060405250810190610d44919061256a565b9392505050565b606060fc805480602002602001604051908101604052809291908181526020018280548015610d9957602002820191906000526020600020905b815481526020019060010190808311610d85575b5050505050905090565b60009182526065602090815260408084206001600160a01b0393909316845291905290205460ff1690565b60fb5460009060ff600160a01b90910481169083161115610df1576106976107af565b60fc8260ff1681548110610e0757610e0761250c565b90600052602060002001549050919050565b610e216113ac565b610e29611405565b8080600003610e4b57604051631f2a200560e01b815260040160405180910390fd5b610e5a8233611a9b565b611a9b565b506108b7600160c955565b600054610100900460ff1615808015610e855750600054600160ff909116105b80610e9f5750303b158015610e9f575060005460ff166001145b610f025760405162461bcd60e51b815260206004820152602e60248201527f496e697469616c697a61626c653a20636f6e747261637420697320616c72656160448201526d191e481a5b9a5d1a585b1a5e995960921b6064820152608401610882565b6000805460ff191660011790558015610f25576000805461ff0019166101001790555b610f2d611eff565b610f35611f26565b610f3d611f55565b60fb80546001600160a01b0319166001600160a01b038416179055610f636000336119ae565b610f7b60008051602061282a833981519152336119ae565b60fc805460018101825560009182527f371f36870d18f32a11fea0f144b021c8b407bb50f8e0267c711123f454b963c0015560fb54604051428152600160a01b90910460ff16907fd74fa96d1c657c4bdfd422048a68c13c55a4991b33faafc7a6f48b293cdbfa1a9060200160405180910390a2801561095e576000805461ff0019169055604051600181527f7f26b83ff96e1f2b6a682f133852f6798a09c465da95921460cefb38474024989060200160405180910390a15050565b600082815260656020526040902060010154611053816113a2565b6108df8383611a34565b6000611068816113a2565b60fb546040516370a0823160e01b81523060048201526000916001600160a01b0316906370a0823190602401602060405180830381865afa1580156110b1573d6000803e3d6000fd5b505050506040513d601f19601f820116820180604052508101906110d591906125cd565b60fb549091506001600160a01b031663a9059cbb336040516001600160e01b031960e084901b1681526001600160a01b039091166004820152602481018490526044016020604051808303816000875af1158015611137573d6000803e3d6000fd5b505050506040513d601f19601f8201168201806040525081019061115b919061256a565b151560000361117d576040516312171d8360e31b815260040160405180910390fd5b60405181815233907f5fafa99d0643513820be26656b45130b01e1c03062e1266bf36f88cbd3bd9695906020016107a3565b6111b76113ac565b6111bf611405565b84806000036111e157604051631f2a200560e01b815260040160405180910390fd5b60fb546001600160a01b031663d505accf333089898989896040518863ffffffff1660e01b815260040161121b979695949392919061258c565b600060405180830381600087803b15801561123557600080fd5b505af1158015611249573d6000803e3d6000fd5b5050505061125886610e553390565b50611263600160c955565b5050505050565b60fc818154811061127a57600080fd5b600091825260209091200154905081565b6001600160a01b038116600090815260fe602090815260408083208151928301825254825260fb549051631fef0f6b60e11b815291516004830152600160a01b900460ff16602482015273__$209743b3609d88620f760dba8ffa7b8f66$__90633fde1ed690604401602060405180830381865af4158015611311573d6000803e3d6000fd5b505050506040513d601f19601f8201168201806040525081019061069791906125e6565b33600090815260fe6020908152604091829020825160a081018452815460808201908152815260019091015460ff8116928201929092526001600160781b0361010083048116938201849052600160801b9092049091166060820181905290916108b7916102ff91612538565b6108b78133611f84565b600260c954036113fe5760405162461bcd60e51b815260206004820152601f60248201527f5265656e7472616e637947756172643a207265656e7472616e742063616c6c006044820152606401610882565b600260c955565b60975460ff161561144b5760405162461bcd60e51b815260206004820152601060248201526f14185d5cd8589b194e881c185d5cd95960821b6044820152606401610882565b565b61145681611fdd565b600181015461010090046001600160781b031682111561157e576001810154600090611499906114949061010090046001600160781b031685612603565b61205e565b90508160010160019054906101000a90046001600160781b03166001600160781b031660fd60008282546114cd9190612603565b909155505060fb5460fc80546001600160781b03841692600160a01b900460ff169081106114fd576114fd61250c565b9060005260206000200160008282546115169190612603565b9091555050600182018054829190601090611542908490600160801b90046001600160781b0316612616565b82546001600160781b039182166101009390930a92830291909202199091161790555050600181018054610100600160801b03191690556115e9565b8160fd60008282546115909190612603565b9091555061159f90508261205e565b8160010160018282829054906101000a90046001600160781b03166115c49190612616565b92506101000a8154816001600160781b0302191690836001600160781b031602179055505b600181015461160f906001600160781b03600160801b8204811691610100900416612538565b60000361163857604051632139286960e11b815233600482015260248101839052604401610882565b60fb8054600183018054600160a01b90920460ff1660ff19909216919091179055546001600160a01b031663a9059cbb336040516001600160e01b031960e084901b1681526001600160a01b039091166004820152602481018590526044016020604051808303816000875af11580156116b6573d6000803e3d6000fd5b505050506040513d601f19601f820116820180604052508101906116da919061256a565b15156000036116fc576040516312171d8360e31b815260040160405180910390fd5b60fb54600160a01b900460ff16336001600160a01b03167f83637d0d125e3dae88720b1ad229ce05c339c065b6282caf315dcb35a999d6d48460405161174491815260200190565b60405180910390a35050565b61175981611fdd565b8060010160019054906101000a90046001600160781b03166001600160781b031660fd600082825461178b9190612603565b9091555050600181015460fb5460fc8054600160801b9093046001600160781b0316929091600160a01b900460ff169081106117c9576117c961250c565b9060005260206000200160008282546117e29190612603565b90915550506001810154600090611810906001600160781b03600160801b8204811691610100900416612538565b600183018054610100600160f81b03198116825560fb8054600160a01b9081900460ff9081166001600160f81b031990941693909317909355546040516317f659e760e31b81526004810187905292900416602482015290915073__$209743b3609d88620f760dba8ffa7b8f66$__9063bfb2cf389060440160006040518083038186803b1580156118a157600080fd5b505af41580156118b5573d6000803e3d6000fd5b505060fb546001600160a01b0316915063a9059cbb9050336040516001600160e01b031960e084901b1681526001600160a01b039091166004820152602481018490526044016020604051808303816000875af115801561191a573d6000803e3d6000fd5b505050506040513d601f19601f8201168201806040525081019061193e919061256a565b1515600003611960576040516312171d8360e31b815260040160405180910390fd5b60fb54600160a01b900460ff16336001600160a01b03167f4923f5f6c33885d796d7972bd39b9dde05ee75452bf59e6b4e635edea31a54c960405160405180910390a35050565b600160c955565b6119b88282610da3565b61095e5760008281526065602090815260408083206001600160a01b03851684529091529020805460ff191660011790556119f03390565b6001600160a01b0316816001600160a01b0316837f2f8788117e7eff1d82e926ec794901d17c78024a50270940304540a733656f0d60405160405180910390a45050565b611a3e8282610da3565b1561095e5760008281526065602090815260408083206001600160a01b0385168085529252808320805460ff1916905551339285917ff6391f5c32d9c69d2a47ea670b442974b53935d1edc7fd64eb21e047a839171b9190a45050565b6001600160a01b038116600090815260fe60205260409020611abc81611fdd565b60fb54600090611ad790600160a01b900460ff16600161263d565b60408051602081018252845481529051633bb88b5f60e21b81529051600482015290915073__$209743b3609d88620f760dba8ffa7b8f66$__9063eee22d7c90602401602060405180830381865af4158015611b37573d6000803e3d6000fd5b505050506040513d601f19601f82011682018060405250810190611b5b919061256a565b15611bde576040516321a8f35b60e11b815260ff8216600482015273__$209743b3609d88620f760dba8ffa7b8f66$__90634351e6b690602401602060405180830381865af4158015611bb2573d6000803e3d6000fd5b505050506040513d601f19601f82011682018060405250810190611bd6919061266c565b518255611cd9565b604080516020810182528354815290516389e129ff60e01b81529051600482015260ff8216602482015273__$209743b3609d88620f760dba8ffa7b8f66$__906389e129ff90604401602060405180830381865af4158015611c44573d6000803e3d6000fd5b505050506040513d601f19601f82011682018060405250810190611c68919061256a565b611cd957604051634d922a7560e01b81526004810183905260ff8216602482015273__$209743b3609d88620f760dba8ffa7b8f66$__90634d922a759060440160006040518083038186803b158015611cc057600080fd5b505af4158015611cd4573d6000803e3d6000fd5b505050505b611ce28461205e565b8260010160018282829054906101000a90046001600160781b0316611d0791906126bc565b92506101000a8154816001600160781b0302191690836001600160781b0316021790555060fb60149054906101000a900460ff168260010160006101000a81548160ff021916908360ff1602179055508360fd6000828254611d699190612538565b909155505060fb546001600160a01b03166323b872dd336040516001600160e01b031960e084901b1681526001600160a01b039091166004820152306024820152604481018790526064016020604051808303816000875af1158015611dd3573d6000803e3d6000fd5b505050506040513d601f19601f82011682018060405250810190611df7919061256a565b1515600003611e19576040516312171d8360e31b815260040160405180910390fd5b60ff81166001600160a01b038416336001600160a01b03167fa2deda57a8a9061bddc1027447650c7fe8c083de66b011362866e2549e3355eb87604051611e6291815260200190565b60405180910390a450505050565b611e786120cb565b6097805460ff191690557f5db9ee0a495bf2e6ff9c91a7834c1ba4fdd244a5e8aa4e537bd38aeae4b073aa335b6040516001600160a01b03909116815260200160405180910390a1565b611eca611405565b6097805460ff191660011790557f62e78cea01bee320cd4e420270b5ea74000d11b0c9f74754ebdbfc544b05a258611ea53390565b600054610100900460ff1661144b5760405162461bcd60e51b8152600401610882906126dc565b600054610100900460ff16611f4d5760405162461bcd60e51b8152600401610882906126dc565b61144b612114565b600054610100900460ff16611f7c5760405162461bcd60e51b8152600401610882906126dc565b61144b612147565b611f8e8282610da3565b61095e57611f9b8161216e565b611fa6836020612180565b604051602001611fb792919061274b565b60408051601f198184030181529082905262461bcd60e51b8252610882916004016127c0565b60fb54600182015460ff600160a01b9092048216911610156108b7576001810180546001600160781b03610100820481169291601091612027918591600160801b909104166126bc565b82546001600160781b039182166101009390930a9283029190920219909116179055506001018054610100600160801b0319169055565b60006001600160781b038211156120c75760405162461bcd60e51b815260206004820152602760248201527f53616665436173743a2076616c756520646f65736e27742066697420696e20316044820152663230206269747360c81b6064820152608401610882565b5090565b60975460ff1661144b5760405162461bcd60e51b815260206004820152601460248201527314185d5cd8589b194e881b9bdd081c185d5cd95960621b6044820152606401610882565b600054610100900460ff1661213b5760405162461bcd60e51b8152600401610882906126dc565b6097805460ff19169055565b600054610100900460ff166119a75760405162461bcd60e51b8152600401610882906126dc565b60606106976001600160a01b03831660145b6060600061218f8360026127f3565b61219a906002612538565b67ffffffffffffffff8111156121b2576121b2612656565b6040519080825280601f01601f1916602001820160405280156121dc576020820181803683370190505b509050600360fc1b816000815181106121f7576121f761250c565b60200101906001600160f81b031916908160001a905350600f60fb1b816001815181106122265761222661250c565b60200101906001600160f81b031916908160001a905350600061224a8460026127f3565b612255906001612538565b90505b60018111156122cd576f181899199a1a9b1b9c1cb0b131b232b360811b85600f16601081106122895761228961250c565b1a60f81b82828151811061229f5761229f61250c565b60200101906001600160f81b031916908160001a90535060049490941c936122c681612812565b9050612258565b508315610d445760405162461bcd60e51b815260206004820181905260248201527f537472696e67733a20686578206c656e67746820696e73756666696369656e746044820152606401610882565b60006020828403121561232e57600080fd5b81356001600160e01b031981168114610d4457600080fd5b80356001600160a01b038116811461235d57600080fd5b919050565b60006020828403121561237457600080fd5b610d4482612346565b60006020828403121561238f57600080fd5b5035919050565b600080604083850312156123a957600080fd5b823591506123b960208401612346565b90509250929050565b60ff811681146108b757600080fd5b60008060008060008060c087890312156123ea57600080fd5b863595506123fa60208801612346565b9450604087013593506060870135612411816123c2565b9598949750929560808101359460a0909101359350915050565b6000806040838503121561243e57600080fd5b61244783612346565b91506020830135612457816123c2565b809150509250929050565b6020808252825182820181905260009190848201906040850190845b8181101561249a5783518352928401929184019160010161247e565b50909695505050505050565b6000602082840312156124b857600080fd5b8135610d44816123c2565b600080600080600060a086880312156124db57600080fd5b853594506020860135935060408601356124f4816123c2565b94979396509394606081013594506080013592915050565b634e487b7160e01b600052603260045260246000fd5b634e487b7160e01b600052601160045260246000fd5b8082018082111561069757610697612522565b600060ff821660ff810361256157612561612522565b60010192915050565b60006020828403121561257c57600080fd5b81518015158114610d4457600080fd5b6001600160a01b0397881681529590961660208601526040850193909352606084019190915260ff16608083015260a082015260c081019190915260e00190565b6000602082840312156125df57600080fd5b5051919050565b6000602082840312156125f857600080fd5b8151610d44816123c2565b8181038181111561069757610697612522565b6001600160781b0382811682821603908082111561263657612636612522565b5092915050565b60ff818116838216019081111561069757610697612522565b634e487b7160e01b600052604160045260246000fd5b60006020828403121561267e57600080fd5b6040516020810181811067ffffffffffffffff821117156126af57634e487b7160e01b600052604160045260246000fd5b6040529151825250919050565b6001600160781b0381811683821601908082111561263657612636612522565b6020808252602b908201527f496e697469616c697a61626c653a20636f6e7472616374206973206e6f74206960408201526a6e697469616c697a696e6760a81b606082015260800190565b60005b8381101561274257818101518382015260200161272a565b50506000910152565b7f416363657373436f6e74726f6c3a206163636f756e7420000000000000000000815260008351612783816017850160208801612727565b7001034b99036b4b9b9b4b733903937b6329607d1b60179184019182015283516127b4816028840160208801612727565b01602801949350505050565b60208152600082518060208401526127df816040850160208701612727565b601f01601f19169190910160400192915050565b600081600019048311821515161561280d5761280d612522565b500290565b60008161282157612821612522565b50600019019056fe97667070c54ef182b0f5858b034beac1b6f3089aa2d3188bb1e8929f4fa9b929a26469706673582212205ca1a8e2dea0d37ea66a4dff442fc85152ecba60c6b0fdc6b3ff0cd0c861988664736f6c63430008100033",
    "linkReferences": {
      "src/modules/PRV/bitfield.sol": {
        "Bitfields": [
          {
            "start": 2824,
            "length": 20
          },
          {
            "start": 3545,
            "length": 20
          },
          {
            "start": 5066,
            "length": 20
          },
          {
            "start": 6495,
            "length": 20
          },
          {
            "start": 7152,
            "length": 20
          },
          {
            "start": 7275,
            "length": 20
          },
          {
            "start": 7421,
            "length": 20
          },
          {
            "start": 7550,
            "length": 20
          }
        ]
      }
    }
  },
  "methodIdentifiers": {
    "DEFAULT_ADMIN_ROLE()": "a217fddf",
    "OPERATOR_ROLE()": "f5b541a6",
    "activateNextEpoch()": "0461861e",
    "currentEpochId()": "eacdc5ff",
    "deposit(uint256)": "b6b55f25",
    "depositFor(uint256,address)": "36efd16f",
    "depositForWithSignature(uint256,address,uint256,uint8,bytes32,bytes32)": "6d96b579",
    "depositWithSignature(uint256,uint256,uint8,bytes32,bytes32)": "e45f18b1",
    "emergencyWithdraw()": "db2e21bc",
    "epochBalances(uint256)": "f76047da",
    "epochPendingBalance()": "1ef72009",
    "getActivations(address)": "1a46d0d2",
    "getActiveBalanceForUser(address)": "48fa5cf3",
    "getCurrentEpochBalance()": "55ffc232",
    "getEpochBalanceWithProjection(uint8)": "abf77f2b",
    "getEpochBalances()": "8a75a543",
    "getPendingBalanceForUser(address)": "68e7db7e",
    "getProjectedNextEpochBalance()": "2d5bf3d3",
    "getRoleAdmin(bytes32)": "248a9ca3",
    "getTotalBalanceForUser(address)": "5184bf41",
    "getUserStakingData(address)": "436ec6ef",
    "grantRole(bytes32,address)": "2f2ff15d",
    "hasRole(bytes32,address)": "91d14854",
    "initialize(address)": "c4d66de8",
    "lastEpochUserWasActive(address)": "f780c916",
    "pause()": "8456cb59",
    "paused()": "5c975abb",
    "quit()": "fc2b8cc3",
    "renounceRole(bytes32,address)": "36568abe",
    "revokeRole(bytes32,address)": "d547741f",
    "stakingToken()": "72f702f3",
    "supportsInterface(bytes4)": "01ffc9a7",
    "unpause()": "3f4ba83a",
    "userIsActive(address)": "4195ec7e",
    "userIsActiveForEpoch(address,uint8)": "882102c5",
    "userStakes(address)": "8da7ad23",
    "withdraw(uint256)": "2e1a7d4d"
  },
  "id": 125
}